:100000000C944C570C94615A0C948C5A0C94B75A1B
:100010000C94E25A0C940D5B0C94385B0C94635B6B
:100020000C948E5B0C9487570C9487570C948757CD
:100030000C9487570C940C630C9487570D9425925D
:100040000C9487570D94B3250C9487570C948757BD
:100050000C9487570C9487570D942B370C94895721
:100060000C9487570D949FC40C9487570C94875712
:100070000C9487570D9488920C9487570C9487574B
:100080000C9487570C9487570C9487570C94875778
:100090000C9487570C9487570C9487570C94875768
:1000A0000C9487570C9487570C9487570C94875758
:1000B0000C9487570C9487570C9487570C94875748
:1000C0000C9487570C9487570C94E8780C948757B6
:1000D0000C9487570C9487570C9487570C94875728
:1000E0000C948757BB58C058C558CF58D958505949
:1000F000E358EB58F358FD58075911591E59285920
:10010000505932593C5946597D5981596B59715949
:100110007759C65985598B59915997599D59A35962
:10012000A959AF59C659B559BB59C159F75DFF5DBA
:10013000195E095E195E195E195E195E195E195E17
:10014000195E195E195E195E195E195E195E195EF7
:10015000195E195E195E195E195E195E195E195EE7
:10016000195E195E195E195EF15D195E195E195E00
:10017000195E195E195E195E195EE55D195E195EFC
:10018000195E195E195E195E195E195E195E195EB7
:100190000F5E145EA6A1A6A1A6A1B0A1A6A1A6A1CC
:1001A000A6A198A194A1AED6A6D69ED696D68ED656
:1001B00086D67ED676D66ED666D65ED656D64ED63F
:1001C00046D63ED636D62ED6D8D5A5D57CD55DD545
:1001D00055D54DD545D53DD535D52DD525D51DD5AF
:1001E00015D50DD505D5FDD4F5D4EDD4E5D4DDD4A4
:1001F000D5D4CDD4C5D4BDD4B5D4ADD4A5D49DD497
:1002000095D48DD485D47DD475D46DD465D45DD486
:1002100055D44DD445D43DD435D42DD425D41DD476
:1002200015D40DD405D4FDD3F5D35FD3C9D233D2C1
:10023000BDD17AD12CD1E8D09BD058D00AD0C6CF2E
:1002400079CF36CFE8CEA4CE9CCE94CE6BCE3DCE29
:1002500016CEE5CDB9CD7FCD45CD1ECDEBCCCCCCEA
:1002600076CC4ACC23CCF5CBCACB9FCB6CCB1FCB67
:10027000F9CAA4CA7ECA53CA2DCA00CAD7C908C9B6
:10028000E2C8B0C883C85BC833C8E0C7BAC77CC778
:1002900027C7FDC6BEC691C666C63BC611C6DFC52A
:1002A000B5C583C559C504C5DEC4A3C450C43DC487
:1002B00012C4ECC3D1C38DC3AFC344DE34DE2CDE25
:1002C00024DE1CDE14DE00DE3CDE9AEC8AEC82ECDE
:1002D0007AEC72EC6AEC56EC92EC98F288F280F2CE
:1002E00078F270F268F254F290F263F463F463F41B
:1002F00063F463F463F463F463F469054D05DB02AE
:100300007B026D030F041904370275043B03690374
:100310005B03E90249034903810321047B031F02B4
:100320001F021F021F021F021F021F021F021F02C5
:100330001F021F021F021F021F021F021F021F02B5
:100340001F021F021F021F021F021F0263042F044D
:10035000A7041F021F021F021F021F021F021F020B
:100360001F021F021F021F021F021F021F021F0285
:100370001F021F021F021F021F021F021F021F0275
:100380001F021F021F021F021F021F021F021F0265
:100390001F021F021F021F021F021F021F021F0255
:1003A0001F021F021F021F021F021F021F021F0245
:1003B0001F021F021F021F021F021F021F021F0235
:1003C0001F021F021F021F0265022D054505084A74
:1003D000D73B3BCE016E84BCBFFDC12F3D6C743159
:1003E0009ABD56833DDA3D00C77F11BED9E4BB4CB0
:1003F0003E916BAAAABE000000803F05A84CCDB27A
:10040000D44EB93836A9020C50B9918688083CA65A
:10041000AAAA2ABE000000803F000C9420BA0D94C6
:10042000CC090C94C2A90C941E590C9473E80C943A
:100430001EA90D94D0090C94BFF00D9426790D944B
:10044000CCA80D94AA6A0C940AD00C948ED60C9465
:10045000C7630D949A0B0C94C0F40C9476A90C9479
:1004600080F20D94AF8C0C94E9FB0C9461DE0D943A
:1004700045380C940F5E0C9400EE0C94E6F00C944E
:100480004CA20D947B020C9456BB0C941CAA0C94A9
:10049000CF580C940E9F0C947F9E0C943DBA0C94F4
:1004A000549F0C9414EE0C9414DE0C94E55D0C94A3
:1004B0003AC00C9400DE0D94F0080C9428590C946A
:1004C00012C40C9488F20C94B8A90D94F4AC0C945A
:1004D000A6A10D945E010D9464090C94609E0C9489
:1004E00033C80C9480760C947DD40C9436CF0C9445
:1004F00002DD0C9456D60D94EF370C949BD00C94DF
:10050000AED60C942BEE0C941BE80C9493F40D9443
:10051000CD6A0C94B5D40C94B1D70C943BC60C9412
:100520006F620D9431070C945EBC0D941A840C9488
:100530005DDE0C943C590C940DD40C946EBB0C9461
:100540008EBA0C94E3E80C9418A90D945D010C94F8
:10055000A8FD0D9470770D942A070C9450590C94B3
:100560007AD10D94CE080C942EA80C94C1590C94F9
:10057000E4A20C94A6D60D947A6B0C94E0A90C948A
:10058000A4CE0C942DCA0C948AF00C94B4BB0D9498
:100590009C6A0C94B5C50C9413A90D9469020D9432
:1005A00057010D942B790C94EBE80C9445A20C9414
:1005B000079F0C94C6CF0D94E0370D948E0B0C94CE
:1005C00032ED0C9482EC0C9416AA0C94D4B90D94D0
:1005D0008C850D9475380C940CED0C9411E80C94EA
:1005E00063F40C947FCD0C94A1F00C94EBCC0D949F
:1005F0000A040C9444A30C9428DC0C941AA90C94BF
:10060000AFF80C94A9590D94BF6A0C9470F50C9432
:10061000DEC40C9467A90C94D8D50C944ACC0D94E4
:10062000E20B0C9408C90C94B4A90C9433D20D9429
:10063000440A0C9427BB0C9455D50C9448ED0D94AA
:10064000738C0D94B16A0C9444F50D94A3080C942A
:100650004ED60C9483C80C949D590C94FD580C9460
:10066000ADD40C945ED60C9499F90D94A6840C9498
:10067000C3E80C9410BC0D9465380C94F5B90C9437
:100680003DD50D94AC850C94D5FB0C947ECA0C948E
:10069000F75D0D94E9AB0C94CBF00C9439ED0D940F
:1006A0005C860C94A1760C948EF00C9455D40D9429
:1006B00089010D948B8C0D946D380C9497590D9481
:1006C000D6060C9492F00C948BF50D944D020C947C
:1006D000B4E90D9469380C9433A90D940B380C943B
:1006E00050C40D9467840C948AEC0C94BEC60D948F
:1006F000DA660C943DC40D9417AC0C9491F30D94F0
:100700000D390D94DFAB0C94B8BB0D9459020C94C9
:1007100015D50C943AE80D940A6C0C9449A90C94E4
:1007200081590C94B6C10C941BA90C944DD50D9411
:1007300056860D94DB090C94FCBA0C94D1A20C944F
:1007400038F90D94D3820C9400FC0C9425A90C94D8
:10075000EAA20C94C6590D940B050C94869E0C9439
:10076000D9580C94019F0D94B1060C9436BA0C9490
:10077000CDD90D94F6090C944CBA0C9447A80C945E
:10078000769F0D94A90B0C946DDE0C949DBB0C947C
:10079000CEA90C945DD50C9458A90C94E2C80C9485
:1007A0007F610D9411040C9479F40C9415D40D947C
:1007B000EE6A0C945FEE0D943BC40C94E8CE0C945E
:1007C0003FA20C947ED60C94F9CA0C9435D40C94A8
:1007D000E5BC0C944DD40D941FC40C9401BC0C9436
:1007E000E4A90C94D7C90C942DD50C94AFC30C94E8
:1007F00045D50C94D1C30D94A2020C94D5BA0C9497
:1008000079CF0C9485590C946ED60C9469DE0C94B7
:10081000F9F80D94437F0C943CDE0D94C7060D94BB
:100820001A380C94A6E80D94EA090C94ADA90D941D
:1008300008390D9436380C943ED60C941CA90C94AF
:10084000825F0D9481AC0C9498A10C9465D40C94A7
:10085000FDD40C9472EC0D94EA840C942DE90D9463
:10086000F2AB0C94A5D50D9462490C944EA80C944F
:10087000EB580C94EDD40C945FD30C94DFDA0C9409
:10088000FDBB0C9489BB0C946CCB0C9425D50C94BB
:10089000E3580C94BFA30C940DBA0C94E5D40C94BB
:1008A00069E80C941CDE0C94A2BA0C946FE80C94CA
:1008B00022A10C9476D60C94F1D60C94E8D00D9429
:1008C000A36A0C9405F30D9407AC0C9456EC0C94AD
:1008D000B6D60C94B6F40C947D590D9403050C9483
:1008E000E7BB0D94EA030C948DC30D9461380C940E
:1008F000D19F0D94DA020C9490F20D94D4090C94CB
:100900001CE80C9403ED0C9490E80C9446590C945C
:1009100036D60C940DF30C9491C60C94CCBB0C946D
:1009200019A20C942CA90C94FDD30C94DDA90C9461
:1009300075DE0C942CD10C94095E0C94BB590C946C
:1009400024DE0C9427C70C949BD90C9458D00D949A
:10095000F7AC0C9499760C941DD50D945B010C9416
:100960007FBA0C9414BC0C9471DE0C94BBA40D944F
:10097000B7080C94799E0C94D7F00D9406850C94CE
:1009800042F90C9469BA0D9460830C9479760D94B5
:100990004F010C94E3F00C94B5590D9467850C94B9
:1009A000ECC30C9498F20C9441A80C940DD50C94C3
:1009B000E3BB0C9481FD0C94E4E80C9412ED0D94CF
:1009C0000D850D9430790C94C9D20C94195E0C9459
:1009D00083C50C94CACB0C9423A00C9478F20C948D
:1009E00054F20C94BB580C94F1A20C94689F0C9494
:1009F000845F0C942ED60C946B590C94E0C70D9424
:100A0000942F0C9416EA0C94F5D40C948E9E0C94AE
:100A100010AA0D948A100C942DD40C94B9CD0C947A
:100A20009FCB0C9432590C94145E0C942BBB0C94F9
:100A30005ABB0C9485A30C949AEC0D94C8090C94A1
:100A400011C60C9492EC0C94C9B90C9468D80C940F
:100A5000B7EA0C94B5F00C9491760D94F0AC0C942C
:100A6000AFF50C9462BA0C94F5D30C94CCCC0C94E6
:100A70006AEC0C94BDD40C9407ED0C9434DE0C9409
:100A800086760C941DA90C94D5D40D948BAC0C9443
:100A90002BF30D9440070C94CDD40D94C4370C94D3
:100AA000BAC70C94AF590C9465DE0D944A0C0C94A3
:100AB000D0BC0D94C0060C94ABF80C94C9BA0C943D
:100AC0008C760C948CE80C942CDE0D945C010D94C7
:100AD0004E020D94B5370C942DED0C940BED0C9447
:100AE000DFC50C9459C50C94B9BA0D94928C0D9431
:100AF00055040D9404050D94EB060C9445CD0C940F
:100B0000FF5D0C948B590C9432F30C9496F00C947A
:100B10005DD40D940F7E0D94956A0C94D5F40C94CD
:100B200001F30C9446D60C94EAB90C9427BA0C94B1
:100B300086D60C9468F20C94A3D80C9471590C943A
:100B4000F5CB0C9404C50C943AA90C9405D50C94DF
:100B50008DD40C94D2A90C946C630C9491590C9480
:100B60006BCE0D94FF850D9440860C94C8A90C940F
:100B7000B0A90C94A4CA0C9417ED0C9498ED0C94A5
:100B8000F3580C9425D40C9453A20C94C5580D948E
:100B9000B86A0C941CF30C9496D60C9485BB0C94F8
:100BA00027EB0C9453CA0C94C5D40D9453010C94A8
:100BB00051D70C9445D40C9427A20C94BEA90C9444
:100BC00037C00C94C0580C943FBB0C949ED60C9428
:100BD00066C60C941ECD0C9409F30C9476CC0C9440
:100BE0005BC80C9466D60C94FAA90C940BF90D947E
:100BF000C8820C94589E0C94DDD40D94C56A0C9454
:100C0000A7F80C94A8BC0C945BF30C94DEF80D943C
:100C1000397F0C94E5CD0D94A26C0C94F2BA0C942F
:100C2000A3EA0C9416CE0C947AEC0D9487850C9460
:100C300053BA0D947F240D94870B0C94A5D40C9477
:100C40003DD40C94BA5B0D9465830D949F850C94F0
:100C5000F15D0C9478BA0C947CC70C944CDE0C9427
:100C60007CD50C94605A0D947A010C94FDC60C94BA
:100C7000BCE90C9494A10C9495D40C9477590C94E1
:100C800075D40C9497E80C9444DE0D94E1660C94B2
:100C90008CA90C945F710C9423CC0C94A2A90C9495
:100CA00085D40C94DFB90C94A3C40C94739E0C945B
:100CB00010BB0C9474E80C94E9F80C943DCE0C94A1
:100CC00041F30C949BF00D949B060D9496040D94A7
:100CD000C8830C949DD40C94EC9E0C9411590D94E3
:100CE00084050C9435D50C94E1BA0C94B5E90C94B8
:100CF0006DD40C94F8A80D94A5850D94930B0C94C9
:100D00001DD40D9484240C9405D40D949F070C9449
:100D1000BDBA0C9417E80C949AA30C942CA20C94D2
:100D2000B0A10C9400CA0C94B3F80C949CCE0D9412
:100D3000AA060C9494CE0C9419A90C9407590C94FF
:100D4000BDD10C94B0C80D94C5770C941FCB0C94F6
:100D5000A3590D9473010D94C0010C9470F200001E
:100D60000A0B02090C0D0E08070304010000000025
:100D70000000000000000000000000000000000073
:100D80000000000000000000000012111000000030
:100D90000000000000000000000000000000000053
:100DA0000000000000000000000000000000000043
:100DB0000000000001021020200808102040102030
:100DC000408002010201080402010102040810200F
:100DD000408080402010080402018004020180400D
:100DE0002010080402010804020101020408102076
:100DF0004080010204081020408010080408801080
:100E000020400440801020400480050505050705AA
:100E100008080808020202020A0A08080404040476
:100E200001010101010101010303030303030303A2
:100E3000040707070C0C0C0C0C0C0C0C0202020231
:100E400006060606060606060B0B0B0B0B0B0B0B1A
:100E500007070A0A0A0A0A0A05050504040408081D
:100E6000000020002300260029002C002F00320063
:100E70000001000003010601090100002200250015
:100E800028002B002E003100340002010000050173
:100E900008010B0100002100240027002A002D007A
:100EA0003000330001010000040107010A01027C47
:100EB0003C3E5E2B3D3F2F5B5D3B2C2A225C00DFDE
:100EC000DED4DED3E02E20DFDBD0E22E00B8D7DC8C
:100ED000D5DDD5DDD8D520BFC2C4CD20E2E0E3D139
:100EE000DAD020E7D5E0D5D720DAD0D6D4EBD5209C
:100EF00032353020E7D0E1DED200DDD0DFDEDCD8D5
:100F0000DDD0DDD8D500BDD520D2EBDFDEDBDDD5F1
:100F1000DDDE00B2EBDFDEDBDDD5DDDE00B2E0D50D
:100F2000DCEF00C1E2D0E2D8E1E2D8DAD000C1E2E1
:100F3000D0E2D8E1E2D8DAD000C0D5D3E3DBD8E004
:100F4000DED2DAD020DFDEDBDED6D5DDD8EF00B7AB
:100F5000D0DCD5DDD8E2EC20DDD8E2EC00BDD5D484
:100F6000DEDFE3E1E2D8DCEBD520E1D8DCD2DEDB6A
:100F7000EB20D220DDD0D7D2D0DDD8D820E4D0D914
:100F8000DBD000C3D4D0DBD8E2D520DEE1E2D0E272
:100F9000DAD820E120DFD5E7D0E2DDDED3DE20E1C4
:100FA000E2DEDBD000BFD5E7D0E2EC20DEE1E2D02C
:100FB000DDDED2DBD5DDD000C0D5D3E3DBD8E0DE8B
:100FC000D2DAD020DFDEDBDED6D5DDD8EF00B7D039
:100FD000DCD5DDD8E2EC20DDD8E2EC00C0D5D3E3EF
:100FE000DBD8E0DED2DAD020DFDEDBDED6D5DDD81E
:100FF000EF00B2E1E2D0D2D8E2EC20DDD8E2EC00A2
:10100000C0D5D3E3DBD8E0DED2DAD020DFDEDBDE12
:10101000D6D5DDD8EF00C3D4D0DBD8E2EC20DDD8C4
:10102000E2EC00BDD520E3D4D0DBDEE1EC20DFE054
:10103000DED8D7D2D5E1E2D820E1E7D8E2EBD2D0B2
:10104000DDD8D520D4D0DDDDEBE520DE20E2D5DC17
:10105000DFD5E0D0E2E3E0D500BEE8D8D1DAD000B9
:10106000BED1E9D5D520D2E0D5DCEF00B2EBDADB9A
:1010700000DED6D8D4D0DDD8EF00C0D5D6D8DC007D
:10108000B2DED7D2E0D0E200BFDED4DED6D4D8E2E2
:10109000D52C20DFDED62E00BDD0D6D0E2EC20D479
:1010A000DBEF20D7D0D2D5E0E82E00BDD0D6D0E2FD
:1010B000EC20D4DBEF20D2DED7D2E0D0E2D000BDEE
:1010C000D0D6D0E2EC20D4DBEF20DDD0E7D0DBD0EF
:1010D00000BDD0D6D0E2EC20D4DBEF20DFE0DED4C0
:1010E000DEDBD62E00BDD0D6D0E2EC20D4DBEF2064
:1010F000DFDED4E2D2D5E0D62E0041DFDFD0E0D073
:10110000E2DD2E20E1D1E0DEE100CFD7EBDA00BE58
:10111000E2E0D5D3E3DBD8E02ED7D0D7DEE000CDB8
:10112000DAE0D0DD20E1D5E0D8D80041D2E2DED24D
:10113000EBE0D0D2DD2E00BFDED4D4D5E0D6DAD0BD
:1011400000B2D5E0E1D8EF00BFD5E0D5DC2E20DD40
:10115000D020302E3120DCDC00BFD5E0D5DCD5E15D
:10116000E22E20DDD0203120DCDC00BFD5E0D5DC54
:10117000D5E1E22E20DDD020313020DCDC00BFD5EF
:10118000E0D5DCD5E1E22E20EDDAE1E2E0E3D42E99
:1011900000BFD5E0D5DCD5E1E2D8E2EC20DEE1EC21
:1011A000205A00BFD5E0D5DCD5E1E2D8E2EC20DE64
:1011B000E1EC205900BFD5E0D5DCD5E1E2D8E2EC86
:1011C00020DEE1EC205800BFDED4E2D2D5E0D4D856
:1011D000E2EC00BFDED2E2DEE0D8E2EC20DFDEDFD0
:1011E000EBE2DAE300B8D7DCD5DDD8E2EC20E1DAD7
:1011F000DEE0DEE1E2EC00B7D0DCD5DDD8E2EC20C9
:10120000DDD8E2EC00BEE1E2D0DDDED2D8E2EC00D7
:10121000C3E1E2D0DDDED2D8E2EC20DFD0E3D7E3D9
:1012200000B2DED7DED1DDDED2D8E2EC00B8D7DC0A
:10123000D5DDD8E2EC20E2D5DCDFD5E0D0E22E002F
:10124000BFD5E0D5DCD5E1E2D8E2EC20DEE1D80084
:10125000CDDBD5DAE2E0DED4D22DDBD820B2BABBCA
:1012600000CDDBD5DAE2E0DED4D22DDBD820B2BA75
:10127000BB00BDD0E1E2E0DED9DAD800B4DEDCD0DC
:10128000E8DDEFEF00B2EBE0DED2DD2E20DEE1DDC7
:10129000DED2D0DDD8D500C3E1E2D0DDDED2D8E2A7
:1012A000EC20DDD8E2EC00C3D4D0DBD8E2EC20DDCA
:1012B000D8E2EC00BFD5E7D0E2D0E2EC20E1205349
:1012C0004400C3E1E2D0DD2E20DAD0E0E2DEE7DA4E
:1012D000E320534400B8D4D5E220E3D4D0DBD5DDFD
:1012E000D8D52C20DDD520D2EBDADBEEE7D0D9E261
:1012F000D520DFE0D8DDE2D5E00041DFDFD0E0D06F
:10130000E2DDEBD920E1D1E0DEE100B220E1DBE378
:10131000E7D0D520DFE0DED4DEDBD6D5DDD8EF2088
:10132000D7D0D2DED4E1DAD8D520D7DDD0E7D5DDED
:10133000D8EF20D1E3D4E3E220D2DEE1E1E2D0DD58
:10134000DED2DBD5DDEB00B2DDD8DCD0DDD8D521B7
:1013500000B2DEE1E1E2D0DD2DE2EC20D7DDD0E726
:10136000D5DDD8EF3F0041DFDFD0E0D0E2DDEBD9C3
:1013700020E1D1E0DEE100BDD0E1DBD0D6D42E20EB
:10138000486570686573746F7320322120B5E1DBA6
:10139000D820DCDED6DDDE20DFE0D5D4E1E2D0D21D
:1013A000D8E2EC2C20E2DE20DCDED6DDDE20D82008
:1013B000E1D4D5DBD0E2EC00BFDEDCDDD8E2D52C19
:1013C00020E7E2DE20EDDAE1E2E0E3D4D5E020D868
:1013D00020DEE1DDDED2D0DDD8D520D4DEDBD6DDE7
:1013E000EB20D1EBE2EC20E7D8E1E2EBDCD800BD6A
:1013F000D0E7DDD5DC20DAD0DBD8D1E0DED2DAE30D
:1014000020D4D0E2E7D8DAD020E120E0D5D3E3DB66
:10141000D8E0DED2DAD820D7D0D7DEE0D000B4DEF4
:10142000D1E0DE20DFDED6D0DBDED2D0E2EC212040
:10143000BDD0E7DDD5DC20E120DFDED4D3DEE2DE87
:10144000D2DAD820DFE0D8DDE2D5E0D000C0E3E199
:10145000E1DAD8D900B2EBD1D5E0D8E2D520EFD788
:10146000EBDA00BCD0E1E2D5E000BADEDDE2E0DE9E
:10147000DBEC20E1D5E0D8D800B8D7DCD5DDD8E268
:10148000EC20E1DADEE0DEE1E2EC00B2E1D520DFE3
:10149000E0D0D2D8DBECDDDE3F00B7D0D2D5E0E83B
:1014A000D5DDDE00BDD8E2EC20D7D0D3E0E3D6D046
:1014B000D5E2E1EF00C3E1E2D0DDDED2D8E2EC20FC
:1014C000DDD8E2EC00B2E1E2D0D2ECE2D520DDD80A
:1014D000E2EC20D820DDD0D6DCD8E2D520DADDDE83
:1014E000DFDAE320D4DBEF20D5D520D7D0D3E0E37B
:1014F000D7DAD800B8DDE1E2E0E3DAE6D8D800B226
:10150000EBD1E0DEE100C3D4D0DBD8E2EC20DDD8C3
:10151000E2EC00BDD0D6DCD8E2D520D820DFDED486
:10152000DED6D4D8E2D520D2EBDFE3E1DAD020DD7D
:10153000D8E2D820D4DBEF20D5D520E3D4D0DBD53A
:10154000DDD8EF00B8DDE1E2E0E3DAE6D8D800C2AA
:10155000D5DCDFD5E0D0E2E3E0D000C2D5DCDFD5DA
:10156000E0D0E2E3E0D000BEE1E2D0DDDED2DAD0CE
:1015700000B7D0DCD5DDD8E2EC20DDD8E2EC00BD50
:10158000D0E7D0E2EC20DFE0DEE6D5E1E13F00B7D6
:10159000D0DCD5DDD8E2EC20DDD8E2EC00BEE1E223
:1015A000D0DDDED2D8E2EC00C1DDD8DCD8E2D52037
:1015B000D4D5E2D0DBEC20E120DEE1DDDED2D0DDEF
:1015C000D8EF00BFD5E7D0E2EC20D7D0D2D5E0E805
:1015D000D5DDD000BFD0E3D7D000BDD020DFD0E331
:1015E000D7D500BFD0E3D7D000BFD5E7D0E2EC001D
:1015F000C2D5DCDFD5E0D0E2E3E0D000B2E1D52017
:10160000DFE0D0D2D8DBECDDDE3F00B7D0D2D5E0D2
:10161000E8D5DDDE00BEE2E0D5D3E3DBD8E0DED204
:10162000D0E2EC20D7D0D7DEE000BDD0D6DCD8E2C7
:10163000D520D820DEE2E0D5D3E3DBD8E0E3D9E261
:10164000D520D7DDD0E7D5DDD8D520E2D0DA2C20E3
:10165000E7E2DED1EB20DDD0E1D0D4DAD020DAD061
:10166000E1D0DBD0E1EC20E1E2DEDBD8DAD000B87B
:10167000DDE1E2E0E3DAE6D8D800C0D0E1E7D5E288
:1016800020DFDBDEE1DADEE1E2D820DEE1DDDED202
:10169000D0DDD8EF00BEE2E0D5D3E3DBD8E0DED288
:1016A000D0E2EC20D7D0D7DEE000C0D5D3E3DBD842
:1016B000E0DED2DAD020DFDEDBDED6D5DDD8EF000B
:1016C000BEE2E0D5D3E3DBD8E0DED2D0E2EC20D737
:1016D000D0D7DEE000C2D5DCDFD5E0D0E2E3E0D059
:1016E00000BDD0E7D0E2EC20DFE0DEE6D5E1E13F6F
:1016F00000BEE2E0D5D3E3DBD8E0DED2D0E2EC20DE
:10170000D7D0D7DEE0007777772E62712E636F6DCA
:1017100020737570706F72742E33642E7275406210
:10172000712E636F6D00BFDED4D4D5E0D6DAD00061
:10173000B2D5E0E1D8EF00C2D5DCDFD5E0D0E2E3FE
:10174000E0D000C2D5DCDFD5E0D0E2E3E0D000CDD0
:10175000DAE1E2E0E3D4D5E0202F203120DCDC0028
:10176000CDDAE1E2E0E3D4D5E0202F20302C3120A7
:10177000DCDC00BEE1EC205A202F20313020DCDC04
:1017800000BEE1EC205A202F203120DCDC00BEE13D
:10179000EC205A202F20302C3120DCDC00BEE1EC84
:1017A0002059202F20313020DCDC00BEE1EC205914
:1017B000202F203120DCDC00BEE1EC2059202F203E
:1017C000302C3120DCDC00BEE1EC2058202F203111
:1017D0003020DCDC00BEE1EC2058202F203120DC62
:1017E000DC00BEE1EC2058202F20302C3120DCDC46
:1017F00000B2EBD1D5E0D8E2D520DEDFE6D8EE00AE
:10180000CDDAE1E2E0E3D42E202F20BFD5E0D5DC15
:101810002E20DCDC00B2EBD1D5E0D8E2D520DEDF33
:10182000E6D8EE00BEE1EC205A202F20BFD5E0D54F
:10183000DCD5E1E22E20DCDC00B2EBD1D5E0D8E251
:10184000D520DEDFE6D8EE00BEE1EC2059202F20C7
:10185000BFD5E0D5DCD5E1E22E20DCDC00B2EBD157
:10186000D5E0D8E2D520DEDFE6D8EE00BEE1EC2000
:1018700058202F20BFD5E0D5DCD5E1E22E20DCDCDE
:1018800000C2D5DCDFD5E0D0E2E3E0D000C0D0D7A5
:10189000DED3E0D5E2EC20EDDAE1E2E0E3D4D5E01E
:1018A0003F00CDDAE1E2E0E3D42E202F20DFD5E0C7
:1018B000D5DC2E20DCDC00B2EBD1D5E0D8E2D5209F
:1018C000DEDFE6D8EE00BFD5E0D5DCD5E1E2D8E238
:1018D000EC20DEE1D800BFDED7D8E6D8EF20DDD59A
:1018E00020DEDFE0D5D4D5DBD5DDD02C20D2D5E08D
:1018F000DDD8E2D5E1EC20D220DDD0E7D0DBDE2060
:10190000D4DBEF20DFE0DED4DEDBD6D5DDD8EF00A0
:10191000BFD5E0D5D4D2D8DDE3E2EC20DEE1D800BB
:10192000BDD0E1E2E0DED9DAD800C0D5D3E3DBD820
:10193000E0DED2DAD020DFDEDBDED6D5DDD8EF0088
:10194000B4DEDCD0E8DDEFEF00C2D5DCDFD5E0D0DF
:10195000E2E3E0D000BDD0E7D0E2EC20DFE0DEE65D
:10196000D5E1E13F00B4DEDCD0E8DDEFEF00B2E12D
:10197000D520DFE0D0D2D8DBECDDDE3F00B7D0D21F
:10198000D5E0E8D5DDDE00BDD0E1E2E0D0D8D2D0B0
:10199000E2EC20E2E0D5E2ECEE20E2DEE7DAE32062
:1019A000D4DE20DFDEEFD2DBD5DDD8EF20DAE0D0E9
:1019B000E1DDDED3DE20E6D2D5E2D000B2EBE0DE20
:1019C000D2DDEFE2EC20DEE1DDDED2D0DDD8D500E5
:1019D000BDD0E1E2E0D0D8D2D0E2EC20D2E2DEE02D
:1019E000E3EE20E2DEE7DAE320D4DE20DFDEEFD232
:1019F000DBD5DDD8EF20DAE0D0E1DDDED3DE20E696
:101A0000D2D5E2D000B2EBE0DED2DDEFE2EC20DEB8
:101A1000E1DDDED2D0DDD8D500BDD0E1E2E0D0D826
:101A2000D2D0E2EC20DFD5E0D2E3EE20E2DEE7DA4E
:101A3000E320D4DE20DFDEEFD2DBD5DDD8EF20DA05
:101A4000E0D0E1DDDED3DE20E6D2D5E2D000B2EB9D
:101A5000E0DED2DDEFE2EC20DEE1DDDED2D0DDD86B
:101A6000D500C0D5D3E3DBD8E0DED2DAD020DFDE8C
:101A7000DBDED6D5DDD8EF00B4DEDCD0E8DDEFEF7D
:101A800000C2D5DCDFD5E0D0E2E3E0D000BDD0E796
:101A9000D0E2EC20DFE0DEE6D5E1E13F00B2EBE0B2
:101AA000DED2DDEFE2EC20DEE1DDDED2D0DDD8D526
:101AB00000B2E1D520DFE0D0D2D8DBECDDDE3F00A4
:101AC000B7D0D2D5E0E8D5DDDE00BDD8E2EC20D736
:101AD000D0D3E0E3D6D0D5E2E1EF00C3E1E2D0DD40
:101AE000DED2D8E2EC20DDD8E2EC00B2E1E2D0D2E6
:101AF000ECE2D520DDD8E2EC20D820DDD0D6DCD851
:101B0000E2D520DADDDEDFDAE320D4DBEF20D5D545
:101B100020D7D0D3E0E3D7DAD800B8DDE1E2E0E3C4
:101B2000DAE6D8D800C2D5DCDFD5E0D0E2E3E0D0F9
:101B300000C2D5DCDFD5E0D0E2E3E0D000C0D5D3F1
:101B4000E3DBD8E0DED2DAD020DFDEDBDED6D5DDA7
:101B5000D8EF00B2E1E2D0D2D8E2EC20DDD8E2EC5E
:101B600000BDD0E7D0E2EC20DFE0DEE6D5E1E13FEA
:101B700000C3E1E2D0DDDED2D8E2EC20DDD8E2EC39
:101B800000B2E1D520DFE0D0D2D8DBECDDDE3F00D3
:101B9000B7D0D2D5E0E8D5DDDE00B2EBD1E0DEE1B2
:101BA00000C3D4D0DBD8E2EC20DDD8E2EC00BDD01D
:101BB000D6DCD8E2D520D820DFDED4DED6D4D8E2F9
:101BC000D520D2EBDFE3E1DAD020DDD8E2D820D493
:101BD000DBEF20D5D520E3D4D0DBD5DDD8EF00B8BE
:101BE000DDE1E2E0E3DAE6D8D800C2D5DCDFD5E01B
:101BF000D0E2E3E0D000C2D5DCDFD5E0D0E2E3E024
:101C0000D000C0D5D3E3DBD8E0DED2DAD020DFDEEF
:101C1000DBDED6D5DDD8EF00C3D4D0DBD8E2EC20B4
:101C2000DDD8E2EC00BDD0E7D0E2EC20DFE0DEE67C
:101C3000D5E1E13F00C3D4D0DBD8E2EC20DDD8E22F
:101C4000EC00BFE0D5D4EBD4E3E9D0EF20DFD0DF68
:101C5000DAD000B2DED7D2E0D0E220D220DCD5DD6F
:101C6000EE00BFD5E7D0E2D0E2EC20D0E0E5D8D25C
:101C70003F00BFD5E7D0E2D0E2EC20E120534400A2
:101C8000B7D0D1DBDEDAD8E0DED22E00C3D4D5E087
:101C9000D6D8D2D0E2EC20D4DBEF20E0D0D7D1DB15
:101CA000DEDA2E20DFE0D8DDE2D5E0D00041D2D070
:101CB000E0D8D9DD2E20DEE1E2D0DD2E20D2DADB45
:101CC0002E00486561746564206265640043616D3F
:101CD00062696120696C207475626F2050544645BA
:101CE000206F676E6920323530206F726500507248
:101CF0006F6D656D6F726961004E6F6E20726975F0
:101D0000736369746900436F6D706C6574617469A5
:101D10000054656D706F0053746174697374696306
:101D2000686500537461746973746963686500520F
:101D300065676F6C617A696F6E6520706F73697A21
:101D4000696F6E6520696E20636F72736F00436107
:101D50006D62696172652066696C616D656E746F34
:101D6000004E6F6D6520636F6E20636172617474E5
:101D7000657269206E6F6E2076616C6964690052CD
:101D8000697469726172652069207265736964752E
:101D9000692064616C207069616E6F005374616DBD
:101DA000706120617272657374617461005265675D
:101DB0006F6C617A2E20706F73697A696F6E65003F
:101DC00043616D62696172652066696C616D656E03
:101DD000746F005265676F6C617A2E20706F736943
:101DE0007A696F6E6500496E736572697265206607
:101DF000696C616D656E746F005265676F6C617AB6
:101E00002E20706F73697A696F6E6500526974690C
:101E1000726172652066696C616D656E746F0045F4
:101E200072726F7265206469206C6574747572617A
:101E30002064656C6C612074656D70657261747589
:101E40007261004572726F72650054656D706F202B
:101E5000746F74616C65004F666600696E617474BE
:101E6000697661004D6F64616C6974E000546F7253
:101E70006E6100417474656E646572652C207072C9
:101E800065676F005072656D6920706572207465BA
:101E9000726D696E617265005072656D6920706562
:101EA0007220746F726E617265005072656D692088
:101EB00070657220696E697A696165005072656D3E
:101EC000692070657220636F6E74696E75617265EA
:101ED000005072656D692070657220636F6E666573
:101EE000726D617265004861726420526573657439
:101EF000004C696E677561005265676F6C61726551
:101F0000206F66667365740053636865726D6F2039
:101F10007365726965004175746F6C6976656C6C88
:101F2000616D2E00537570706F72746F005665721C
:101F300073696F6E650053706F73746172652030E2
:101F40002C316D6D0053706F737461726520316D4B
:101F50006D0053706F73746172652031306D6D0068
:101F600053706F7374617265206573747275736FEB
:101F700072650053706F737461726520617373656D
:101F8000205A0053706F73746172652061737365BA
:101F900020590053706F73746172652061737365AB
:101FA000205800436F6E6665726D617265005269FC
:101FB00070726F766172650043616D62696172650E
:101FC0002076656C6F636974E00043616D626961DE
:101FD00072652066696C616D656E746F004665722E
:101FE0006D617265004D65747465726520696E205F
:101FF00070617573610052696174746163636172C9
:10200000650043616D62696172652074656D70651C
:102010007261742E0053706F737461726520617306
:102020007369004D6F746F7269204F4646004D6FA3
:10203000746F7269204F4E005265676F6C617A69E8
:102040006F6E6900486F6D65004C6976656C6C61F8
:102050007265206261736500496E736572697265AD
:102060002066696C616D656E746F00526974697287
:102070006172652066696C616D656E746F00537482
:10208000616D7061726520646120534400496E7314
:102090006572697363692073636865646120534482
:1020A0000043616E63656C6C616E646F2C206E6FB3
:1020B0006E20737065676E657265206C6120737445
:1020C000616D70616E746500486172642052657361
:1020D000657400536520736920636F6E74696E7553
:1020E000612C2076657272616E6E6F2072697072FB
:1020F000697374696E61746920692076616C6F72AE
:10210000692064692066616262726963610041747A
:1021100074656E7A696F6E652100526970726973B9
:1021200074696E6172652076616C6F72693F0048F8
:1021300061726420526573657400476F64697469E5
:10214000206C612074756120486570686573746FD8
:1021500073203221205365207269657363692061A1
:1021600020696D6D6167696E61726C6F2C2070758E
:102170006F69206661726C6F005269636F7264618F
:10218000206469206D616E74656E657265206C27D0
:102190006573747275736F72652065206C6120625F
:1021A000617365206C696265726920646120726583
:1021B000736964756900436F6D696E6369616D6F02
:1021C0002063616C696272616E646F20696C207358
:1021D000656E736F72652065207265676F6C616EE6
:1021E000646F206C276F66667365740042656E7657
:1021F000656E7574692120436F6D696E6369616DE9
:102200006F206120707265706172617265206C610F
:10221000207374616D70616E7465004974616C69DE
:10222000616E6F0053656C657A696F6E61206C69D1
:102230006E6775610057697A61726400436F6E74EE
:10224000726F6C6C6F2073657269650043616D62BB
:10225000696172652076656C6F636974E00054751E
:1022600074746F2062656E653F005465726D696EAF
:1022700061746F004361726963616D656E746F2094
:1022800064656C2066696C616D656E746F20696E43
:1022900020636F72736F00496E736572697363694F
:1022A0002066696C616D656E746F00496E7365724E
:1022B0006973636920696C2066696C616D656E7411
:1022C0006F2065207072656D6920696C2070756C77
:1022D00073616E74652070657220636172696361F9
:1022E000726C6F0049737472757A696F6E6900451C
:1022F0007370756C73696F6E650052697469726191
:1023000072652066696C616D656E746F00507265F0
:102310006D69206520617474656E6469206C276541
:102320007370756C73696F6E652064656C20666987
:102330006C616D656E746F2070657220726974696E
:102340007261726C6F0049737472757A696F6E692D
:102350000054656D70657261747572610054656DCD
:1023600070657261747572610050617573610043CC
:10237000616D62696172652066696C616D656E741C
:102380006F00417676696172652070726F63657364
:10239000736F3F0043616D62696172652066696CAD
:1023A000616D656E746F004665726D617265005295
:1023B000697469726120696C2070657A7A6F206433
:1023C000616C6C612062617365005374616D706152
:1023D000207465726D696E6174610050617573611E
:1023E00000496E2070617573610050617573610002
:1023F0005374616D70610054656D706572617475C0
:10240000726100547574746F2062656E653F00548C
:1024100065726D696E61746F005265676F6C617291
:1024200065206F6666736574005072656D6920651E
:10243000206D6F64696669636120696C2076616CE8
:102440006F72652066696E6368E9206C2775676541
:102450006C6C6F206E6F6E20746F636361206C61B3
:1024600020626173650049737472757A696F6E6971
:102470000043616C636F6C6F2064656C20706961F0
:102480006E6F206469206261736520696E20636FDE
:1024900072736F005265676F6C617265206F66665C
:1024A000736574005265676F6C617A696F6E652041
:1024B000706F73697A696F6E6520696E20636F72E1
:1024C000736F005265676F6C617265206F6666732B
:1024D00065740054656D7065726174757261004158
:1024E0007676696172652070726F636573736F3F92
:1024F000005265676F6C617265206F666673657404
:10250000007777772E62712E636F6D207375707010
:102510006F72742E33642E69744062712E636F6D16
:1025200000537570706F72746F0056657273696FC7
:102530006E650054656D70657261747572610054EA
:10254000656D706572617475726100457374727542
:10255000736F7265202F2031206D6D00457374728A
:1025600075736F7265202F20302C31206D6D004106
:10257000737365205A202F203130206D6D00417318
:102580007365205A202F2031206D6D0041737365D3
:10259000205A202F20302C31206D6D00417373653F
:1025A0002059202F203130206D6D0041737365203C
:1025B00059202F2031206D6D004173736520592003
:1025C0002F20302C31206D6D004173736520582011
:1025D0002F203130206D6D00417373652058202FFE
:1025E0002031206D6D00417373652058202F2030FD
:1025F0002C31206D6D0053656C657A696F6E6120BA
:102600006F707A696F6E65004573747275732E2FE3
:1026100053706F7374617265206D6D0053656C65E6
:102620007A696F6E61206F707A696F6E65004173B1
:102630007365205A202F2053706F73746172652068
:102640006D6D0053656C657A696F6E61206F707A8D
:10265000696F6E6500417373652059202F20537098
:102660006F7374617265206D6D0053656C657A6976
:102670006F6E61206F707A696F6E6500417373656C
:102680002058202F2053706F7374617265206D6D18
:102690000054656D70657261747572610052697382
:1026A00063616C64617265206573747275732E3F2B
:1026B000004573747275732E2F53706F737461724B
:1026C00065206D6D0053656C657A696F6E61206F72
:1026D000707A696F6E650053706F737461206173F7
:1026E000736900506F73697A696F6E652073636FE9
:1026F0006E6F7363697574612C20746F726E6120E4
:102700006120686F6D652070657220636F6E7469FB
:102710006E756172650053706F73746172652061CC
:10272000737369005265676F6C617A696F6E6900D7
:102730005265676F6C617A696F6E6520706F73693F
:102740007A696F6E6520696E20636F72736F0048DF
:102750006F6D650054656D706572617475726100AE
:10276000417676696172652070726F636573736F0D
:102770003F00486F6D6500547574746F2062656E1C
:10278000653F005465726D696E61746F00526567D4
:102790006F6C6120696C207465727A6F2070756E41
:1027A000746F2066696E6F206120636865206E6FAC
:1027B0006E20736920616363656E6465206C6120BF
:1027C0006C75636520726F737361004C6976656C1C
:1027D0006C6172652062617365005265676F6C6140
:1027E00020696C207365636F6E646F2070756E7402
:1027F0006F2066696E6F206120636865206E6F6E62
:1028000020736920616363656E6465206C61206C70
:1028100075636520726F737361004C6976656C6CCB
:102820006172652062617365005265676F6C61203B
:10283000696C207072696D6F2070756E746F2066A0
:10284000696E6F206120636865206E6F6E2073690A
:1028500020616363656E6465206C61206C756365DF
:1028600020726F737361004C6976656C6C61726580
:102870002062617365005265676F6C617A696F6E83
:102880006520706F73697A696F6E6520696E206369
:102890006F72736F00486F6D650054656D7065727F
:1028A000617475726100417676696172652070723B
:1028B0006F636573736F3F004C6976656C6C617212
:1028C00065206261736500547574746F2062656E73
:1028D000653F005465726D696E61746F004361728B
:1028E0006963616D656E746F2064656C2066696CE8
:1028F000616D656E746F20696E20636F72736F0017
:10290000496E7365726972652066696C616D656E8A
:10291000746F00496E7365726973636920696C2016
:1029200066696C616D656E746F2065207072656D8F
:102930006920696C2070756C73616E7465207065B8
:102940007220636172696361726C6F0049737472A3
:10295000757A696F6E690054656D70657261747522
:1029600072610054656D70657261747572610052B8
:1029700065676F6C617A2E20706F73697A696F6E0C
:102980006500496E7365726972652066696C616D78
:10299000656E746F00417676696172652070726F42
:1029A000636573736F3F00496E736572697265206A
:1029B00066696C616D656E746F00547574746F2018
:1029C00062656E653F005465726D696E61746F007B
:1029D000457370756C73696F6E65005269746972C6
:1029E0006172652066696C616D656E746F0050720E
:1029F000656D69206520617474656E6469206C275B
:102A0000657370756C73696F6E652064656C2066A4
:102A1000696C616D656E746F207065722072697487
:102A2000697261726C6F0049737472757A696F6E46
:102A3000690054656D7065726174757261005465EA
:102A40006D7065726174757261005265676F6C615B
:102A50007A2E20706F73697A696F6E65005269749F
:102A600069726172652066696C616D656E746F0074
:102A7000417676696172652070726F636573736FFA
:102A80003F0052697469726172652066696C616D9C
:102A9000656E746F0043617274656C6C6120707256
:102AA00065636564656E746500546F726E6172650E
:102AB00020616C206D656E75005374616D7061727C
:102AC000652066696C653F005374616D7061726565
:102AD00020646120534400426C6F636361746F0033
:102AE0004D616E7469656E69207072656D75746F85
:102AF000207065722073626C6F6363617265206C15
:102B000061207374616D70616E7465004172722E24
:102B100020456D6572672E2041747469766F00439D
:102B2000616D61207175656E7465005375627374B3
:102B300069747561206F207475626F20505446452A
:102B4000206120636164612032353020686F7261DA
:102B500073004C656D62726574650046616C6861F6
:102B600064617300436F6E636C75ED646173005450
:102B7000656D706F004573746174ED7374696361A2
:102B800073004573746174ED73746963617300411C
:102B900020616A757374617220706F7369E7E36F07
:102BA000004D756461722066696C616D656E746F4D
:102BB0000043617261746572657320696E76E16CC1
:102BC00069646F73206E6F206E6F6D65005265745F
:102BD000697265206F7320726573ED64756F732081
:102BE0006461206261736500496D7072657373E39F
:102BF0006F20656D207061757361004120616A7599
:102C00007374617220706F7369E7E36F004D7564D0
:102C100061722066696C616D656E746F0041206140
:102C20006A757374617220706F7369E7E36F0049AE
:102C30006E73657269722066696C616D656E746F22
:102C4000004120616A757374617220706F7369E767
:102C5000E36F00526574697261722066696C616D20
:102C6000656E746F0046616C6861206E61206C65F2
:102C700069747572612064612074656D706572613C
:102C800074757261004572726F0054656D706F20CB
:102C9000746F74616C004465736C6967617200697C
:102CA0006E617469766F004D6F646F00566F6C745F
:102CB000617200506F72206661766F722C206167BE
:102CC0007561726465005072656D69722070617221
:102CD00061207465726D696E6172005072656D6914
:102CE00072207061726120766F6C74617200507234
:102CF000656D6972207061726120636F6D65E76157
:102D000072005072656D697220702F20636F6E744F
:102D1000696E756172005072656D697220702F2046
:102D2000636F6E6669726D617200486172642052F1
:102D300065736574004964696F6D6100416A7573FC
:102D4000746172206F666673657400456372E32078
:102D500073E9726965004175746F6E6976656C61BF
:102D60006D656E746F005375706F72746500566593
:102D70007273E36F004465736C6F63617220302C73
:102D800031206D6D004465736C6F6361722031207A
:102D90006D6D004465736C6F636172203130206D1E
:102DA0006D004465736C6F63617220657874727531
:102DB000736F7261004465736C6F63617220656943
:102DC000786F205A004465736C6F63617220656987
:102DD000786F2059004465736C6F63617220656978
:102DE000786F205800436F6E6669726D617200548F
:102DF000656E746172206465206E6F766F004D752C
:102E00006461722076656C6F636964616465004D0E
:102E1000756461722066696C616D656E746F0050D7
:102E20006172617200436F6C6F63617220656D2027
:102E30007061757361005265746F6D6172004D75DC
:102E40006461722074656D70657261747572610081
:102E50004465736C6F636172206569786F73004DB0
:102E60006F746F726573204F4646004D6F746F72BA
:102E70006573204F4E00446566696E69E7F56573BA
:102E800000496EED63696F004E6976656C61722072
:102E90006261736500496E73657269722066696C60
:102EA000616D656E746F005265746972617220663F
:102EB000696C616D656E746F00496D7072696D69E2
:102EC0007220646F20534400496E736572697220EA
:102ED00063617274E36F2053440041206170616745
:102EE00061722C206EE36F206465736C6967756591
:102EF000206120696D707265736F72610048617244
:102F00006420526573657400536520636F6E746945
:102F10006E75617220736572E36F20726573706FF6
:102F200073746F73206F732076616C6F726573209A
:102F300064652066E16272696361004174656EE7F1
:102F4000E36F21005265706F722076616C6F72655D
:102F5000733F004861726420526573657400446574
:102F600073667275746520646120737561204865AD
:102F700070686573746F7320322120536520636F0E
:102F80006E73656775697220696D6167696E6172DC
:102F90002C20706F64652066617AEA2D6C6F004C9E
:102FA000656D6272652D7365206465206D616E7458
:102FB00065722061206578747275736F7261206527
:102FC000206120626173652073656D20726573ED09
:102FD00064756F7300436F6D6563656D6F7320700B
:102FE0006F722063616C6962726172206F20736519
:102FF0006E736F7220616A757374616E646F206F97
:10300000206F66667365740042656D2D76696E6427
:103010006F212056616D6F7320636F6D65E761727C
:103020002061207072657061726172206120696D2B
:1030300070726573736F726100506F72747567752B
:10304000EA730053656C6563696F6E652069646936
:103050006F6D610057697A61726400436F6E7472BC
:103060006F6C6F2073E9726965004D756461722041
:1030700076656C6F636964616465005475646F2084
:10308000636F727265746F3F00436F6E636C75EDB2
:10309000646F0041206361727265676172206F2006
:1030A00066696C616D656E746F00496E73657269F7
:1030B000722066696C616D656E746F00496E747222
:1030C0006F64757A61206F2066696C616D656E74DE
:1030D0006F2065207072696D61206F20626F74E3EC
:1030E0006F207061726120636172726567E12D6C9F
:1030F0006F00496E73747275E7F565730041206562
:103100007870756C736172005265746972617220B7
:1031100066696C616D656E746F004361727265679C
:1031200075652065206167756172646520717565DC
:10313000206F2066696C616D656E746F2073656ABF
:103140006120657870756C7361646F207061726165
:10315000207265746972E12D6C6F00496E73747230
:1031600075E7F565730054656D706572617475720D
:10317000610054656D706572617475726100412003
:10318000706175736172004D756461722066696C5F
:10319000616D656E746F00496E696369617220705C
:1031A000726F636573736F3F004D75646172206663
:1031B000696C616D656E746F00506172617200526E
:1031C00065746972652061207065E7612064612023
:1031D0006261736500496D7072657373E36F20639C
:1031E0006F6E636C75ED646100456D207061757381
:1031F0006100456D20706175736100506175736188
:10320000004120696D7072696D69720054656D705E
:1032100065726174757261005475646F20636F72BA
:103220007265746F3F00436F6E636C75ED646F0081
:10323000416A7573746172206F66667365740050BD
:1032400072696D61206520616A75737465206F20F5
:1032500076616C6F72206174E9206120626F717514
:10326000696C686120746F636172206120626173B0
:103270006500496E73747275E7F5657300412063EC
:10328000616C63756C6172206F20706C616E6F2071
:103290006461206261736500416A757374617220B4
:1032A0006F6666736574004120616A75737461723C
:1032B00020706F7369E7E36F00416A757374617220
:1032C000206F66667365740054656D706572617415
:1032D00075726100496E69636961722070726F6313
:1032E0006573736F3F00416A7573746172206F6616
:1032F00066736574007777772E62712E636F6D2029
:10330000737570706F72742E33642E7074406271B6
:103310002E636F6D005375706F7274650056657221
:1033200073E36F0054656D7065726174757261004E
:1033300054656D7065726174757261004578747260
:1033400075736F7261202F2031206D6D0045787488
:103350007275736F7261202F20302C31206D6D00DB
:103360004569786F205A202F203130206D6D00453F
:1033700069786F205A202F2031206D6D00456978C3
:103380006F205A202F20302C31206D6D0045697838
:103390006F2059202F203130206D6D004569786FE6
:1033A0002059202F2031206D6D004569786F2059FC
:1033B000202F20302C31206D6D004569786F20580A
:1033C000202F203130206D6D004569786F20582006
:1033D0002F2031206D6D004569786F2058202F20F7
:1033E000302C31206D6D0053656C6563696F6E65BF
:1033F000206F70E7E36F004578747275732E202F8D
:10340000204465736C6F632E206D6D0053656C6591
:1034100063696F6E65206F70E7E36F004569786FD1
:10342000205A202F204465736C6F636172206D6D8C
:103430000053656C6563696F6E65206F70E7E36FBD
:10344000004569786F2059202F204465736C6F63A5
:103450006172206D6D0053656C6563696F6E6520E8
:103460006F70E7E36F004569786F2058202F204484
:1034700065736C6F636172206D6D0054656D70656E
:103480007261747572610041717565636572206562
:1034900078747275736F72613F00457874727573DA
:1034A0002E202F204465736C6F632E206D6D0053AA
:1034B000656C6563696F6E65206F70E7E36F00444C
:1034C00065736C6F636172206569786F73004E6F0E
:1034D00020736520636F6E68656365206120706F7F
:1034E0007369E7E36F2C207265616C697A65206807
:1034F0006F6D65207061726120636F6E74696E75A7
:103500006172004465736C6F636172206569786FE6
:103510007300446566696E69E7F565730041206173
:103520006A757374617220706F7369E7E36F0049A5
:103530006EED63696F0054656D70657261747572CC
:103540006100496E69636961722070726F636573AF
:10355000736F3F00496EED63696F005475646F20AF
:10356000636F727265746F3F00436F6E636C75EDCD
:10357000646F00416A75737465206F2074657263AF
:103580006569726F20706F6E746F206174E92073CB
:1035900065206163656E6465722061206C757A20B8
:1035A0007665726D656C6861004E6976656C6172F6
:1035B000206261736500416A75737465206F2073C2
:1035C0006567756E646F20706F6E746F206174E94B
:1035D000207365206163656E6465722061206C757F
:1035E0007A207665726D656C6861004E6976656CEF
:1035F0006172206261736500416A75737465206F42
:10360000207072696D6569726F20706F6E746F20C3
:103610006174E9207365206163656E646572206181
:10362000206C757A207665726D656C6861004E69F4
:1036300076656C61722062617365004120616A7514
:103640007374617220706F7369E7E36F00496EED08
:1036500063696F0054656D706572617475726100A5
:10366000496E69636961722070726F636573736F0D
:103670003F004E6976656C6172206261736500542B
:1036800075646F20636F727265746F3F00436F6E75
:10369000636C75ED646F00412063617272656761F0
:1036A00072206F2066696C616D656E746F00496E83
:1036B00073657269722066696C616D656E746F0006
:1036C000496E74726F64757A61206F2066696C61EF
:1036D0006D656E746F2065207072696D61206F205A
:1036E000626F74E36F207061726120636172726552
:1036F00067E12D6C6F00496E73747275E7F5657341
:103700000054656D70657261747572610054656D09
:103710007065726174757261004120616A757374BD
:10372000617220706F7369E7E36F00496E736572B1
:1037300069722066696C616D656E746F00496E69AF
:10374000636961722070726F636573736F3F0049C4
:103750006E73657269722066696C616D656E746FF7
:10376000005475646F20636F727265746F3F00431D
:103770006F6E636C75ED646F004120657870756CD9
:1037800073617200526574697261722066696C615E
:103790006D656E746F004361727265677565206553
:1037A000206167756172646520717565206F2066A0
:1037B000696C616D656E746F2073656A61206578F0
:1037C00070756C7361646F207061726120726574D2
:1037D0006972E12D6C6F00496E73747275E7F5655F
:1037E000730054656D706572617475726100546523
:1037F0006D7065726174757261004120616A7573E4
:1038000074617220706F7369E7E36F0052657469C9
:103810007261722066696C616D656E746F00496ECD
:1038200069636961722070726F636573736F3F00C3
:10383000526574697261722066696C616D656E743F
:103840006F00506173746120616E746572696F728C
:1038500000566F6C74617220616F206D656E75002B
:10386000496D7072696D6972206669636865697215
:103870006F3F00496D7072696D697220646F2053EB
:103880004400426C6F71756561646F004D616E74C8
:1038900065722063617272656761646F2070617226
:1038A0006120646573626C6F71756561722061205F
:1038B000696D70726573736F7261005061726167D8
:1038C000656D20456D6572672E20417469766100D3
:1038D000506C61746561752063686175660043684A
:1038E000616E676572206C65207475626520656E17
:1038F000205054464520746F75746573206C657351
:103900002032353020680052E966E972656E7469CC
:10391000656C00C963686563730052E97573736908
:103920007465730054656D7073206427696D7072DF
:103930002E005374617469737469717565730053F3
:1039400074617469737469717565730052E9676CA9
:1039500061676520706F736974696F6E0043686199
:103960006E676572206C652066696C616D656E744A
:10397000004C65206E6F6D20647520666963686910
:10398000657220636F6E7469656E74206465732060
:10399000636172616374E8726573206E6F6E207686
:1039A000616C69646573005265746972657A206C34
:1039B00065732072E9736964757320647520706C97
:1039C000617465617500496D7072657373696F6EBE
:1039D00020617272EA74E9650052E9676C6167659B
:1039E00020706F736974696F6E004368616E6765FC
:1039F00072206C652066696C616D656E740052E9B9
:103A0000676C61676520706F736974696F6E0049D8
:103A10006E73E9726572206C652066696C616D6514
:103A20006E740052E9676C61676520706F7369742A
:103A3000696F6E0052657469726572206C652066EC
:103A4000696C616D656E7400457272657572206C8B
:103A50006F7273206465206C61206C65637475728D
:103A600065206465206C612074656D70E972617415
:103A70007572650045727265757200447572E9650C
:103A800000C97465696E647265007665696C6C6501
:103A9000004D6F6465005265746F757200506174FB
:103AA00069656E74657A20737670004170707579FF
:103AB0002E207072207465726D696E65720041709F
:103AC0007075792E20707220726576656E6972004D
:103AD00041707075792E20707220636F6D6D656E08
:103AE0006365720041707075792E20707220636F6B
:103AF0006E74696E7565720041707075792E2070F4
:103B00007220636F6E6669726D65720048617264DF
:103B1000205265736574004C616E6775650052E9EB
:103B2000676C6572204F666673657400C963726165
:103B30006E2073E9726965004175746F2D6E697648
:103B4000656C6C656D2E0041696465005665727325
:103B5000696F6E0044E9706C6163657220302C31CE
:103B6000206D6D0044E9706C616365722031206DD9
:103B70006D0044E9706C61636572203130206D6DB9
:103B80000044E9706C6163657220657874727564D5
:103B90002E0044E9706C6163657220617865205A7B
:103BA0000044E9706C61636572206178652059009A
:103BB00044E9706C61636572206178652058004348
:103BC0006F6E6669726D65720052E9657373617933
:103BD0006572004D6F646966696572207669746507
:103BE000737365004368616E6765722066696C6116
:103BF0006D656E7400417272EA746572005375737C
:103C000070656E6472650052657072656E6472658F
:103C1000004D6F6469666965722074656D702E0071
:103C200044E9706C616365722061786573004D6F63
:103C300074657572732064E9736163746976E973FE
:103C4000004D6F7465757273206163746976E973F2
:103C50000052E9676C61676573004163637565696C
:103C60006C004E6976656C657220706C617465617C
:103C70007500496E73E97265722066696C616D65E5
:103C80006E7400526574697265722066696C616D4C
:103C9000656E7400496D70722E206465707569736D
:103CA00020534400496E73E972657A20636172742F
:103CB00065205344005375707072657373696F6E3D
:103CC00020656E20636F7572732C206E65207061A5
:103CD0007320E97465696E647265206C27696D7084
:103CE00072696D616E74650048617264205265731B
:103CF000657400536920766F757320636F6E746905
:103D00006E75657A2C206C65732076616C657572B2
:103D1000732064277573696E65207365726F6E74A6
:103D20002072657374617572E965732E0041747455
:103D3000656E74696F6E210052657374617572658A
:103D4000722076616C657572733F00486172642001
:103D5000526573657400566F757320EA746573203D
:103D60007072EA7420E0207574696C697365722062
:103D7000766F74726520486570686573746F732020
:103D8000322E20496D7072696D657A20746F75747A
:103D9000657320766F73206964E9657321004E278F
:103DA0006F75626C69657A20706173206465206E3E
:103DB0006574746F796572206C65732072E973693C
:103DC000647573206465206C27657874727564650A
:103DD00075736520657420647520706C617465610D
:103DE0007500436F6D6D656E63657A20706172203A
:103DF00063616C6962726572206C652063617074C6
:103E000065757220656E2072E9676C616E74206C56
:103E1000276F6666736574004269656E76656E75B8
:103E20006521205072E97061726F6E7320656E7348
:103E3000656D626C65206C27696D7072696D616E6D
:103E40007465004672616EE76169730053E96C65E1
:103E50006374696F6E6E657A206C616E677565005C
:103E6000417373697374616E7400436F6E7472F49E
:103E70006C652073E9726965004D6F6469666965F8
:103E800072206C61207669746573736500546F7578
:103E9000742065737420656E206F726472653F00D4
:103EA0005465726D696EE9004368617267656D659E
:103EB0006E742064752066696C616D656E7400496E
:103EC0006E73E9726572206C652066696C616D6560
:103ED0006E7400496E73E972657A206C65206669BC
:103EE0006C616D656E7420657420617070757965A4
:103EF0007A20737572206C6520626F75746F6E2006
:103F0000706F7572206C65206368617267657200FE
:103F1000496E737472756374696F6E73004578705F
:103F2000756C73696F6E20656E20636F75727300B8
:103F300052657469726572206C652066696C616D8A
:103F4000656E74004170707579657A20707569735B
:103F500020617474656E64657A206C27657870756D
:103F60006C73696F6E2064752066696C616D656E37
:103F70007420706F7572206C65207265746972654B
:103F80007200496E737472756374696F6E73005456
:103F9000656D70E97261747572650054656D70E9E4
:103FA0007261747572650053757370656E73696FB5
:103FB0006E004368616E676572206C652066696C8F
:103FC000616D656E740044E962757465722070728B
:103FD0006F6365737375733F004368616E676572E5
:103FE000206C652066696C616D656E74004172724B
:103FF000EA746572005265746972657A206C276F85
:10400000626A657420647520706C61746561750006
:10401000496D7072657373696F6E207465726D6936
:104020006EE9650053757370656E73696F6E004558
:104030006E20706175736500506175736500496D20
:104040007072657373696F6E0054656D70E97261AB
:104050007475726500546F75742065737420656E95
:10406000206F726472653F005465726D696EE9007D
:1040700052E9676C6572204F666673657400417023
:10408000707579657A2065742072E9676C657A20AD
:104090006C612076616C657572206A757371752725
:1040A000E020636520717565206C27656D626F7512
:1040B0007420746F75636865206C6520706C617422
:1040C00065617500496E737472756374696F6E73A0
:1040D0000043616C63756C20647520706C616E20A8
:1040E000647520706C61746561750052E9676C6578
:1040F00072204F66667365740052E9676C6167658C
:1041000020706F736974696F6E20656E20636F75C0
:1041100072730052E9676C6572204F66667365744E
:104120000054656D70E97261747572650044E962EE
:10413000757465722070726F6365737375733F0079
:1041400052E9676C6572204F666673657400777715
:10415000772E62712E636F6D20737570706F72743D
:104160002E33642E66724062712E636F6D0041695A
:1041700064650056657273696F6E0054656D70E911
:104180007261747572650054656D70E97261747561
:1041900072650045787472756465757365202F20AB
:1041A00031206D6D00457874727564657573652096
:1041B0002F20302C31206D6D00417865205A202F42
:1041C000203130206D6D00417865205A202F20313C
:1041D000206D6D00417865205A202F20302C312031
:1041E0006D6D004178652059202F203130206D6D94
:1041F000004178652059202F2031206D6D004178D5
:10420000652059202F20302C31206D6D00417865BC
:104210002058202F203130206D6D004178652058C6
:10422000202F2031206D6D004178652058202F20EF
:10423000302C31206D6D0053E96C656374696F6ECD
:104240006E657A206F7074696F6E00457874727550
:104250002E202F2044E9706C61636572206D6D0023
:1042600053E96C656374696F6E6E657A206F707464
:10427000696F6E00417865205A202F2044E9706CE8
:1042800061636572206D6D0053E96C656374696FDD
:104290006E6E657A206F7074696F6E00417865206C
:1042A00059202F2044E9706C61636572206D6D00A8
:1042B00053E96C656374696F6E6E657A206F707414
:1042C000696F6E004178652058202F2044E9706C9A
:1042D00061636572206D6D0054656D70E972617483
:1042E0007572650043686175662E20657874727515
:1042F00064657573653F0045787472752E202F20B4
:1043000044E9706C61636572206D6D0053E96C6502
:104310006374696F6E6E657A206F7074696F6E007A
:1043200044E9706C61636572206178657300506F59
:10433000736974696F6E20696E636F6E6E75652C3C
:104340002073E96C656374696F6E6E657A20686FBF
:104350006D6520706F757220636F6E74696E756520
:10436000720044E9706C61636572206C6573206152
:104370007865730052E9676C616765730052E9679D
:104380006C61676520706F736974696F6E0041635B
:10439000637565696C0054656D70E972617475725E
:1043A000650044E962757465722070726F636573AD
:1043B0007375733F004163637565696C00546F7575
:1043C000742065737420656E206F726472653F009F
:1043D0005465726D696EE90052E9676C657A206C0C
:1043E000652074726F697369E86D6520706F696E1E
:1043F00074206A7573717527E02063652071756597
:10440000207327616C6C756D65206C61206C756D17
:1044100069E8726520726F756765004E6976656C34
:10442000657220706C61746561750052E9676C6536
:104430007A206C65206465757869E86D6520706F19
:10444000696E74206A7573717527E0206365207149
:104450007565207327616C6C756D65206C61206CCF
:10446000756D69E8726520726F756765004E6976D3
:10447000656C657220706C61746561750052E967E6
:104480006C657A206C65207072656D69657220704C
:104490006F696E74206A7573717527E020636520FB
:1044A000717565207327616C6C756D65206C61207A
:1044B0006C756D69E8726520726F756765004E698D
:1044C00076656C657220706C61746561750052E987
:1044D000676C61676520706F736974696F6E2065C2
:1044E0006E20636F757273004163637565696C005C
:1044F00054656D70E97261747572650044E96275A6
:104500007465722070726F6365737375733F004ECC
:104510006976656C657220706C61746561750054B4
:104520006F75742065737420656E206F7264726598
:104530003F005465726D696EE9004368617267659A
:104540006D656E742064752066696C616D656E744E
:1045500000496E73E9726572206C652066696C6152
:104560006D656E7400496E73E972657A206C652022
:1045700066696C616D656E7420657420617070751C
:1045800079657A20737572206C6520626F75746F1F
:104590006E20706F7572206C65206368617267654C
:1045A0007200496E737472756374696F6E73005430
:1045B000656D70E97261747572650054656D70E9BE
:1045C0007261747572650052E9676C61676520708D
:1045D0006F736974696F6E00496E73E9726572205A
:1045E0006C652066696C616D656E740044E9627586
:1045F0007465722070726F6365737375733F0049E1
:104600006E73E9726572206C652066696C616D6518
:104610006E7400546F75742065737420656E206F1E
:10462000726472653F005465726D696EE900457889
:1046300070756C73696F6E20656E20636F75727331
:104640000052657469726572206C652066696C61E0
:104650006D656E74004170707579657A207075694A
:104660007320617474656E64657A206C2765787058
:10467000756C73696F6E2064752066696C616D6519
:104680006E7420706F7572206C652072657469722B
:10469000657200496E737472756374696F6E73002E
:1046A00054656D70E97261747572650054656D7062
:1046B000E97261747572650052E9676C6167652023
:1046C000706F736974696F6E005265746972657298
:1046D000206C652066696C616D656E740044E962EA
:1046E000757465722070726F6365737375733F00C4
:1046F00052657469726572206C652066696C616DC3
:10470000656E7400446F7373696572207072E9633B
:10471000E964656E7400526576656E697220617534
:10472000206D656E7500496D7072696D65722066E9
:104730006963686965723F00496D70722E20646517
:104740007075697320534400566572726F75696C99
:104750006CE965004170707579657A206465206642
:1047600061E76F6E2070726F6C6F6E67E965207025
:10477000722064E9766572726F75696C6C6572207F
:104780006C27696D7072696D616E7465004172723B
:10479000EA74206427757267656E6365204F4E006A
:1047A0004865697A62657474005765636873656CFF
:1047B0002064617320505446452D52F66872636838
:1047C000656E20616C6C6520323530205374756ED7
:1047D00064656E004572696E6E6572756E6700463F
:1047E00065686C67657363686C6167656E004162DC
:1047F00067657363686C6F7373656E00447275638D
:104800006B64617565720053746174697374696B6C
:10481000656E0053746174697374696B656E0050E2
:104820006F736974696F6E736175737269636874AD
:10483000756E670046696C616D656E74207765639F
:104840006873656C6E00446572204E616D6520650D
:104850006E7468E46C7420756E67FC6C74696765CF
:10486000205A65696368656E00456E746665726E90
:1048700065206469652052FC636B7374E46E646543
:1048800020766F6E2064657220506C6174746500D0
:10489000447275636B20616E676568616C74656EE8
:1048A00000506F736974696F6E73617573726963B9
:1048B0006874756E67200046696C616D656E742062
:1048C0007765636873656C6E00506F736974696FA8
:1048D0006E736175737269636874756E670046699B
:1048E0006C616D656E742065696E66FC6872656EDC
:1048F00000506F736974696F6E7361757372696369
:104900006874756E670046696C616D656E742065CC
:104910006E746E65686D656E004665686C657220C4
:104920006265696D204175736C6573656E206465A1
:10493000722054656D7065726174757200466568A9
:104940006C657200476573616D747A6569740041C6
:10495000757300696E616B746976004D6F64757371
:10496000005A7572FC636B0042697474652077614C
:104970007274656E005A756D204265656E64656E71
:10498000206472FC636B656E0046FC72205A75727F
:10499000FC636B206472FC636B656E0046FC7220E6
:1049A0005374617274206472FC636B656E0046FC24
:1049B0007220576569746572206472FC636B656E62
:1049C000005A756D20416E6E65686D656E2064726B
:1049D000FC636B656E004861726420526573657498
:1049E0000053707261636865004F6666736574207A
:1049F00065696E73742E005365722E20446973705E
:104A00006C6179004175746F6D2E204E69762E00B1
:104A100048696C66650056657273696F6E00302C6C
:104A200031206D6D206265776567656E0031206DA0
:104A30006D206265776567656E003130206D6D2091
:104A40006265776567656E00457874727564657236
:104A5000206265776567656E005A2D4163687365EE
:104A6000206265776567656E00592D4163687365DF
:104A7000206265776567656E00582D4163687365D0
:104A8000206265776567656E0042657374E47469DA
:104A900067656E0045726E65757420766572737514
:104AA0006368656E004765736368772E20E46E6403
:104AB00065726E0046696C616D656E742077656322
:104AC0006873656C6E00416E68616C74656E005051
:104AD0006175736500466F727466616872656E0019
:104AE00054656D7065726174757220E46E646572F0
:104AF0006E0041636873656E206265776567656EF9
:104B0000004D6F746F72656E20415553004D6F7488
:104B10006F72656E2045494E0045696E7374656C11
:104B20006C756E67656E00486F6D6500506C6174E2
:104B30007465206E6976656C6C696572656E004699
:104B4000696C616D656E742065696E66FC6872657E
:104B50006E0046696C616D656E7420656E74666585
:104B6000726E656E00566F6E2053444B61727465B1
:104B700020647275636B656E0053442D4B617274D3
:104B8000652065696E7365747A656E004CF67363B3
:104B900068743B2064656E20447275636B65722097
:104BA0006A65747A74206E696368742061757373C2
:104BB0006368616C74656E0048617264205265734D
:104BC000657400447572636820466F72746661682C
:104BD00072656E2077657264656E20646965205722
:104BE00065726B732D65696E7374656C6C756E6739
:104BF000656E207A7572FC636B67657365747A7491
:104C00000041636874756E6721005A7572FC636BAE
:104C10007365747A656E3F004861726420526573F3
:104C20006574005669656C20537061DF206D69748E
:104C3000206465696E656D20486570686573746F82
:104C400073203221204465696E6572205068616E60
:104C500074617369652073696E64206B65696E6544
:104C6000204772656E7A656E2067657365747A7425
:104C7000004163687465206461726175662C20640C
:104C8000656E20457874727564657220756E642057
:104C900064696520506C617474652072FC636B7389
:104CA00074616E647366726569207A752068616CE0
:104CB00074656E0057697220626567696E6E656E15
:104CC000206D69742064656D204B616C6962726946
:104CD0006572656E206465732053656E736F7273C1
:104CE000206D697420646572204F66667365742D4B
:104CF00045696E7374656C6C756E670057696C6C92
:104D00006B6F6D6D656E21205769722062656769F2
:104D10006E6E656E206D69742064657220566F72C8
:104D2000626572656974756E67206465732044728C
:104D300075636B65727300446575747363680053C3
:104D40007072616368652077E4686C656E0057690E
:104D50007A6172640053657269656C6C6520537486
:104D600065756572756E67004765736368772E2099
:104D7000C46E6465726E00416C6C65732072696309
:104D8000687469673F004665727469670046696CBC
:104D9000616D656E7420776972642067656C61640B
:104DA000656E0046696C616D656E742065696E663E
:104DB000FC6872656E0046FC687265206461732051
:104DC00046696C616D656E742065696E20756E64F0
:104DD000206472FC636B652064656E204B6E6F709F
:104DE000662C20756D206573207A75206C61646572
:104DF0006E00416E77656973756E67656E0041750B
:104E000073676162650046696C616D656E742065EB
:104E10006E746E65686D656E004472FC636B652030
:104E2000756E6420776172746520626973206461B5
:104E3000732046696C616D656E742061757367657A
:104E4000676562656E20776972642C20756D2065D8
:104E500073207A7520656E746665726E656E0041AA
:104E60006E77656973756E67656E0054656D706504
:104E700072617475720054656D70657261747572DB
:104E80000050617573696572740046696C616D6587
:104E90006E74207765636873656C6E00566F726719
:104EA000616E67207374617274656E3F0046696C51
:104EB000616D656E74207765636873656C6E004123
:104EC0006E68616C74656E00447275636B7374FC1C
:104ED000636B20766F6E20426173697320656E7418
:104EE0006665726E656E00447275636B2061626701
:104EF000657363686C6F7373656E00506175736979
:104F000065727400496E205061757365005061755B
:104F1000736500447275636B740054656D706572DF
:104F20006174757200416C6C65732072696368749A
:104F300069673F00466572746967004F666673650E
:104F4000742065696E7374656C6C656E004472FCE8
:104F5000636B6520756E64207374656C6C6520648A
:104F6000656E20576572742065696E2062697320D2
:104F70006469652044FC73652064696520506C6138
:104F800074746520626572FC68727400416E7765A6
:104F90006973756E67656E0044696520466CE463ED
:104FA00068652064657220506C617474652077694F
:104FB0007264206B616C6B756C69657274004F660E
:104FC000667365742065696E7374656C6C656E00DC
:104FD000506F736974696F6E73617573726963681A
:104FE00074756E6720004F66667365742065696E20
:104FF0007374656C6C656E0054656D706572617478
:10500000757200566F7267616E6720737461727497
:10501000656E3F004F66667365742065696E7374D4
:10502000656C6C656E007777772E62712E636F6D9D
:1050300020737570706F72742E33642E64654062D5
:10504000712E636F6D0048696C66650056657273FA
:10505000696F6E0054656D7065726174757200548D
:10506000656D7065726174757200457874727564EF
:1050700065722F2031206D6D0045787472756465FE
:10508000722F20302C31206D6D005A2D41636873D2
:10509000652F203130206D6D005A2D416368736596
:1050A0002F2031206D6D005A2D41636873652F20CC
:1050B000302C31206D6D00592D41636873652F20B0
:1050C0003130206D6D00592D41636873652F20319B
:1050D000206D6D00592D41636873652F20302C3190
:1050E000206D6D00582D41636873652F203130208D
:1050F0006D6D00582D41636873652F2031206D6DF3
:1051000000582D41636873652F20302C31206D6D60
:10511000004175737761686C207472656666656EB0
:105120000045787472756465722F206D6D2062651C
:10513000776567656E004175737761686C2074727E
:10514000656666656E005A2D41636873652F206D34
:105150006D206265776567656E004175737761687C
:105160006C207472656666656E00592D41636873C4
:10517000652F206D6D206265776567656E004175EE
:10518000737761686C207472656666656E00582D71
:1051900041636873652F206D6D2062657765676573
:1051A0006E0054656D706572617475720045787437
:1051B00072756465722065726869747A656E3F0005
:1051C00045737472756465722F206D6D206265770A
:1051D0006567656E004175737761686C20747265F0
:1051E0006666656E0041636873656E20626577650B
:1051F00067656E00556E62656B616E6E74652050FA
:105200006F736974696F6E2E204B65687265207AC2
:10521000756D20466F727466616872656E207A756E
:1052200072205374617274706F736974696F6E2049
:105230007A7572FC636B0041636873656E2062650A
:10524000776567656E0045696E7374656C6C756E25
:1052500067656E00506F736974696F6E7361757303
:105260007269636874756E6700486F6D6500546598
:105270006D7065726174757200566F7267616E67EA
:10528000207374617274656E3F00486F6D650041F4
:105290006C6C657320726963687469673F0046656A
:1052A00072746967005269636874652064656E2072
:1052B0006472697474656E2050756E6B74206175CC
:1052C00073206269732064617320726F7465204C6F
:1052D000E46D706368656E206C65756368746574F1
:1052E00000506C61747465206E6976656C6C6965DC
:1052F00072656E005269636874652064656E207A19
:1053000077656974656E2050756E6B742061757376
:10531000206269732064617320726F7465204CE4AD
:105320006D706368656E206C657563687465740084
:10533000506C61747465206E6976656C6C69657219
:10534000656E005269636874652064656E206572DD
:105350007374656E2050756E6B7420617573206276
:1053600069732064617320726F7465204CE46D7002
:105370006368656E206C6575636874657400506C55
:1053800061747465206E6976656C6C696572656EB2
:1053900000506F736974696F6E73617573726963BE
:1053A0006874756E672000486F6D650054656D7098
:1053B00065726174757200566F7267616E672073F3
:1053C00074617274656E3F00506C61747465206E18
:1053D0006976656C6C696572656E00416C6C6573AD
:1053E00020726963687469673F0046657274696713
:1053F0000046696C616D656E742077697264206720
:10540000656C6164656E0046696C616D656E7420E3
:1054100065696E66FC6872656E0046FC68726520A0
:105420006461732046696C616D656E742065696E98
:1054300020756E64206472FC636B652064656E2069
:105440004B6E6F70662C20756D206573207A752009
:105450006C6164656E00416E77656973756E676532
:105460006E0054656D706572617475720054656D7F
:105470007065726174757200506F736974696F6ED4
:10548000736175737269636874756E670046696CE1
:10549000616D656E742065696E66FC6872656E008C
:1054A000566F7267616E67207374617274656E3FC8
:1054B0000046696C616D656E742065696E66FC6896
:1054C00072656E00416C6C65732072696368746903
:1054D000673F004665727469670041757367616272
:1054E000650046696C616D656E7420656E746665F5
:1054F000726E656E004472FC636B6520756E64208D
:1055000077617274652062697320646173204669F3
:105510006C616D656E742061757367656765626542
:105520006E20776972642C20756D206573207A7502
:1055300020656E746665726E656E00416E77656992
:1055400073756E67656E0054656D70657261747514
:10555000720054656D7065726174757200506F737E
:105560006974696F6E736175737269636874756E5F
:10557000670046696C616D656E7420656E746E655A
:10558000686D656E00566F7267616E672073746137
:105590007274656E3F0046696C616D656E7420655E
:1055A0006E746665726E656E00566F7269676572BD
:1055B000204F72646E6572005A7572FC636B207ABC
:1055C000756D204D656EFC004461746569206472E0
:1055D00075636B656E3F00566F6E2053442D4B61B3
:1055E00072746520647275636B656E0047657370D5
:1055F00065727274005A756D20456E7473706572B1
:1056000072656E2064657320447275636B65727396
:105610002067656472FC636B742068616C74656EEE
:10562000004E6F7473746F707020616B746976696B
:105630006572740043616D612063616C69656E74AD
:10564000650043616D62696120656C207475626FED
:105650002050544645206361646120323530206813
:105660006F726173005265636F726461746F726907
:105670006F0046616C6C69646F7300436F6D706C92
:10568000657461646F73005469656D706F00457374
:1056900074616469737469636173004573746164F0
:1056A0006973746963617300416A757374616E64D0
:1056B0006F20706F73696369F36E0043616D626997
:1056C00061722066696C616D656E746F0043617212
:1056D00061637465726573206E6F2076E16C696436
:1056E0006F7320656E20656C206E6F6D6272650051
:1056F000526574697261206C6F732072657369649E
:10570000756F73206465206C612062617365004968
:105710006D7072657369F36E20646574656E69649B
:105720006100416A757374616E646F20706F736994
:105730006369F36E0043616D626961722066696C32
:10574000616D656E746F00416A757374616E646F2C
:1057500020706F73696369F36E00496E73657274CC
:1057600061722066696C616D656E746F00416A7567
:105770007374616E646F20706F73696369F36E0098
:10578000526574697261722066696C616D656E74D0
:105790006F0046616C6C6F20656E206C61206C65DB
:1057A0006374757261206465206C612074656D702E
:1057B00065726174757261004572726F720054692E
:1057C000656D706F20746F74616C004F6666006960
:1057D0006E61637469766F004D6F646F00566F6C15
:1057E00076657200506F72206661766F722C20654C
:1057F00073706572610050756C73612070617261C5
:105800002066696E616C697A61720050756C7361B3
:10581000207061726120766F6C7665720050756CD5
:105820007361207061726120636F6D656E7A617261
:105830000050756C7361207061726120636F6E74CB
:10584000696E7561720050756C7361207061726170
:1058500020636F6E6669726D6172004861726420C8
:105860005265736574004964696F6D6100416A75C2
:1058700073746172206F66667365740050616E7434
:10588000616C6C61207365726965004175746F2D80
:105890004E6976656C61646F00536F706F727465EA
:1058A000005665727369F36E004D6F766572203035
:1058B0002E316D6D004D6F76657220316D6D004D2E
:1058C0006F7665722031306D6D004D6F7665722098
:1058D0006578747275736F72004D6F7665722065AE
:1058E0006A65205A004D6F76657220656A65205999
:1058F000004D6F76657220656A65205800436F6EB3
:105900006669726D6172005265696E74656E74616C
:10591000720043616D626961722076656C6F6369C4
:105920006461640043616D626961722066696C61E3
:105930006D656E746F00446574656E6572005061CC
:1059400075736172005265616E75646172004361C6
:105950006D626961722074656D70657261747572D3
:1059600061004D6F76657220656A6573004D6F74D6
:105970006F726573204F4646004D6F746F7265738A
:10598000204F4E00416A757374657300486F6D65F2
:10599000004E6976656C6172206261736500496EC4
:1059A0007365727461722066696C616D656E746F87
:1059B00000526574697261722066696C616D656E12
:1059C000746F00496D7072696D69722064657364EB
:1059D0006520534400496E7365727461207461726E
:1059E0006A65746120534400426F7272616E646F25
:1059F0002C206E6F2061706167756573206C61206B
:105A0000696D707265736F726100486172642052D3
:105A10006573657400536920636F6E74696E756198
:105A200020736520726573746175726172E16E2016
:105A30006C6F732076616C6F72657320646520668D
:105A4000E1627269636100A14174656E6369F36E1E
:105A50002100BF5265737461757261722076616C4A
:105A60006F7265733F00486172642052657365749C
:105A700000A1446973667275746120646520747551
:105A800020486570686573746F73203221205369F4
:105A90002070756564657320696D6167696E6172F8
:105AA0006C6F207075656465732068616365726CE6
:105AB0006F005265637565726461206D616E746517
:105AC0006E657220656C206578747275736F7220D4
:105AD00079206C612062617365206C696272652057
