:100000000C94B0500C94C5530C94F0530C941B54A6
:100010000C9446540C9471540C949C540C94C754F6
:100020000C94F2540C94EB500C94EB500C94EB5059
:100030000C94EB500C94705C0C94EB500D94928AE1
:100040000C94EB500D94771D0C94EB500C94EB50EA
:100050000C94EB500C94EB500D945F2E0C94ED50DF
:100060000C94EB500D94E1C40C94EB500C94EB50B9
:100070000C94EB500D94778D0C94EB500C94EB504A
:100080000C94EB500C94EB500C94EB500C94EB5004
:100090000C94EB500C94EB500C94EB500C94EB50F4
:1000A0000C94EB500C94EB500C94EB500C94EB50E4
:1000B0000C94EB500C94EB500C94EB500C94EB50D4
:1000C0000C94EB500C94EB500C9464720C94EB5029
:1000D0000C94EB500C94EB500C94EB500C94EB50B4
:1000E0000C94EB501F522452295233523D52B452B9
:1000F00047524F52575261526B52755282528C5234
:10010000B4529652A052AA52E152E552CF52D55261
:10011000DB522A53E952EF52F552FB520153075377
:100120000D5313532A5319531F5325535B576357CA
:100130007D576D577D577D577D577D577D577D572F
:100140007D577D577D577D577D577D577D577D570F
:100150007D577D577D577D577D577D577D577D57FF
:100160007D577D577D577D5755577D577D577D5717
:100170007D577D577D577D577D5749577D577D5713
:100180007D577D577D577D577D577D577D577D57CF
:10019000735778572D982D982D9837982D982D981E
:1001A0002D981F981B986DCE65CE5DCE55CE4DCE49
:1001B00045CE3DCE35CE2DCE25CE1DCE15CE0DCE87
:1001C00005CEFDCDF5CDEDCD97CD64CD3BCD1CCD90
:1001D00014CD0CCD04CDFCCCF4CCECCCE4CCDCCCFC
:1001E000D4CCCCCCC4CCBCCCB4CCACCCA4CC9CCCEF
:1001F00094CC8CCC84CC7CCC74CC6CCC64CC5CCCDF
:1002000054CC4CCC44CC3CCC34CC2CCC24CC1CCCCE
:1002100014CC0CCC04CCFCCBF4CBECCBE4CBDCCBC3
:10022000D4CBCCCBC4CBBCCBB4CB1ECB88CAF2C90D
:100230007CC939C9EBC8A7C85AC817C8C9C785C778
:1002400038C7F5C6A7C663C65BC653C62AC622C64C
:10025000FBC5CAC59EC564C52AC503C5D0C4B1C403
:100260005BC42FC408C4DAC3AFC384C351C303C380
:10027000DDC288C262C237C211C2E4C1BBC1ECC0D8
:10028000C6C094C067C03FC017C0C4BF9EBF60BF98
:100290000BBFE1BEA2BE75BE4ABE1FBEF5BDC3BD4B
:1002A00099BD67BD3DBDE8BCC2BC87BC34BC21BCA8
:1002B000F6BBD0BBB5BB49BB93BB6BBB03D6F3D579
:1002C000EBD5E3D5DBD5D3D5BFD5FBD559E449E490
:1002D00041E439E431E429E415E451E457EA47EA1A
:1002E0003FEA37EA2FEA27EA13EA4FEA24EC24EC44
:1002F00024EC24EC24EC24EC24EC24EC60038A06AB
:100300007E065C04BE030003D602500614040805F2
:1003100022037403EC058C048C04CE039E06860431
:10032000220622062206220622062206220622068D
:10033000220622062206220622062206220622067D
:100340002206220622062206220622062206620231
:10035000C0039C042206220622062206220622064A
:10036000220622062206220622062206220622064D
:10037000220622062206220622062206220622063D
:10038000220622062206220622062206220622062D
:10039000220622062206220622062206220622061D
:1003A000220622062206220622062206220622060D
:1003B00022062206220622062206220622062206FD
:1003C00022062206220622062206AA05C0041806D4
:1003D000084AD73B3BCE016E84BCBFFDC12F3D6CAC
:1003E00074319ABD56833DDA3D00C77F11BED9E412
:1003F000BB4C3E916BAAAABE000000803F05A84CF2
:10040000CDB2D44EB93836A9020C50B991868808BD
:100410003CA6AAAA2ABE000000803F000C94D6E4A5
:100420000C9482520C943FB30C94FCCB0C94EAB322
:100430000C9469F50D94C4640D9453730D94178056
:100440000C94E8BC0C942B5D0C9404CD0C9470CFF0
:100450000C9421B10C9411C20C94779B0D9405025D
:100460000D94857F0C9473570C94A2E80C94D2934E
:100470000C94C8EA0C9484C30C94C2E40C9488C213
:100480000C944EA00C9433520C94F5CD0D947780BF
:100490000D941D800C9454CC0C94CB990C9487BC77
:1004A0000C94EDCD0C9449570D9424800C9423B2F8
:1004B0000C947BE10C948C520C9425B30C94DBD5FA
:1004C0000C9434CC0D94B1A80C94F6A00D94E06477
:1004D0000C94D8930D9454030C940BD60C9481B2C5
:1004E0000D94B0650C9497FE0C944ABE0C94E46F86
:1004F0000C940BBF0D9495010C94CC980C941EF9A0
:100500000C944FE00C9445CE0C94CCFC0C9498B217
:100510000C94FBD50C94B4CC0C945AC80C94B0B287
:100520000D944B080C9416FC0C948BA00C94A09882
:100530000C94F6BB0C94D35B0D9473870C945AE81F
:100540000C94E4C10C94A0520C94D0C40C94219A45
:100550000C94A9A00C9417C80C940BB10D94F564DD
:100560000C9430D60C94FAB20C94F1EA0C94B39833
:100570000C9433950C9403C30C9439C90C94EAEA97
:100580000C94B4520C9454A00D94EE640C9494C04A
:100590000D94451C0C9414A10C9425530C94F9F063
:1005A0000C94829F0C94BBC10C9451C30D94472FA3
:1005B0000C943AEC0C9452EB0C94FFB10C94E7D3EE
:1005C0000C947CA00D94BB790C94AAF00C9454EC80
:1005D0000C9452B20C9481FE0C94C7B20C9474E843
:1005E0000D94407D0C9449E80C945F970C9496EC24
:1005F0000C947EE80C949F950C94ECE00C9474F0B1
:100600000D94432F0C9421BC0C945DCE0C94EBD52F
:100610000C9429B30D944F870C943FC00C942AC6B8
:100620000C940D530C94D2FB0C94C1D40C9417B2BF
:100630000D94D87D0C944FEA0C949CB20C9469B143
:100640000C94C9C70D94572F0C94AE980C945AF182
:100650000C9462C20D9478000C941AFA0D94F27105
:100660000C9401530C94C2BC0C9461520C94B0CE07
:100670000C9495B10C94FBB10C9414CD0C9460A027
:100680000C9405ED0C945B570C944CCC0C94B4CBAF
:100690000C9404CC0C9405700C94A2BE0C94BAF08B
:1006A0000C94C5FC0C948CCC0C94FB520C940BB2A7
:1006B0000C94CCF00D948D010C947CC90C94E4CC7A
:1006C0000D94E92E0C945CCC0C94E4A00C9403D60D
:1006D0000C941AEB0C943A950C9459E40C9403C5C1
:1006E0000C9445FD0C9439E40D945B2F0C941895F3
:1006F0000D94927E0D94627F0C9442F50C94C4FC90
:100700000C9470F00C94ECCB0C94BF930C94A4CC90
:100710000D944B7D0C94A5E80C9447EA0C9424D6D8
:100720000C943BCD0C9462E20C9475A00C94DFB257
:100730000C946EA00C94DA980C9467BD0C94ACCC1D
:100740000C9456A00C9455A00C942FEA0D94568747
:100750000C9457FC0D9440660C9452A10C942CD62A
:100760000C94F9DF0C94E5520C94AAE00C9443B37A
:100770000C942CCC0D94C6260C94909B0D943F2F7A
:100780000D949CA80C9484CC0C94C6980C940FFAED
:100790000C94D6DF0C94A7C80C941FA10D9489A8C3
:1007A0000D94AB010C940C9A0D94A3030C945CFE75
:1007B0000C942A530C9437C20C943D520C941EE6B0
:1007C0000C940CCC0C9457EA0C942EE00C943CA1A5
:1007D0000C942DCE0D94CB640C9427B40C94D3E5DB
:1007E0000C9475BE0C94A3E00C94DBDF0C94E35ADC
:1007F0000C946B990C94EBFE0C949FF00C94ECCC45
:100800000C9437980C94B5BB0C94DADF0C9434D666
:100810000C944CED0C9463C60C943DCE0C942AC5FC
:100820000C9434F90C948AE80D944F2F0D94326097
:100830000D9403650C94CEA00C946CF00D941E7F67
:100840000D94D9640C94F8E40C94F2C90C949EBFF6
:100850000C9452B30C9422C60C9488CA0C94C4BF56
:100860000C94E9520C9465CE0C94D5E10C941FF9CC
:100870000C9451E80C94ECC00C949ED20C94D0B122
:100880000C9456B30C9415CE0C945EA10C94E658BF
:100890000C94D0BB0C9434B20C9400EB0C941ECB93
:1008A0000D94B8800C94BFE50D94B1790C9458A1C7
:1008B0000C9431E40C944F520D94232F0D94401C52
:1008C0000C94EA9B0C9476E20C94E1BE0C9464CDFB
:1008D0000C9428D60C94A7C60C94F1E40C94FBC598
:1008E0000D94DF7E0C943EB20C9493BB0C94475253
:1008F0000C9400A10C9462940C94CCCB0C945BC629
:100900000C9462D00C94E4CB0C9485C70D94C1A8D0
:100910000D949C010C940CCD0D9493A80D9461C47E
:100920000C94F5C60D94DD7D0D94D2640C94C4CC6A
:100930000C94E1520D940B040D949CA90C9410CFCF
:100940000C94A4B10D9404800C9437EA0C9496E8AE
:100950000C9467A00C94CCCC0C947C9F0C9477ECFA
:100960000C948EB10C941DCE0C941FBE0C9467C0D9
:100970000C94CCEA0C94F3D50C9458A00C9444CC71
:100980000D9434AA0C94429B0D9424650C94AA52A5
:100990000C943CFA0C94F2FE0D94CF5D0C9404A1DF
:1009A0000C94D3980C9417C00C946D570C941F534F
:1009B0000C94E5930C9415E40D945B030C9405CE14
:1009C0000C94FD6F0D94E7640C941CD60C9427EAEC
:1009D0000C9469B20C946DB20C9420D60C942CB18A
:1009E0000D9425010C9410F90C94DD6F0C946BFEA2
:1009F0000C9403F10D94FF7F0C9419530D94407ED9
:100A00000C94BFD50C9426A10C9462B10C9413EAFB
:100A10000D94532F0C9412B40C94AD950C94C1B159
:100A20000D94CE800C9414F90C9410A10C947D5765
:100A30000C94899F0C9427D00C94FDCD0C941F52DC
:100A40000D94F62F0C94E8580C94E4B10C94CF520A
:100A50000C946DCE0C942FC40C94EFA00C9407E56D
:100A60000C9457E50C9422A10C9464CC0C949652EF
:100A70000C9478570C9455E80C9499BD0D94DF7F35
:100A80000D947E7F0C9473E10C943CCC0C9458999B
:100A90000C94DAC30C94CBE40C94C0EA0D946A0372
:100AA0000C94F56F0C94CAE40C9481F90C949CCCD2
:100AB0000D9450400C944FB10C9449E40C9453C6DF
:100AC0000C9460FF0C940AA10C94979B0D94D8662B
:100AD0000C9453A00C9460E80C94D3D50D94C85D8D
:100AE0000C940DCE0C94EA6F0C9432E00C947CCCF8
:100AF0000C94A0B30C9455CE0C9438C70D94890176
:100B00000C9435CE0C9496F30C9418F90C9497CD64
:100B10000D947DC40C94C6E40D9491010C94F2A044
:100B20000C945BC40C94BAB10C9425CE0C942D9803
:100B30000C9408C40C9464C50C9413530C9482E078
:100B40000C949AA00D948F000C943FEA0C94BCCBAB
:100B50000C94F06F0D9499A90C94DE930C9475CEBF
:100B60000C9481EC0C9437B10C94B1C40C94DDC29C
:100B70000C94D4CC0C9463570C94EF520C94ABFBB4
:100B80000C94469A0D94D4800C9470ED0C94F5BDA1
:100B90000C94D5520C9468F00C94C6C00C9449BBCC
:100BA0000C94D05C0C94C4EA0C9424CC0C94F552B4
:100BB0000C9433E00C941CCC0C9431ED0C948A9B77
:100BC0000C9471990C943DBD0C9457520C9494CC98
:100BD0000D94FB640C941DF90D94632F0C944DCE71
:100BE0000C944BE00C94DBEA0C942D950C9474E17E
:100BF0000C9429520C94CBFB0D94B1000C9463FA25
:100C00000C944AF90C9478B10C9401FF0C948B95D8
:100C10000C9428E00C9434BC0C9442B90C9472FEF1
:100C20000C9441E40C94AFC30C9429E40D94480354
:100C30000D9434A90C9481B70C9424520C94E3D5F0
:100C40000C94FAA00D94B2A40D949D710C941CF90F
:100C50000C94BCCC0C94D1E40C942AFA0C94F4CCF3
:100C60000C94D4CB0C94B8A00C94F4CB0C94F6B2A6
:100C70000D9479730C94B7930D94B7010C949EC5A1
:100C80000C94FCCC0C941CCD0C9456E00D9437873E
:100C90000C94ACFE0C949BFA0C94C1F30D944F038E
:100CA0000D944B2F0C94E6E20C9424EC0C941E55FE
:100CB0000C9451E40C941F980C9455570C9457A025
:100CC0000C94CBB20C94EAE50C9408960C9414CCDA
:100CD0000C94A2E00C94D0DF0C94C4530C947EB717
:100CE0000C94C4CB0C94DB520C94CAC50C9460BF1A
:100CF0000C94C36A0C946BBB0D9464000D94142F78
:100D00000C94DCCC0C945A960D9458730C94ED937F
:100D10000C94699F0D94F82E0C940EFA0C94755255
:100D20000C94ECE40C9478990C9465E00C948CD1C0
:100D30000C9416B10C9474CC0C94DCCB0D942AA9B1
:100D40000C94C3BD0C945AD10C94EBC80C944DE890
:100D50000C9433A00D94FB2F0C94AAF30C94ABB11C
:100D60000C947FB10D9487780C943BF90C940EB3DE
:100D70000C9459A00C946B520C941B980C94075330
:100D80000C946CCC0C9488FE00000A0B02090C0D2C
:100D90000E0807030401000000000000000000002E
:100DA0000000000000000000000000000000000043
:100DB0000000000012111000000000000000000000
:100DC0000000000000000000000000000000000023
:100DD0000000000000000000000000000000010210
:100DE000102020080810204010204080020102013D
:100DF00008040201010204081020408080402010F5
:100E0000080402018004020180402010080402014D
:100E100008040201010204081020408001020408B5
:100E200010204080100804088010204004408010EA
:100E3000204004800505050507050808080802028A
:100E400002020A0A08080404040401010101010164
:100E500001010303030303030303040707070C0C47
:100E60000C0C0C0C0C0C020202020606060606060E
:100E700006060B0B0B0B0B0B0B0B07070A0A0A0AD8
:100E80000A0A0505050404040808000020002300E0
:100E9000260029002C002F00320000010000030171
:100EA0000601090100002200250028002B002E0069
:100EB0003100340002010000050108010B010000AF
:100EC0002100240027002A002D00300033000101FA
:100ED0000000040107010A01027C3C3E5E2B3D3FFD
:100EE0002F5B5D3B2C2A225C00DFDED4DED3E02EBC
:100EF00020DFDBD0E22E00B8D7DCD5DDD5DDD8D5BC
:100F000020BFC2C4CD20E2E0E3D1DAD020E7D5E0B3
:100F1000D5D720DAD0D6D4EBD52032353020E7D063
:100F2000E1DED200DDD0DFDEDCD8DDD0DDD8D500DB
:100F3000BFDED4DBDED6DAD020DDD520DED1DDD0B9
:100F4000E0E3D6D5DDD000BDD520D2EBDFDEDBDDA2
:100F5000D5DDDE00B2EBDFDEDBDDD5DDDE00B2E0CD
:100F6000D5DCEF00C1E2D0E2D8E1E2D8DAD000C1AE
:100F7000E2D0E2D8E1E2D8DAD000C0D5D3E3DBD8C2
:100F8000E0DED2DAD020DFDEDBDED6D5DDD8EF0042
:100F9000B7D0DCD5DDD8E2EC20DDD8E2EC00BDD561
:100FA000D4DEDFE3E1E2D8DCEBD520E1D8DCD2DE31
:100FB000DBEB20D220DDD0D7D2D0DDD8D820E4D0D2
:100FC000D9DBD000C3D4D0DBD8E2D520DEE1E2D03B
:100FD000E2DAD820E120DFD5E7D0E2DDDED3DE2083
:100FE000E1E2DEDBD000BFD5E7D0E2EC20DEE1E2DB
:100FF000D0DDDED2DBD5DDD000C0D5D3E3DBD8E059
:10100000DED2DAD020DFDEDBDED6D5DDD8EF00B7EA
:10101000D0DCD5DDD8E2EC20DDD8E2EC00C0D5D3C1
:10102000E3DBD8E0DED2DAD020DFDEDBDED6D5DDD2
:10103000D8EF00B2E1E2D0D2D8E2EC20DDD8E2EC89
:1010400000C0D5D3E3DBD8E0DED2DAD020DFDEDBB0
:10105000DED6D5DDD8EF00C3D4D0DBD8E2EC20DD7E
:10106000D8E2EC00BDD520E3D4D0DBDEE1EC20DF1C
:10107000E0DED8D7D2D5E1E2D820E1E7D8E2EBD262
:10108000D0DDD8D520D4D0DDDDEBE520DE20E2D5E3
:10109000DCDFD5E0D0E2E3E0D500BEE8D8D1DAD09D
:1010A00000BED1E9D5D520D2E0D5DCEF00B2EBDA35
:1010B000DB00DED6D8D4D0DDD8EF00C0D5D6D8DC62
:1010C00000B2DED7D2E0D0E200BFDED4DED6D4D884
:1010D000E2D52C20DFDED62E00BDD0D6D0E2EC202B
:1010E000D4DBEF20D7D0D2D5E0E82E00BDD0D6D0CB
:1010F000E2EC20D4DBEF20D2DED7D2E0D0E2D00089
:10110000BDD0D6D0E2EC20D4DBEF20DDD0E7D0DBC1
:10111000D000BDD0D6D0E2EC20D4DBEF20DFE0DE83
:10112000D4DEDBD62E00BDD0D6D0E2EC20D4DBEF6F
:1011300020DFDED4E2D2D5E0D62E0041DFDFD0E0E2
:10114000D0E2DD2E20E1D1E0DEE100CFD7EBDA0006
:10115000BEE2E0D5D3E3DBD8E02ED7D0D7DEE00087
:10116000CDDAE0D0DD20E1D5E0D8D80041D2E2DE12
:10117000D2EBE0D0D2DD2E00BFDED4D4D5E0D6DA7B
:10118000D000B2D5E0E1D8EF00D2D5DDE2D8DBEF78
:10119000E2DEE000C1D2D5E2DED4D8DED400BFD595
:1011A000E0D5DC2E20DDD020302E3120DCDC00BF6D
:1011B000D5E0D5DCD5E1E22E20DDD0203120DCDC0D
:1011C00000BFD5E0D5DCD5E1E22E20DDD0203130E6
:1011D00020DCDC00BFD5E0D5DCD5E1E22E20EDDA65
:1011E000E1E2E0E3D42E00BFD5E0D5DCD5E1E2D8E2
:1011F000E2EC20DEE1EC205A00BFD5E0D5DCD5E101
:10120000E2D8E2EC20DEE1EC205900BFD5E0D5DCED
:10121000D5E1E2D8E2EC20DEE1EC205800BFDED4DC
:10122000E2D2D5E0D4D8E2EC00BFDED2E2DEE0D8F4
:10123000E2EC20DFDEDFEBE2DAE300B8D7DCD5DD7D
:10124000D8E2EC20E1DADEE0DEE1E2EC00B7D0DC6F
:10125000D5DDD8E2EC20DDD8E2EC00BEE1E2D0DD65
:10126000DED2D8E2EC00C3E1E2D0DDDED2D8E2EC9F
:1012700020DFD0E3D7E300B2DED7DED1DDDED2D887
:10128000E2EC00B8D7DCD5DDD8E2EC20E2D5DCDF3B
:10129000D5E0D0E22E00BFD5E0D5DCD5E1E2D8E242
:1012A000EC20DEE1D800CDDBD5DAE2E0DED4D22DD1
:1012B000DBD820B2BABB00CDDBD5DAE2E0DED4D297
:1012C0002DDBD820B2BABB00BDD0E1E2E0DED9DA36
:1012D000D800B4DEDCD0E8DDEFEF00B2EBE0DED228
:1012E000DD2E20DEE1DDDED2D0DDD8D500C3E1E2A7
:1012F000D0DDDED2D8E2EC20DDD8E2EC00C3D4D0E1
:10130000DBD8E2EC20DDD8E2EC00BFD5E7D0E2D0BC
:10131000E2EC20E120534400C3E1E2D0DD2E20DAEC
:10132000D0E0E2DEE7DAE320534400B8D4D5E2208F
:10133000E3D4D0DBD5DDD8D52C20DDD520D2EBDA37
:10134000DBEEE7D0D9E2D520DFE0D8DDE2D5E00062
:1013500041DFDFD0E0D0E2DDEBD920E1D1E0DEE11A
:1013600000B220E1DBE3E7D0D520DFE0DED4DEDB36
:10137000D6D5DDD8EF20D7D0D2DED4E1DAD8D5204B
:10138000D7DDD0E7D5DDD8EF20D1E3D4E3E220D21A
:10139000DEE1E1E2D0DDDED2DBD5DDEB00B2DDD88F
:1013A000DCD0DDD8D52100B2DEE1E1E2D0DD2DE2F6
:1013B000EC20D7DDD0E7D5DDD8EF3F0041DFDFD02F
:1013C000E0D0E2DDEBD920E1D1E0DEE100BDD0E10B
:1013D000DBD0D6D42E20576974626F78203221205A
:1013E000B5E1DBD820DCDED6DDDE20DFE0D5D4E1E0
:1013F000E2D0D2D8E2EC2C20E2DE20DCDED6DDDE4C
:1014000020D820E1D4D5DBD0E2EC00BFDEDCDDD893
:10141000E2D52C20E7E2DE20EDDAE1E2E0E3D4D50C
:10142000E020D820DEE1DDDED2D0DDD8D520D4DE4C
:10143000DBD6DDEB20D1EBE2EC20E7D8E1E2EBDC20
:10144000D800BDD0E7DDD5DC20DAD0DBD8D1E0DEB6
:10145000D2DAE320D4D0E2E7D8DAD020E120E0D518
:10146000D3E3DBD8E0DED2DAD820D7D0D7DEE0D0A5
:1014700000B4DED1E0DE20DFDED6D0DBDED2D0E28B
:10148000EC2120BDD0E7DDD5DC20E120DFDED4D3A8
:10149000DEE2DED2DAD820DFE0D8DDE2D5E0D0002F
:1014A000C0E3E1E1DAD8D900B2EBD1D5E0D8E2D59A
:1014B00020EFD7EBDA00BCD0E1E2D5E000BADEDD08
:1014C000E2E0DEDBEC20E1D5E0D8D800B8D7DCD50F
:1014D000DDD8E2EC20E1DADEE0DEE1E2EC00B2E1D0
:1014E000D520DFE0D0D2D8DBECDDDE3F00B7D0D2B4
:1014F000D5E0E8D5DDDE00BDD8E2EC20D7D0D3E0E2
:10150000E3D6D0D5E2E1EF00C3E1E2D0DDDED2D810
:10151000E2EC20DDD8E2EC00B2E1E2D0D2ECE2D5A0
:1015200020DDD8E2EC20D820DDD0D6DCD8E2D520F2
:10153000DADDDEDFDAE320D4DBEF20D5D520D7D02B
:10154000D3E0E3D7DAD800B8DDE1E2E0E3DAE6D8C9
:10155000D800B2EBD1E0DEE100C3D4D0DBD8E2ECBE
:1015600020DDD8E2EC00BDD0D6DCD8E2D520D820F2
:10157000DFDED4DED6D4D8E2D520D2EBDFE3E1DA69
:10158000D020DDD8E2D820D4DBEF20D5D520E3D49D
:10159000D0DBD5DDD8EF00B8DDE1E2E0E3DAE6D874
:1015A000D800C2D5DCDFD5E0D0E2E3E0D000C2D580
:1015B000DCDFD5E0D0E2E3E0D000BEE1E2D0DDDE6A
:1015C000D2DAD000B7D0DCD5DDD8E2EC20DDD8E22D
:1015D000EC00BDD0E7D0E2EC20DFE0DEE6D5E1E1D3
:1015E0003F00B7D0DCD5DDD8E2EC20DDD8E2EC005E
:1015F000BEE1E2D0DDDED2D8E2EC00C1DDD8DCD83D
:10160000E2D520D4D5E2D0DBEC20E120DEE1DDDE46
:10161000D2D0DDD8EF00BFD5E7D0E2EC20D7D0D2D2
:10162000D5E0E8D5DDD000BFD0E3D7D000BDD020D5
:10163000DFD0E3D7D500BFD0E3D7D000BFD5E7D008
:10164000E2EC00C2D5DCDFD5E0D0E2E3E0D000B2CE
:10165000E1D520DFE0D0D2D8DBECDDDE3F00B7D033
:10166000D2D5E0E8D5DDDE00BEE2E0D5D3E3DBD8BD
:10167000E0DED2D0E2EC20D7D0D7DEE000BDD0D67D
:10168000DCD8E2D520D820DEE2E0D5D3E3DBD8E019
:10169000E3D9E2D520D7DDD0E7D5DDD8D520E2D01B
:1016A000DA2C20E7E2DED1EB20DDD0E1D0D4DAD0B5
:1016B00020DAD0E1D0DBD0E1EC20E1E2DEDBD8DAE9
:1016C000D000B8DDE1E2E0E3DAE6D8D800C0D0E14E
:1016D000E7D5E220DFDBDEE1DADEE1E2D820DEE1A1
:1016E000DDDED2D0DDD8EF00BEE2E0D5D3E3DBD83B
:1016F000E0DED2D0E2EC20D7D0D7DEE000C0D5D3F8
:10170000E3DBD8E0DED2DAD020DFDEDBDED6D5DDEB
:10171000D8EF00BEE2E0D5D3E3DBD8E0DED2D0E202
:10172000EC20D7D0D7DEE000C2D5DCDFD5E0D0E2B8
:10173000E3E0D000BDD0E7D0E2EC20DFE0DEE6D58C
:10174000E1E13F00BEE2E0D5D3E3DBD8E0DED2D07A
:10175000E2EC20D7D0D7DEE0007777772E62712ECB
:10176000636F6D20737570706F72742E33642E7298
:10177000754062712E636F6D00BFDED4D4D5E0D6A4
:10178000DAD000B2D5E0E1D8EF00C2D5DCDFD5E099
:10179000D0E2E3E0D000C2D5DCDFD5E0D0E2E3E088
:1017A000D000CDDAE1E2E0E3D4D5E0202F203120F3
:1017B000DCDC00CDDAE1E2E0E3D4D5E0202F20301C
:1017C0002C3120DCDC00BEE1EC205A202F2031300F
:1017D00020DCDC00BEE1EC205A202F203120DCDCB4
:1017E00000BEE1EC205A202F20302C3120DCDC0020
:1017F000BEE1EC2059202F20313020DCDC00BEE19E
:10180000EC2059202F203120DCDC00BEE1EC2059F7
:10181000202F20302C3120DCDC00BEE1EC205820D1
:101820002F20313020DCDC00BEE1EC2058202F20BE
:101830003120DCDC00BEE1EC2058202F20302C31A0
:1018400020DCDC00B2EBD1D5E0D8E2D520DEDFE64B
:10185000D8EE00CDDAE1E2E0E3D42E202F20BFD590
:10186000E0D5DC2E20DCDC00B2EBD1D5E0D8E2D52F
:1018700020DEDFE6D8EE00BEE1EC205A202F20BFAC
:10188000D5E0D5DCD5E1E22E20DCDC00B2EBD1D511
:10189000E0D8E2D520DEDFE6D8EE00BEE1EC20594C
:1018A000202F20BFD5E0D5DCD5E1E22E20DCDC0006
:1018B000B2EBD1D5E0D8E2D520DEDFE6D8EE00BE2F
:1018C000E1EC2058202F20BFD5E0D5DCD5E1E22E79
:1018D00020DCDC00C2D5DCDFD5E0D0E2E3E0D000E4
:1018E000C0D0D7DED3E0D5E2EC20EDDAE1E2E0E3F0
:1018F000D4D5E03F00CDDAE1E2E0E3D42E202F2082
:10190000DFD5E0D5DC2E20DCDC00B2EBD1D5E0D891
:10191000E2D520DEDFE6D8EE00BFD5E0D5DCD5E1AC
:10192000E2D8E2EC20DEE1D800BFDED7D8E6D8EF7F
:1019300020DDD520DEDFE0D5D4D5DBD5DDD02C20F1
:10194000D2D5E0DDD8E2D5E1EC20D220DDD0E7D061
:10195000DBDE20D4DBEF20DFE0DED4DEDBD6D5DD3E
:10196000D8EF00BFD5E0D5D4D2D8DDE3E2EC20DE5D
:10197000E1D800BDD0E1E2E0DED9DAD800C0D5D3AD
:10198000E3DBD8E0DED2DAD020DFDEDBDED6D5DD69
:10199000D8EF00B4DEDCD0E8DDEFEF00C2D5DCDF4D
:1019A000D5E0D0E2E3E0D000BDD0E7D0E2EC20DF2C
:1019B000E0DEE6D5E1E13F00B4DEDCD0E8DDEFEFCC
:1019C00000B2E1D520DFE0D0D2D8DBECDDDE3F0095
:1019D000B7D0D2D5E0E8D5DDDE00BDD0E1E2E0D081
:1019E000D8D2D0E2EC20E2E0D5E2ECEE20E2DEE775
:1019F000DAE320D4DE20DFDEEFD2DBD5DDD8EF2046
:101A0000DAE0D0E1DDDED3DE20E6D2D5E2D000B2EE
:101A1000EBE0DED2DDEFE2EC20DEE1DDDED2D0DD98
:101A2000D8D500BDD0E1E2E0D0D8D2D0E2EC20D2CF
:101A3000E2DEE0E3EE20E2DEE7DAE320D4DE20DFE0
:101A4000DEEFD2DBD5DDD8EF20DAE0D0E1DDDED38A
:101A5000DE20E6D2D5E2D000B2EBE0DED2DDEFE26E
:101A6000EC20DEE1DDDED2D0DDD8D500BDD0E1E274
:101A7000E0D0D8D2D0E2EC20DFD5E0D2E3EE20E215
:101A8000DEE7DAE320D4DE20DFDEEFD2DBD5DDD8FF
:101A9000EF20DAE0D0E1DDDED3DE20E6D2D5E2D001
:101AA00000B2EBE0DED2DDEFE2EC20DEE1DDDED203
:101AB000D0DDD8D500C0D5D3E3DBD8E0DED2DAD094
:101AC00020DFDEDBDED6D5DDD8EF00B4DEDCD0E80B
:101AD000DDEFEF00C2D5DCDFD5E0D0E2E3E0D000FF
:101AE000BDD0E7D0E2EC20DFE0DEE6D5E1E13F006B
:101AF000B2EBE0DED2DDEFE2EC20DEE1DDDED2D0E3
:101B0000DDD8D500B2E1D520DFE0D0D2D8DBECDDE6
:101B1000DE3F00B7D0D2D5E0E8D5DDDE00BDD8E2AB
:101B2000EC20D7D0D3E0E3D6D0D5E2E1EF00C3E19B
:101B3000E2D0DDDED2D8E2EC20DDD8E2EC00B2E18A
:101B4000E2D0D2ECE2D520DDD8E2EC20D820DDD006
:101B5000D6DCD8E2D520DADDDEDFDAE320D4DBEF35
:101B600020D5D520D7D0D3E0E3D7DAD800B8DDE14F
:101B7000E2E0E3DAE6D8D800C2D5DCDFD5E0D0E297
:101B8000E3E0D000C2D5DCDFD5E0D0E2E3E0D00076
:101B9000C0D5D3E3DBD8E0DED2DAD020DFDEDBDE77
:101BA000D6D5DDD8EF00B2E1E2D0D2D8E2EC20DD2C
:101BB000D8E2EC00BDD0E7D0E2EC20DFE0DEE6D5F5
:101BC000E1E13F00C3E1E2D0DDDED2D8E2EC20DD8E
:101BD000D8E2EC00B2E1D520DFE0D0D2D8DBECDDFA
:101BE000DE3F00B7D0D2D5E0E8D5DDDE00B2EBD1E4
:101BF000E0DEE100C3D4D0DBD8E2EC20DDD8E2ECBB
:101C000000BDD0D6DCD8E2D520D820DFDED4DED6A9
:101C1000D4D8E2D520D2EBDFE3E1DAD020DDD8E280
:101C2000D820D4DBEF20D5D520E3D4D0DBD5DDD848
:101C3000EF00B8DDE1E2E0E3DAE6D8D800C2D5DCB7
:101C4000DFD5E0D0E2E3E0D000C2D5DCDFD5E0D0E4
:101C5000E2E3E0D000C0D5D3E3DBD8E0DED2DAD0D7
:101C600020DFDEDBDED6D5DDD8EF00C3D4D0DBD875
:101C7000E2EC20DDD8E2EC00BDD0E7D0E2EC20DFE2
:101C8000E0DEE6D5E1E13F00C3D4D0DBD8E2EC20D2
:101C9000DDD8E2EC00BFE0D5D4EBD4E3E9D0EF200F
:101CA000DFD0DFDAD000B2DED7D2E0D0E220D2201F
:101CB000DCD5DDEE00BFD5E7D0E2D0E2EC20D0E00D
:101CC000E5D8D23F00BFD5E7D0E2D0E2EC20E1205A
:101CD000534400B7D0D1DBDEDAD8E0DED22E00C329
:101CE000D4D5E0D6D8D2D0E2EC20D4DBEF20E0D0BF
:101CF000D7D1DBDEDA2E20DFE0D8DDE2D5E0D00080
:101D000041D2D0E0D8D9DD2E20DEE1E2D0DD2E2098
:101D1000D2DADB2E0043616D61207175656E7465EA
:101D200000537562737469747561206F20747562F5
:101D30006F20505446452061206361646120323534
:101D40003020686F726173004C656D6272657465F6
:101D50000042617365206EE36F2064657465746191
:101D600064610046616C686164617300436F6E6317
:101D70006C75ED6461730054656D706F004573742C
:101D80006174ED737469636173004573746174ED1C
:101D9000737469636173004120616A757374617261
:101DA00020706F7369E7E36F004D756461722066A0
:101DB000696C616D656E746F004361726174657208
:101DC000657320696E76E16C69646F73206E6F20B5
:101DD0006E6F6D6500526574697265206F73207255
:101DE0006573ED64756F73206461206261736500D3
:101DF000496D7072657373E36F20656D2070617556
:101E00007361004120616A757374617220706F7331
:101E100069E7E36F004D756461722066696C616DFE
:101E2000656E746F004120616A7573746172207011
:101E30006F7369E7E36F00496E73657269722066BC
:101E4000696C616D656E746F004120616A757374B1
:101E5000617220706F7369E7E36F00526574697295
:101E600061722066696C616D656E746F0046616CAD
:101E70006861206E61206C656974757261206461AF
:101E80002074656D7065726174757261004572725F
:101E90006F0054656D706F20746F74616C004465E1
:101EA000736C6967617200696E617469766F004D69
:101EB0006F646F00566F6C74617200506F722066B1
:101EC00061766F722C206167756172646500507273
:101ED000656D69722070617261207465726D696EE2
:101EE0006172005072656D69722070617261207656
:101EF0006F6C746172005072656D697220706172EE
:101F00006120636F6D65E76172005072656D697283
:101F100020702F20636F6E74696E7561720050724D
:101F2000656D697220702F20636F6E6669726D61D6
:101F30007200486172642052657365740049646977
:101F40006F6D6100416A7573746172206F666673AC
:101F5000657400456372E32073E972696500417539
:101F6000746F6E6976656C616D656E746F00537524
:101F7000706F7274650056657273E36F0056656E1C
:101F8000746F696E6861004C757A004465736C6F9C
:101F900063617220302C31206D6D004465736C6F6D
:101FA0006361722031206D6D004465736C6F6361F5
:101FB00072203130206D6D004465736C6F63617207
:101FC000206578747275736F7261004465736C6F0D
:101FD000636172206569786F205A004465736C6F85
:101FE000636172206569786F2059004465736C6F76
:101FF000636172206569786F205800436F6E66696F
:10200000726D61720054656E746172206465206E39
:102010006F766F004D756461722076656C6F6369D1
:1020200064616465004D756461722066696C616D00
:10203000656E746F00506172617200436F6C6F6304
:10204000617220656D207061757361005265746FF7
:102050006D6172004D756461722074656D7065729A
:102060006174757261004465736C6F6361722065A1
:1020700069786F73004D6F746F726573204F4646B9
:10208000004D6F746F726573204F4E004465666932
:102090006E69E7F5657300496EED63696F004E691F
:1020A00076656C6172206261736500496E7365725A
:1020B00069722066696C616D656E746F005265743B
:1020C000697261722066696C616D656E746F00493A
:1020D0006D7072696D697220646F20534400496E9F
:1020E00073657269722063617274E36F20534400F8
:1020F00041206170616761722C206EE36F2064651E
:10210000736C69677565206120696D707265736FA6
:102110007261004861726420526573657400536592
:1021200020636F6E74696E75617220736572E36F00
:1021300020726573706F73746F73206F7320766194
:102140006C6F7265732064652066E1627269636119
:10215000004174656EE7E36F21005265706F722075
:1021600076616C6F7265733F0048617264205265DE
:1021700073657400446573667275746520646120CC
:1021800073756120576974626F782032212053651E
:1021900020636F6E73656775697220696D61676929
:1021A0006E61722C20706F64652066617AEA2D6C16
:1021B0006F004C656D6272652D7365206465206DDE
:1021C000616E7465722061206578747275736F72C8
:1021D000612065206120626173652073656D2072E6
:1021E0006573ED64756F7300436F6D6563656D6F47
:1021F0007320706F722063616C6962726172206F0C
:102200002073656E736F7220616A757374616E649A
:102210006F206F206F66667365740042656D2D7662
:10222000696E646F212056616D6F7320636F6D65F9
:10223000E761722061207072657061726172206165
:1022400020696D70726573736F726100506F727484
:10225000756775EA730053656C6563696F6E652019
:102260006964696F6D610057697A61726400436FD8
:102270006E74726F6C6F2073E9726965004D7564DE
:1022800061722076656C6F63696461646500547582
:10229000646F20636F727265746F3F00436F6E638B
:1022A0006C75ED646F0041206361727265676172E5
:1022B000206F2066696C616D656E746F00496E7386
:1022C000657269722066696C616D656E746F004934
:1022D0006E74726F64757A61206F2066696C616DCF
:1022E000656E746F2065207072696D61206F206269
:1022F0006F74E36F20706172612063617272656751
:10230000E12D6C6F00496E73747275E7F5657300AB
:102310004120657870756C736172005265746972E2
:1023200061722066696C616D656E746F00436172E5
:1023300072656775652065206167756172646520E7
:10234000717565206F2066696C616D656E746F20B4
:1023500073656A6120657870756C7361646F207055
:10236000617261207265746972E12D6C6F00496E53
:1023700073747275E7F565730054656D706572610D
:10238000747572610054656D706572617475726107
:10239000004120706175736172004D756461722037
:1023A00066696C616D656E746F00496E6963696121
:1023B000722070726F636573736F3F004D75646157
:1023C000722066696C616D656E746F005061726138
:1023D00072005265746972652061207065E7612042
:1023E0006461206261736500496D7072657373E3A7
:1023F0006F20636F6E636C75ED646100456D2070D6
:102400006175736100456D20706175736100506185
:10241000757361004120696D7072696D6972005455
:10242000656D7065726174757261005475646F20BA
:10243000636F727265746F3F00436F6E636C75ED0E
:10244000646F00416A7573746172206F66667365AC
:1024500074005072696D61206520616A75737465DE
:10246000206F2076616C6F72206174E920612062B8
:102470006F7175696C686120746F6361722061208F
:102480006261736500496E73747275E7F565730078
:10249000412063616C63756C6172206F20706C61A8
:1024A0006E6F206461206261736500416A757374A8
:1024B0006172206F6666736574004120616A75738E
:1024C00074617220706F7369E7E36F00416A75731E
:1024D000746172206F66667365740054656D706513
:1024E00072617475726100496E696369617220700E
:1024F000726F636573736F3F00416A7573746172C5
:10250000206F6666736574007777772E62712E632D
:102510006F6D20737570706F72742E33642E7074CB
:102520004062712E636F6D005375706F7274650039
:1025300056657273E36F0054656D706572617475F2
:1025400072610054656D70657261747572610045E9
:1025500078747275736F7261202F2031206D6D0059
:102560004578747275736F7261202F20302C312082
:102570006D6D004569786F205A202F203130206D15
:102580006D004569786F205A202F2031206D6D0035
:102590004569786F205A202F20302C31206D6D0036
:1025A0004569786F2059202F203130206D6D00450E
:1025B00069786F2059202F2031206D6D0045697892
:1025C0006F2059202F20302C31206D6D0045697807
:1025D0006F2058202F203130206D6D004569786FB5
:1025E0002058202F2031206D6D004569786F2058CC
:1025F000202F20302C31206D6D0053656C65636990
:102600006F6E65206F70E7E36F00457874727573C5
:102610002E202F204465736C6F632E206D6D005348
:10262000656C6563696F6E65206F70E7E36F0045E9
:1026300069786F205A202F204465736C6F63617234
:10264000206D6D0053656C6563696F6E65206F70FA
:10265000E7E36F004569786F2059202F20446573A8
:102660006C6F636172206D6D0053656C6563696F9B
:102670006E65206F70E7E36F004569786F20582022
:102680002F204465736C6F636172206D6D0054651B
:102690006D70657261747572610041717565636515
:1026A00072206578747275736F72613F004578743B
:1026B0007275732E202F204465736C6F632E206D0E
:1026C0006D0053656C6563696F6E65206F70E7E33D
:1026D0006F004465736C6F636172206569786F7316
:1026E000004E6F20736520636F6E686563652061BF
:1026F00020706F7369E7E36F2C207265616C697AF3
:102700006520686F6D65207061726120636F6E7403
:10271000696E756172004465736C6F6361722065E8
:1027200069786F7300446566696E69E7F5657300E3
:102730004120616A757374617220706F7369E7E399
:102740006F00496EED63696F0054656D706572616D
:102750007475726100496E69636961722070726F8D
:10276000636573736F3F00496EED63696F00547565
:10277000646F20636F727265746F3F00436F6E63A6
:102780006C75ED646F00416A75737465206F207419
:102790006572636569726F20706F6E746F2061740B
:1027A000E9207365206163656E6465722061206C49
:1027B000757A207665726D656C6861004E69766524
:1027C0006C6172206261736500416A757374652083
:1027D0006F20736567756E646F20706F6E746F2005
:1027E0006174E9207365206163656E6465722061C0
:1027F000206C757A207665726D656C6861004E6933
:1028000076656C6172206261736500416A757374EC
:1028100065206F207072696D6569726F20706F6ED0
:10282000746F206174E9207365206163656E64656F
:10283000722061206C757A207665726D656C6861B6
:10284000004E6976656C617220626173650041209B
:10285000616A757374617220706F7369E7E36F006A
:10286000496EED63696F0054656D706572617475D2
:10287000726100496E69636961722070726F63658D
:1028800073736F3F004E6976656C6172206261738D
:1028900065005475646F20636F727265746F3F00DA
:1028A000436F6E636C75ED646F00412063617272FB
:1028B00065676172206F2066696C616D656E746F0B
:1028C00000496E73657269722066696C616D656E30
:1028D000746F00496E74726F64757A61206F206640
:1028E000696C616D656E746F2065207072696D61D1
:1028F000206F20626F74E36F2070617261206361EA
:1029000072726567E12D6C6F00496E73747275E7C2
:10291000F565730054656D70657261747572610060
:1029200054656D7065726174757261004120616AF1
:10293000757374617220706F7369E7E36F00496E9D
:1029400073657269722066696C616D656E746F0083
:10295000496E69636961722070726F636573736F2A
:102960003F00496E73657269722066696C616D65BE
:102970006E746F005475646F20636F727265746F4C
:102980003F00436F6E636C75ED646F0041206578A6
:1029900070756C7361720052657469726172206641
:1029A000696C616D656E746F004361727265677505
:1029B00065206520616775617264652071756520A9
:1029C0006F2066696C616D656E746F2073656A61F6
:1029D00020657870756C7361646F2070617261201E
:1029E0007265746972E12D6C6F00496E7374727553
:1029F000E7F565730054656D706572617475726199
:102A00000054656D7065726174757261004120617A
:102A10006A757374617220706F7369E7E36F0052B7
:102A20006574697261722066696C616D656E746F40
:102A300000496E69636961722070726F63657373B8
:102A40006F3F00526574697261722066696C616DD6
:102A5000656E746F00506173746120616E7465728D
:102A6000696F7200566F6C74617220616F206D65C2
:102A70006E7500496D7072696D6972206669636870
:102A80006569726F3F00496D7072696D697220648B
:102A90006F20534400426C6F71756561646F004D27
:102AA000616E7465722063617272656761646F2024
:102AB0007061726120646573626C6F7175656172BB
:102AC000206120696D70726573736F72610050616F
:102AD000726167656D20456D6572672E204174696E
:102AE000766100506C61746561752063686175661C
:102AF000004368616E676572206C6520747562655D
:102B000020656E205054464520746F75746573209F
:102B10006C65732032353020680052E966E97265D1
:102B20006E7469656C00506C6174656175206E6FC0
:102B30006E2064E974656374E900C9636865637352
:102B40000052E9757373697465730054656D707331
:102B5000206427696D70722E0053746174697374F8
:102B60006971756573005374617469737469717503
:102B700065730052E9676C61676520706F736974F3
:102B8000696F6E004368616E676572206C652066D0
:102B9000696C616D656E74004C65206E6F6D2064AC
:102BA00075206669636869657220636F6E74696514
:102BB0006E742064657320636172616374E872658A
:102BC00073206E6F6E2076616C6964657300526568
:102BD000746972657A206C65732072E97369647533
:102BE0007320647520706C617465617500496D7047
:102BF00072657373696F6E20617272EA74E96500C1
:102C000052E9676C61676520706F736974696F6EF4
:102C1000004368616E676572206C652066696C614F
:102C20006D656E740052E9676C61676520706F7343
:102C30006974696F6E00496E73E9726572206C6524
:102C40002066696C616D656E740052E9676C61673E
:102C50006520706F736974696F6E00526574697274
:102C60006572206C652066696C616D656E740045E7
:102C70007272657572206C6F7273206465206C616E
:102C8000206C656374757265206465206C612074C6
:102C9000656D70E972617475726500457272657573
:102CA0007200447572E96500C97465696E64726585
:102CB000007665696C6C65004D6F646500526574E3
:102CC0006F75720050617469656E74657A207376F1
:102CD000700041707075792E207072207465726D6D
:102CE000696E65720041707075792E207072207265
:102CF0006576656E69720041707075792E2070720C
:102D000020636F6D6D656E636572004170707579DB
:102D10002E20707220636F6E74696E75657200414B
:102D2000707075792E20707220636F6E6669726D97
:102D300065720048617264205265736574004C616D
:102D40006E6775650052E9676C6572204F66667341
:102D5000657400C96372616E2073E9726965004130
:102D600075746F2D6E6976656C6C656D2E004169AA
:102D700064650056657273696F6E0056656E74699E
:102D80006C6174657572004C756D69E8726500441C
:102D9000E9706C6163657220302C31206D6D0044E8
:102DA000E9706C616365722031206D6D0044E970DB
:102DB0006C61636572203130206D6D0044E9706C88
:102DC00061636572206578747275642E0044E970E1
:102DD0006C6163657220617865205A0044E9706C0B
:102DE000616365722061786520590044E9706C6107
:102DF00063657220617865205800436F6E66697262
:102E00006D65720052E965737361796572004D6F8B
:102E100064696669657220766974657373650043D9
:102E200068616E6765722066696C616D656E7400BD
:102E3000417272EA7465720053757370656E6472E4
:102E4000650052657072656E647265004D6F6469ED
:102E5000666965722074656D702E0044E9706C615E
:102E60006365722061786573004D6F746575727368
:102E70002064E9736163746976E973004D6F74656A
:102E8000757273206163746976E9730052E9676C47
:102E900061676573004163637565696C004E6976AF
:102EA000656C657220706C617465617500496E7344
:102EB000E97265722066696C616D656E74005265B9
:102EC00074697265722066696C616D656E74004923
:102ED0006D70722E206465707569732053440049CB
:102EE0006E73E972657A20636172746520534400E1
:102EF0005375707072657373696F6E20656E2063B1
:102F00006F7572732C206E652070617320E9746593
:102F1000696E647265206C27696D7072696D616E8F
:102F2000746500486172642052657365740053696A
:102F300020766F757320636F6E74696E75657A2C79
:102F4000206C65732076616C6575727320642775DB
:102F500073696E65207365726F6E74207265737429
:102F6000617572E965732E00417474656E74696FE2
:102F70006E21005265737461757265722076616CA2
:102F8000657572733F0048617264205265736574A1
:102F900000566F757320EA746573207072EA7420AE
:102FA000E0207574696C6973657220766F74726560
:102FB00020576974626F7820322E20496D707269D3
:102FC0006D657A20746F7574657320766F732069F0
:102FD00064E9657321004E276F75626C69657A201C
:102FE000706173206465206E6574746F79657220FA
:102FF0006C65732072E97369647573206465206C75
:1030000027657874727564657573652065742064CE
:103010007520706C617465617500436F6D6D656ED0
:1030200063657A207061722063616C696272657297
:10303000206C65206361707465757220656E207206
:10304000E9676C616E74206C276F66667365740047
:103050004269656E76656E756521205072E9706112
:10306000726F6E7320656E73656D626C65206C2780
:10307000696D7072696D616E7465004672616EE7AC
:103080006169730053E96C656374696F6E6E657A8C
:10309000206C616E67756500417373697374616E4E
:1030A0007400436F6E7472F46C652073E972696525
:1030B000004D6F646966696572206C612076697481
:1030C0006573736500546F75742065737420656E45
:1030D000206F726472653F005465726D696EE9001D
:1030E0004368617267656D656E74206475206669FA
:1030F0006C616D656E7400496E73E9726572206C67
:10310000652066696C616D656E7400496E73E97265
:10311000657A206C652066696C616D656E742065EA
:1031200074206170707579657A20737572206C6592
:1031300020626F75746F6E20706F7572206C6520E1
:103140006368617267657200496E73747275637447
:10315000696F6E7300457870756C73696F6E20656A
:103160006E20636F757273005265746972657220A8
:103170006C652066696C616D656E74004170707578
:1031800079657A207075697320617474656E646501
:103190007A206C27657870756C73696F6E20647522
:1031A0002066696C616D656E7420706F7572206C3D
:1031B00065207265746972657200496E7374727508
:1031C0006374696F6E730054656D70E97261747534
:1031D00072650054656D70E97261747572650053B3
:1031E000757370656E73696F6E004368616E6765B5
:1031F00072206C652066696C616D656E740044E9CF
:1032000062757465722070726F6365737375733F56
:10321000004368616E676572206C652066696C6149
:103220006D656E7400417272EA7465720052657465
:103230006972657A206C276F626A657420647520F4
:10324000706C617465617500496D70726573736946
:103250006F6E207465726D696EE9650053757370E9
:10326000656E73696F6E00456E20706175736500E1
:10327000506175736500496D7072657373696F6E27
:103280000054656D70E972617475726500546F75F4
:10329000742065737420656E206F726472653F00E0
:1032A0005465726D696EE90052E9676C6572204F72
:1032B0006666736574004170707579657A2065740F
:1032C0002072E9676C657A206C612076616C6575A7
:1032D00072206A7573717527E020636520717565CA
:1032E000206C27656D626F757420746F75636865F7
:1032F000206C6520706C617465617500496E737433
:1033000072756374696F6E730043616C63756C20D2
:10331000647520706C616E20647520706C617465DA
:1033200061750052E9676C6572204F66667365745B
:103330000052E9676C61676520706F736974696F2B
:103340006E20656E20636F7572730052E9676C655D
:1033500072204F66667365740054656D70E9726122
:10336000747572650044E962757465722070726FDD
:103370006365737375733F0052E9676C6572204F24
:103380006666736574007777772E62712E636F6D52
:1033900020737570706F72742E33642E6672406283
:1033A000712E636F6D0041696465005665727369C3
:1033B0006F6E0054656D70E97261747572650054CA
:1033C000656D70E972617475726500457874727527
:1033D0006465757365202F2031206D6D004578740C
:1033E00072756465757365202F20302C31206D6DEA
:1033F00000417865205A202F203130206D6D00412A
:103400007865205A202F2031206D6D00417865208D
:103410005A202F20302C31206D6D004178652059C5
:10342000202F203130206D6D004178652059202FEC
:103430002031206D6D004178652059202F20302CDF
:1034400031206D6D004178652058202F20313020CB
:103450006D6D004178652058202F2031206D6D0062
:103460004178652058202F20302C31206D6D00537D
:10347000E96C656374696F6E6E657A206F7074694C
:103480006F6E0045787472752E202F2044E9706CA1
:1034900061636572206D6D0053E96C656374696FDB
:1034A0006E6E657A206F7074696F6E00417865206A
:1034B0005A202F2044E9706C61636572206D6D00A5
:1034C00053E96C656374696F6E6E657A206F707412
:1034D000696F6E004178652059202F2044E9706C97
:1034E00061636572206D6D0053E96C656374696F8B
:1034F0006E6E657A206F7074696F6E00417865201A
:1035000058202F2044E9706C61636572206D6D0056
:1035100054656D70E9726174757265004368617518
:10352000662E20657874727564657573653F004515
:10353000787472752E202F2044E9706C6163657277
:10354000206D6D0053E96C656374696F6E6E657A0A
:10355000206F7074696F6E0044E9706C616365720E
:10356000206178657300506F736974696F6E2069AC
:103570006E636F6E6E75652C2073E96C656374699C
:103580006F6E6E657A20686F6D6520706F75722042
:10359000636F6E74696E7565720044E9706C616387
:1035A0006572206C657320617865730052E9676C01
:1035B000616765730052E9676C61676520706F73BE
:1035C0006974696F6E004163637565696C00546569
:1035D0006D70E97261747572650044E962757465B5
:1035E000722070726F6365737375733F004163631C
:1035F0007565696C00546F75742065737420656E11
:10360000206F726472653F005465726D696EE900E7
:1036100052E9676C657A206C652074726F69736912
:10362000E86D6520706F696E74206A757371752717
:10363000E020636520717565207327616C6C756D82
:1036400065206C61206C756D69E8726520726F751C
:103650006765004E6976656C657220706C61746593
:1036600061750052E9676C657A206C652064657548
:103670007869E86D6520706F696E74206A75737182
:103680007527E020636520717565207327616C6C78
:10369000756D65206C61206C756D69E872652072CE
:1036A0006F756765004E6976656C657220706C6138
:1036B000746561750052E9676C657A206C652070ED
:1036C00072656D69657220706F696E74206A7573BA
:1036D000717527E020636520717565207327616C23
:1036E0006C756D65206C61206C756D69E872652084
:1036F000726F756765004E6976656C657220706CD7
:1037000061746561750052E9676C61676520706F6F
:10371000736974696F6E20656E20636F75727300D4
:103720004163637565696C0054656D70E97261741D
:103730007572650044E962757465722070726F631A
:1037400065737375733F004E6976656C65722070A2
:103750006C617465617500546F75742065737420B5
:10376000656E206F726472653F005465726D696E9C
:10377000E9004368617267656D656E742064752049
:1037800066696C616D656E7400496E73E97265728D
:10379000206C652066696C616D656E7400496E739E
:1037A000E972657A206C652066696C616D656E747E
:1037B000206574206170707579657A207375722048
:1037C0006C6520626F75746F6E20706F7572206CFF
:1037D00065206368617267657200496E7374727503
:1037E0006374696F6E730054656D70E9726174750E
:1037F00072650054656D70E972617475726500528E
:10380000E9676C61676520706F736974696F6E003A
:10381000496E73E9726572206C652066696C616D32
:10382000656E740044E962757465722070726F632E
:1038300065737375733F00496E73E9726572206C2E
:10384000652066696C616D656E7400546F757420D7
:1038500065737420656E206F726472653F005465F5
:10386000726D696EE900457870756C73696F6E20D2
:10387000656E20636F75727300526574697265724C
:10388000206C652066696C616D656E7400417070B6
:103890007579657A207075697320617474656E64DA
:1038A000657A206C27657870756C73696F6E20641B
:1038B000752066696C616D656E7420706F7572201D
:1038C0006C65207265746972657200496E737472FA
:1038D000756374696F6E730054656D70E97261741D
:1038E0007572650054656D70E9726174757265007A
:1038F00052E9676C61676520706F736974696F6EF8
:103900000052657469726572206C652066696C612D
:103910006D656E740044E962757465722070726F33
:103920006365737375733F005265746972657220C5
:103930006C652066696C616D656E7400446F7373AD
:10394000696572207072E963E964656E740052659E
:1039500076656E6972206175206D656E7500496DC2
:103960007072696D657220666963686965723F008F
:10397000496D70722E206465707569732053440020
:10398000566572726F75696C6CE96500417070758F
:1039900079657A206465206661E76F6E2070726FCA
:1039A0006C6F6E67E9652070722064E976657272EB
:1039B0006F75696C6C6572206C27696D7072696DCA
:1039C000616E746500417272EA74206427757267D3
:1039D000656E6365204F4E004865697A6265747450
:1039E000005765636873656C2064617320505446AA
:1039F000452D52F668726368656E20616C6C6520B7
:103A0000323530205374756E64656E004572696E90
:103A10006E6572756E6700447275636B706C61746D
:103A20007465206E696368742065726B616E6E7474
:103A3000004665686C67657363686C6167656E00F6
:103A4000416267657363686C6F7373656E0044727F
:103A500075636B6461756572005374617469737426
:103A6000696B656E0053746174697374696B656E1C
:103A700000506F736974696F6E73617573726963F7
:103A80006874756E670046696C616D656E74207749
:103A900065636873656C6E00446572204E616D6588
:103AA00020656E7468E46C7420756E67FC6C7469D4
:103AB0006765205A65696368656E00456E74666562
:103AC000726E65206469652052FC636B7374E46EEA
:103AD000646520766F6E2064657220506C6174742A
:103AE0006500447275636B20616E676568616C7414
:103AF000656E00506F736974696F6E736175737270
:103B000069636874756E67200046696C616D656EE7
:103B100074207765636873656C6E00506F736974A9
:103B2000696F6E736175737269636874756E67002F
:103B300046696C616D656E742065696E66FC6872BD
:103B4000656E00506F736974696F6E73617573721F
:103B500069636874756E670046696C616D656E7443
:103B600020656E746E65686D656E004665686C658F
:103B700072206265696D204175736C6573656E2096
:103B80006465722054656D7065726174757200466B
:103B900065686C657200476573616D747A656974F8
:103BA0000041757300696E616B746976004D6F64D6
:103BB0007573005A7572FC636B00426974746520FA
:103BC00077617274656E005A756D204265656E642A
:103BD000656E206472FC636B656E0046FC72205A51
:103BE0007572FC636B206472FC636B656E0046FC4F
:103BF00072205374617274206472FC636B656E0092
:103C000046FC7220576569746572206472FC636BB0
:103C1000656E005A756D20416E6E65686D656E202B
:103C20006472FC636B656E00486172642052657358
:103C300065740053707261636865004F66667365F2
:103C4000742065696E73742E005365722E2044696A
:103C500073706C6179004175746F6D2E204E6976BA
:103C60002E0048696C66650056657273696F6E0058
:103C70004CFC66746572004C6963687400302C31CA
:103C8000206D6D206265776567656E0031206D6D12
:103C9000206265776567656E003130206D6D20624A
:103CA00065776567656E0045787472756465722026
:103CB0006265776567656E005A2D4163687365209C
:103CC0006265776567656E00592D4163687365208D
:103CD0006265776567656E00582D4163687365207E
:103CE0006265776567656E0042657374E474696741
:103CF000656E0045726E65757420766572737563C6
:103D000068656E004765736368772E20E46E6465AE
:103D1000726E0046696C616D656E742077656368CC
:103D200073656C6E00416E68616C74656E00506105
:103D300075736500466F727466616872656E0054D3
:103D4000656D7065726174757220E46E6465726E83
:103D50000041636873656E206265776567656E0014
:103D60004D6F746F72656E20415553004D6F746FC7
:103D700072656E2045494E0045696E7374656C6CC2
:103D8000756E67656E00486F6D6500506C61747488
:103D900065206E6976656C6C696572656E00466952
:103DA0006C616D656E742065696E66FC6872656E27
:103DB0000046696C616D656E7420656E746665722F
:103DC0006E656E00566F6E2053444B6172746520B1
:103DD000647275636B656E0053442D4B617274653C
:103DE0002065696E7365747A656E004CF67363685E
:103DF000743B2064656E20447275636B6572206A43
:103E000065747A74206E6963687420617573736376
:103E100068616C74656E00486172642052657365F8
:103E20007400447572636820466F727466616872CC
:103E3000656E2077657264656E20646965205765DC
:103E4000726B732D65696E7374656C6C756E6765E6
:103E50006E207A7572FC636B67657365747A7400A3
:103E600041636874756E6721005A7572FC636B73E9
:103E700065747A656E3F00486172642052657365AF
:103E800074005669656C20537061DF206D69742081
:103E90006465696E656D20576974626F78203221A0
:103EA000204465696E6572205068616E7461736943
:103EB000652073696E64206B65696E652047726565
:103EC0006E7A656E2067657365747A740041636805
:103ED0007465206461726175662C2064656E20458E
:103EE0007874727564657220756E642064696520EB
:103EF000506C617474652072FC636B7374616E64E2
:103F00007366726569207A752068616C74656E00ED
:103F100057697220626567696E6E656E206D69749F
:103F20002064656D204B616C696272696572656EB3
:103F3000206465732053656E736F7273206D6974AE
:103F400020646572204F66667365742D45696E73D3
:103F500074656C6C756E670057696C6C6B6F6D6D1A
:103F6000656E212057697220626567696E6E656EA5
:103F7000206D69742064657220566F726265726587
:103F80006974756E672064657320447275636B6530
:103F90007273004465757473636800537072616373
:103FA00068652077E4686C656E0057697A617264B1
:103FB0000053657269656C6C652053746575657234
:103FC000756E67004765736368772E20C46E6465FD
:103FD000726E00416C6C6573207269636874696706
:103FE0003F004665727469670046696C616D656E75
:103FF0007420776972642067656C6164656E004641
:10400000696C616D656E742065696E66FC687265C9
:104010006E0046FC687265206461732046696C61BD
:104020006D656E742065696E20756E64206472FC27
:10403000636B652064656E204B6E6F70662C207517
:104040006D206573207A75206C6164656E00416E29
:1040500077656973756E67656E0041757367616238
:10406000650046696C616D656E7420656E746E6581
:10407000686D656E004472FC636B6520756E64202C
:104080007761727465206269732064617320466988
:104090006C616D656E7420617573676567656265D7
:1040A0006E20776972642C20756D206573207A7597
:1040B00020656E746665726E656E00416E77656927
:1040C00073756E67656E0054656D706572617475A9
:1040D000720054656D70657261747572005061751F
:1040E00073696572740046696C616D656E742077E2
:1040F00065636873656C6E00566F7267616E6720EA
:104100007374617274656E3F0046696C616D656EB3
:1041100074207765636873656C6E00416E68616CCE
:1041200074656E00447275636B7374FC636B207608
:104130006F6E20426173697320656E746665726E7E
:10414000656E00447275636B2061626765736368B6
:104150006C6F7373656E005061757369657274007E
:10416000496E205061757365005061757365004438
:104170007275636B740054656D70657261747572ED
:1041800000416C6C657320726963687469673F00F5
:10419000466572746967004F666673657420656969
:1041A0006E7374656C6C656E004472FC636B6520A5
:1041B000756E64207374656C6C652064656E205741
:1041C0006572742065696E20626973206469652078
:1041D00044FC73652064696520506C6174746520CB
:1041E000626572FC68727400416E77656973756E02
:1041F00067656E0044696520466CE4636865206409
:10420000657220506C617474652077697264206BEC
:10421000616C6B756C69657274004F66667365746A
:104220002065696E7374656C6C656E00506F7369A0
:1042300074696F6E736175737269636874756E67A4
:1042400020004F66667365742065696E7374656CD3
:104250006C656E0054656D706572617475720056A0
:104260006F7267616E67207374617274656E3F0070
:104270004F66667365742065696E7374656C6C65F2
:104280006E007777772E62712E636F6D2073757075
:10429000706F72742E33642E64654062712E636F8A
:1042A0006D0048696C66650056657273696F6E00D3
:1042B00054656D706572617475720054656D7065DA
:1042C00072617475720045787472756465722F201E
:1042D00031206D6D0045787472756465722F2030E1
:1042E0002C31206D6D005A2D41636873652F20318C
:1042F00030206D6D005A2D41636873652F20312089
:104300006D6D005A2D41636873652F20302C31206C
:104310006D6D00592D41636873652F203130206D1C
:104320006D00592D41636873652F2031206D6D003C
:10433000592D41636873652F20302C31206D6D003D
:10434000582D41636873652F203130206D6D005802
:104350002D41636873652F2031206D6D00582D410C
:10436000636873652F20302C31206D6D00417573AB
:104370007761686C207472656666656E0045787456
:1043800072756465722F206D6D2062657765676553
:104390006E004175737761686C207472656666653E
:1043A0006E005A2D41636873652F206D6D20626524
:1043B000776567656E004175737761686C2074720C
:1043C000656666656E00592D41636873652F206DC3
:1043D0006D206265776567656E004175737761680A
:1043E0006C207472656666656E00582D4163687353
:1043F000652F206D6D206265776567656E00546579
:104400006D7065726174757200457874727564655B
:10441000722065726869747A656E3F0045737472C4
:10442000756465722F206D6D206265776567656EB6
:10443000004175737761686C207472656666656E9D
:104440000041636873656E206265776567656E001D
:10445000556E62656B616E6E746520506F73697422
:10446000696F6E2E204B65687265207A756D2046E7
:104470006F727466616872656E207A75722053740B
:10448000617274706F736974696F6E207A7572FCF3
:10449000636B0041636873656E206265776567656D
:1044A0006E0045696E7374656C6C756E67656E0041
:1044B000506F736974696F6E736175737269636845
:1044C00074756E6700486F6D650054656D70657238
:1044D0006174757200566F7267616E6720737461E4
:1044E0007274656E3F00486F6D6500416C6C65735A
:1044F00020726963687469673F0046657274696712
:10450000005269636874652064656E206472697422
:1045100074656E2050756E6B7420617573206269CE
:10452000732064617320726F7465204CE46D706356
:1045300068656E206C6575636874657400506C61A5
:10454000747465206E6976656C6C696572656E0061
:104550005269636874652064656E207A7765697452
:10456000656E2050756E6B7420617573206269737F
:104570002064617320726F7465204CE46D70636811
:10458000656E206C6575636874657400506C617449
:104590007465206E6976656C6C696572656E005233
:1045A00069636874652064656E2065727374656EF6
:1045B0002050756E6B74206175732062697320647E
:1045C000617320726F7465204CE46D706368656E72
:1045D000206C6575636874657400506C61747465F3
:1045E000206E6976656C6C696572656E00506F73DC
:1045F0006974696F6E736175737269636874756EDF
:10460000672000486F6D650054656D706572617458
:10461000757200566F7267616E6720737461727491
:10462000656E3F00506C61747465206E6976656CD0
:104630006C696572656E00416C6C657320726963AC
:10464000687469673F004665727469670046696C03
:10465000616D656E7420776972642067656C616452
:10466000656E0046696C616D656E742065696E6685
:10467000FC6872656E0046FC687265206461732098
:1046800046696C616D656E742065696E20756E6437
:10469000206472FC636B652064656E204B6E6F70E6
:1046A000662C20756D206573207A75206C616465B9
:1046B0006E00416E77656973756E67656E0054654F
:1046C0006D706572617475720054656D70657261AC
:1046D00074757200506F736974696F6E736175736E
:1046E0007269636874756E670046696C616D656EAA
:1046F000742065696E66FC6872656E00566F72673D
:10470000616E67207374617274656E3F0046696CF8
:10471000616D656E742065696E66FC6872656E0019
:10472000416C6C657320726963687469673F004609
:1047300065727469670041757367616265004669F7
:104740006C616D656E7420656E746665726E656E03
:10475000004472FC636B6520756E6420776172742F
:104760006520626973206461732046696C616D65C0
:104770006E74206175736765676562656E20776921
:1047800072642C20756D206573207A7520656E74B7
:104790006665726E656E00416E77656973756E67EA
:1047A000656E0054656D7065726174757200546554
:1047B0006D7065726174757200506F736974696FA2
:1047C0006E736175737269636874756E67004669AC
:1047D0006C616D656E7420656E746E65686D656E76
:1047E00000566F7267616E67207374617274656ED4
:1047F0003F0046696C616D656E7420656E74666518
:10480000726E656E00566F7269676572204F7264D2
:104810006E6572005A7572FC636B207A756D204D5F
:10482000656EFC00446174656920647275636B6534
:104830006E3F00566F6E2053442D4B61727465209D
:10484000647275636B656E00476573706572727430
:10485000005A756D20456E747370657272656E20B6
:1048600064657320447275636B6572732067656459
:1048700072FC636B742068616C74656E004E6F74BB
:1048800073746F707020616B7469766965727400FF
:1048900043616D612063616C69656E74650043619D
:1048A0006D62696120656C207475626F205054469A
:1048B0004520636164612032353020686F72617316
:1048C000005265636F726461746F72696F00426158
:1048D0007365206E6F206465746563746164610044
:1048E00046616C6C69646F7300436F6D706C6574C6
:1048F00061646F73005469656D706F004573746116
:104900006469737469636173004573746164697386
:10491000746963617300416A757374616E646F20BA
:10492000706F73696369F36E0043616D62696172F0
:104930002066696C616D656E746F004361726163BE
:104940007465726573206E6F2076E16C69646F73B5
:1049500020656E20656C206E6F6D62726500526519
:1049600074697261206C6F73207265736964756F0E
:1049700073206465206C61206261736500496D700D
:1049800072657369F36E20646574656E69646100B5
:10499000416A757374616E646F20706F73696369C7
:1049A000F36E0043616D626961722066696C616DCE
:1049B000656E746F00416A757374616E646F207008
:1049C0006F73696369F36E00496E73657274617227
:1049D0002066696C616D656E746F00416A757374F1
:1049E000616E646F20706F73696369F36E00526566
:1049F00074697261722066696C616D656E746F00B6
:104A000046616C6C6F20656E206C61206C65637410
:104A1000757261206465206C612074656D706572CB
:104A20006174757261004572726F72005469656DD0
:104A3000706F20746F74616C004F666600696E6100
:104A4000637469766F004D6F646F00566F6C7665A6
:104A50007200506F72206661766F722C20657370E1
:104A60006572610050756C736120706172612066BF
:104A7000696E616C697A61720050756C7361207047
:104A800061726120766F6C7665720050756C73612F
:104A9000207061726120636F6D656E7A6172005083
:104AA000756C7361207061726120636F6E74696EE2
:104AB0007561720050756C73612070617261206362
:104AC0006F6E6669726D6172004861726420526532
:104AD000736574004964696F6D6100416A75737430
:104AE0006172206F66667365740050616E74616CEC
:104AF0006C61207365726965004175746F2D4E6934
:104B000076656C61646F00536F706F7274650056E8
:104B100065727369F36E0056656E74696C61646FDB
:104B200072004C757A004D6F76657220302E316DB3
:104B30006D004D6F76657220316D6D004D6F76653D
:104B4000722031306D6D004D6F766572206578741E
:104B50007275736F72004D6F76657220656A65209D
:104B60005A004D6F76657220656A652059004D6F59
:104B700076657220656A65205800436F6E666972BB
:104B80006D6172005265696E74656E746172004386
:104B9000616D626961722076656C6F6369646164DE
:104BA0000043616D626961722066696C616D656E5A
:104BB000746F00446574656E657200506175736151
:104BC00072005265616E756461720043616D626965
:104BD00061722074656D7065726174757261004DEB
:104BE0006F76657220656A6573004D6F746F7265CC
:104BF00073204F4646004D6F746F726573204F4EA1
:104C000000416A757374657300486F6D65004E6985
:104C100076656C6172206261736500496E736572BE
:104C20007461722066696C616D656E746F005265A7
:104C300074697261722066696C616D656E746F0073
:104C4000496D7072696D6972206465736465205383
:104C50004400496E7365727461207461726A657490
:104C60006120534400426F7272616E646F2C206E3B
:104C70006F2061706167756573206C6120696D706C
:104C80007265736F7261004861726420526573656A
:104C90007400536920636F6E74696E75612073656B
:104CA00020726573746175726172E16E206C6F734E
:104CB0002076616C6F7265732064652066E16272B4
:104CC00069636100A14174656E6369F36E2100BF81
:104CD0005265737461757261722076616C6F726572
:104CE000733F004861726420526573657400A1448B
:104CF00069736672757461206465207475205769E4
:104D000074626F7820322120536920707565646564
:104D10007320696D6167696E61726C6F2070756573
:104D20006465732068616365726C6F0052656375BA
:104D300065726461206D616E74656E657220656C6C
:104D4000206578747275736F722079206C612062AF
:104D5000617365206C696272652064652072657399
:104D60006964756F7300436F6D656E63656D6F7316
:104D70002063616C696272616E646F20656C207380
:104D8000656E736F7220616A757374616E646F20F3
:104D9000656C206F666673657400A14269656E7606
:104DA000656E69646F212056616D6F7320612065A7
:104DB0006D70657A617220707265706172616E6487
:104DC0006F206C6120696D707265736F7261004550
:104DD000737061F16F6C0053656C656363696F6E2E
:104DE00061206964696F6D610057697A617264005E
:104DF000436F6E74726F6C207365726965004361F6
:104E00006D626961722076656C6F636964616400CC
:104E1000BF546F646F20636F72726563746F3F007D
:104E200046696E616C697A61646F004361726761A3
:104E30006E646F2066696C616D656E746F00496E9B
:104E40007365727461722066696C616D656E746FF2
:104E500000496E74726F6475636520656C206669C5
:104E60006C616D656E746F20792070756C73612054
:104E7000656C20626F74F36E2070617261206361F3
:104E8000726761726C6F00496E73747275636369E7
:104E90006F6E657300457870756C73616E646F003A
:104EA000526574697261722066696C616D656E74B9
:104EB0006F0050756C736120792065737065726145
:104EC00020612071756520657870756C736520654B
:104ED0006C2066696C616D656E746F2070617261C3
:104EE00020726574697261726C6F00496E737472BE
:104EF000756363696F6E65730054656D706572618B
:104F0000747572610054656D70657261747572615B
:104F10000050617573616E646F0043616D62696119
:104F2000722066696C616D656E746F00BF496E6951
:104F3000636961722070726F6365736F3F004361D4
:104F40006D626961722066696C616D656E746F0077
:104F5000446574656E657200526574697265206C93
:104F600061207069657A61206465206C61206261EE
:104F7000736500496D7072657369F36E2066696EC2
:104F8000616C697A6164610050617573616E646F10
:104F900000456E207061757361005061757361002A
:104FA000496D7072696D69656E646F0054656D70EE
:104FB0006572617475726100BF546F646F20636FB6
:104FC00072726563746F3F0046696E616C697A61E5
:104FD000646F00416A7573746172206F66667365F1
:104FE000740050756C7361207920616A7573746107
:104FF00020656C2076616C6F72206861737461202B
:10500000717565206C6120626F7175696C6C6120CF
:10501000746F717565206C61206261736500496E03
:10502000737472756363696F6E65730043616C635B
:10503000756C616E646F20656C20706C616E6F20A2
:105040006465206C61206261736500416A757374E8
:105050006172206F666673657400416A757374616E
:105060006E646F20706F73696369F36E00416A75D7
:1050700073746172206F66667365740054656D7039
:105080006572617475726100BF496E6963696172AE
:105090002070726F6365736F3F00416A757374614E
:1050A00072206F6666736574007777772E62712E53
:1050B000636F6D20736F706F7274652E336440621E
:1050C000712E636F6D00536F706F7274650056655B
:1050D000727369F36E0054656D70657261747572F8
:1050E000610054656D706572617475726100457818
:1050F000747275736F72202F20316D6D0045787456
:105100007275736F72202F20302C316D6D00456ADF
:1051100065205A202F2031306D6D00456A65205A78
:10512000202F20316D6D00456A65205A202F2030D8
:105130002C316D6D00456A652059202F2031306D6E
:105140006D00456A652059202F20316D6D00456A3C
:10515000652059202F20302C316D6D00456A652067
:1051600058202F2031306D6D00456A652058202F62
:1051700020316D6D00456A652058202F20302C317C
:105180006D6D0053656C656363696F6E61206F7050
:105190006369F36E004578747275736F72202F2007
:1051A0004D6F766572206D6D0053656C6563636944
:1051B0006F6E61206F706369F36E00456A65205AF7
:1051C000202F204D6F766572206D6D0053656C65E4
:1051D0006363696F6E61206F706369F36E00456A87
:1051E000652059202F204D6F766572206D6D00531C
:1051F000656C656363696F6E61206F706369F36EE0
:1052000000456A652058202F204D6F766572206D0D
:105210006D0054656D706572617475726100BF4395
:10522000616C656E746172206578747275736F72EB
:105230003F004578747275736F72202F204D6F7622
:105240006572206D6D0053656C656363696F6E6197
:10525000206F706369F36E004D6F76657220656A2A
:105260006573004E6F20736520636F6E6F636520FA
:105270006C6120706F73696369F36E2C20726561D5
:105280006C697A6120686F6D65207061726120635E
:105290006F6E74696E756172004D6F766572206510
:1052A0006A657300416A757374657300416A75734A
:1052B00074616E646F20706F73696369F36E004888
:1052C0006F6D650054656D70657261747572610013
:1052D000BF496E69636961722070726F6365736F35
:1052E0003F00486F6D6500BF546F646F20636F723D
:1052F000726563746F3F0046696E616C697A6164C0
:105300006F00416A7573746120656C207465726307
:1053100065722070756E746F20686173746120719E
:10532000756520736520656E6369656E6461206CC8
:1053300061206C757A20726F6A61004E6976656CC7
:105340006172206261736500416A757374612065E2
:105350006C20736567756E646F2070756E746F2056
:1053600068617374612071756520736520656E6373
:1053700069656E6461206C61206C757A20726F6A59
:1053800061004E6976656C617220626173650041EF
:105390006A7573746120656C207072696D65722026
:1053A00070756E746F20686173746120717565200B
:1053B000736520656E6369656E6461206C61206C45
:1053C000757A20726F6A61004E6976656C61722031
:1053D0006261736500416A757374616E646F2070F9
:1053E0006F73696369F36E00486F6D650054656D96
:1053F000706572617475726100BF496E696369613D
:10540000722070726F6365736F3F004E6976656CD2
:105410006172206261736500BF546F646F20636FB7
:1054200072726563746F3F0046696E616C697A6180
:10543000646F0043617267616E646F2066696C61BE
:105440006D656E746F00496E73657274617220666B
:10545000696C616D656E746F00496E74726F64750E
:10546000636520656C2066696C616D656E746F2084
:10547000792070756C736120656C20626F74F36EB7
:105480002070617261206361726761726C6F0049A4
:105490006E737472756363696F6E65730054656DC6
:1054A00070657261747572610054656D70657261CA
:1054B0007475726100416A757374616E646F2070F7
:1054C0006F73696369F36E00496E7365727461721C
:1054D0002066696C616D656E746F00BF496E6963AB
:1054E0006961722070726F6365736F3F00496E73FC
:1054F00065727461722066696C616D656E746F00AF
:10550000BF546F646F20636F72726563746F3F0086
:1055100046696E616C697A61646F00457870756C7C
:1055200073616E646F00526574697261722066699E
:105530006C616D656E746F0050756C7361207920BD
:105540006573706572612061207175652065787082
:10555000756C736520656C2066696C616D656E7431
:105560006F207061726120726574697261726C6F14
:1055700000496E737472756363696F6E657300546E
:10558000656D70657261747572610054656D7065EA
:1055900072617475726100416A757374616E646FD3
:1055A00020706F73696369F36E005265746972618C
:1055B000722066696C616D656E746F00BF496E69BB
:1055C000636961722070726F6365736F3F0052652B
:1055D00074697261722066696C616D656E746F00CA
:1055E0004361727065746120616E746572696F7277
:1055F00000566F6C76657220616C206D656EFA00E6
:10560000BF496D7072696D697220617263686976F5
:105610006F3F00496D7072696D69722064657364D3
:105620006520534400426C6F71756561646F004D75
:10563000616E74E96E2070756C7361646F207061C7
:10564000726120646573626C6F7175656172206C44
:105650006120696D707265736F7261005061726173
:10566000646120456D6572672E206163746976619F
:105670000048656174626564004368616E67652017
:1056800074686520505446452074756265206576BF
:105690006572792032353020686F757273005265FB
:1056A0006D696E64657200426564206E6F7420647B
:1056B00065746563746564004661696C6564004384
:1056C0006F6D706C657465640054696D650053742A
:1056D000617469737469637300537461746973747A
:1056E0006963730041646A757374696E6720706FD3
:1056F000736974696F6E004368616E6765206669DF
:105700006C616D656E7400546865206E616D652016
:10571000636F6E7461696E7320696E76616C696423
:1057200020636861726163746572730052656D6FA6
:10573000766520726573696475652066726F6D2089
:105740007468652062617365005072696E74696E79
:10575000672073746F707065640041646A75737458
:10576000696E6720706F736974696F6E004368615A
:105770006E67652066696C616D656E740041646A70
:10578000757374696E6720706F736974696F6E00EA
:10579000496E736572742066696C616D656E740024
:1057A00041646A757374696E6720706F7369746998
:1057B0006F6E0052656D6F76652066696C616D6510
:1057C0006E74004661756C74206F6E207265616442
:1057D000696E67207468652074656D7065726174A8
:1057E000757265004572726F7200546F74616C203F
:1057F00074696D65004F666600696E6163746976F1
:1058000065004D6F6465004261636B00506C6561BB
:105810007365207761697400507265737320746FCB
:105820002066696E69736800507265737320746FC7
:1058300020676F206261636B005072657373207420
:105840006F20737461727400507265737320746F8B
:1058500020636F6E74696E75650050726573732096
:10586000746F20636F6E6669726D004861726420A8
:105870007265736574004C616E67756167650041A0
:10588000646A757374206F6666736574005365721D
:1058900069616C2073637265656E004175746F2D6C
:1058A0006C6576656C6C696E6700537570706F72AD
:1058B000740056657273696F6E0046616E004C69C4
:1058C000676874004D6F766520302E31206D6D0055
:1058D0004D6F76652031206D6D004D6F76652031FE
:1058E00030206D6D004D6F7665206578747275643B
:1058F0006572004D6F7665205A2061786973004D9E
:105900006F766520592061786973004D6F76652048
:1059100058206178697300436F6E6669726D005438
:10592000727920616761696E004368616E67652006
:105930007370656564004368616E67652066696CB5
:10594000616D656E740053746F700050617573659E
:1059500000526573756D65004368616E67652074FC
:10596000656D7065726174757265004D6F76652046
:1059700061786573004D6F746F7273204F464600F7
:105980004D6F746F7273204F4E0053657474696E5F
:10599000677300486F6D65004C6576656C206265C5
:1059A0006400496E736572742066696C616D656E22
:1059B000740052656D6F76652066696C616D656E09
:1059C00074005072696E742066726F6D20534400CB
:1059D000496E73657274205344206361726400449D
:1059E000656C6574696E672C20646F206E6F74201F
:1059F000737769746368206F6666207468652070C9
:105A000072696E74657200486172642072657365B4
:105A10007400496620796F7520636F6E74696E75C6
:105A2000652C2074686520666163746F72792073D9
:105A3000657474696E67732077696C6C2062652089
:105A4000726573746F7265640043617574696F6E1B
:105A50002100526573746F72652076616C75657391
:105A60003F004861726420726573657400456E6A18
:105A70006F7920576974626F78203221204966203F
:105A8000796F752063616E20696D6167696E65204D
:105A900069742C20796F752063616E206372656173
:105AA000746520697400456E737572652074686151
:105AB00074207468652065787472756465722061FD
:105AC0006E6420626173652061726520667265652F
:105AD0002066726F6D20646562726973005765207D
