:100000000C94B9610C94CE640C94F9640C9424653E
:100010000C944F650C947A650C94A5650C94D0658E
:100020000C94FB650C94F4610C94F4610C94F461F1
:100030000C94F4610C94266D0C94F4610D94F78982
:100040000C94F4610D9464350C94F4610C94F46197
:100050000C94F4610C94F4610D94C6450C94F66113
:100060000C94F4610D942AC40C94F4610C94F46122
:100070000C94F4610D94898D0C94F4610C94F461EA
:100080000C94F4610C94F4610C94F4610C94F4619C
:100090000C94F4610C94F4610C94F4610C94F4618C
:1000A0000C94F4610C94F4610C94F4610C94F4617C
:1000B0000C94F4610C94F4610C94F4610C94F4616C
:1000C0000C94F4610C94F4610C941A830C94F46114
:1000D0000C94F4610C94F4610C94F4610C94F4614C
:1000E0000C94F46128632D6332633C634663BD6303
:1000F0005063586360636A6374637E638B63956364
:10010000BD639F63A963B363EA63EE63D863DE6391
:10011000E4633364F263F863FE6304640A641064A6
:1001200016641C643364226428642E6464686C68FA
:10013000866876688668866886688668866886685F
:10014000866886688668866886688668866886683F
:10015000866886688668866886688668866886682F
:1001600086688668866886685E6886688668866847
:100170008668866886688668866852688668866843
:1001800086688668866886688668866886688668FF
:100190007C68816802B202B202B20CB202B202B250
:1001A00002B2F4B1F0B1A7E79FE797E78FE787E7DF
:1001B0007FE777E76FE767E75FE757E74FE747E7EF
:1001C0003FE737E72FE727E7CFE69CE673E654E6FD
:1001D0004CE644E63CE634E62CE624E61CE614E66F
:1001E0000CE604E6FCE5F4E5ECE5E4E5DCE5D4E565
:1001F000CCE5C4E5BCE5B4E5ACE5A4E59CE594E557
:100200008CE584E57CE574E56CE564E55CE554E546
:100210004CE544E53CE534E52CE524E51CE514E536
:100220000CE504E5FCE4C2E4BAE4B2E418E47EE3DD
:1002300005E3C2E274E230E2E3E1A0E152E10EE163
:10024000C1E07EE030E0ECDFC0DFB8DF91DF63DFEC
:100250005BDF2ADFFEDEC4DE8ADE63DE30DE11DE37
:10026000B9DD8DDD66DD38DD0DDDE2DCAFDC61DCC6
:100270003BDCE4DBBEDB93DB6DDB40DB17DB3FDA33
:1002800019DAE7D9BAD992D96AD915D9EFD8B1D83C
:100290005AD830D8F1D7C4D799D76ED744D712D708
:1002A000E8D6B6D68CD635D60FD6D4D581D56ED570
:1002B00043D51DD502D596D4E0D4B8D427EF19EF95
:1002C00012EF0BEF04EFFDEEEAEE20EF78FD6AFD92
:1002D00063FD5CFD55FD4EFD3BFD71FDB8064C0513
:1002E000F4026A039A0252052C054803E403E4036E
:1002F000E403E403E403E403E403E403D003260695
:10030000F4047E02240370037C035A03D004A60283
:1003100058035802E602600460043C024C04540591
:10032000740474047404740474047404740474040D
:1003300074047404740474047404740474047404FD
:10034000740474047404740474047404740416024D
:100350004A05CA02740474047404740474047404B2
:1003600074047404740474047404740474047404CD
:1003700074047404740474047404740474047404BD
:1003800074047404740474047404740474047404AD
:10039000740474047404740474047404740474049D
:1003A000740474047404740474047404740474048D
:1003B000740474047404740474047404740474047D
:1003C00074047404740474047404DC0310054E058E
:1003D000084AD73B3BCE016E84BCBFFDC12F3D6CAC
:1003E00074319ABD56833DDA3D00C77F11BED9E412
:1003F000BB4C3E916BAAAABE000000803F05A84CF2
:10040000CDB2D44EB93836A9020C50B991868808BD
:100410003CA6AAAA2ABE000000803F000C943EB968
:100420000C944FE70C948B630C94B8D40D9468A98A
:100430000C94ADAD0D9447690D946F570C94E9FD84
:100440000C94E0FD0C94C2E20D945B160C9451B92F
:100450000D948B810D94A9090C94E16D0C9404EF1B
:100460000D9438150C946CB50C94DCE50D940D0AC4
:100470000C947C680C94A4E50D94ECA90D943B0EAF
:100480000C940FD60C9401CC0D94B1010C944DB387
:100490000C943C630C946AFD0C9444E50D946869DB
:1004A0000C94D5F90D94030A0C9452680C947CE5D5
:1004B0000D947A460C949CE50C944CE90D9415111E
:1004C0000C9416BA0C9495630C944CE50C9412D7CA
:1004D0000D94D8690C9454E50D941E120D94D8799E
:1004E0000D9441110D9450170C949A800D94FA03B9
:1004F0000C94E3CA0C94FDFA0D947F180D945A469F
:100500000C940EE10C9444D70C945DF90D940A14EC
:100510000C9474E50C94AFB20C94ACCC0C94DBCC82
:100520000D94441B0C94B4E50C942FCB0C9492D9ED
:100530000C946EBA0D9445030C946ED50C94896C92
:100540000D94A00C0C9459F90C94A5B90D94724615
:100550000C94A9630D9478110C94BEDB0C946DCDB2
:100560000C944FEF0C9414E50C9430E20C94C3CC33
:100570000C94E8FD0C94BD630C94C2AD0D949105F0
:100580000D94FD7E0D9414110C94C4B90C9434E6B2
:100590000C942E640D94BBA80C9499D70D947D19DE
:1005A0000D94AAC30C94FEDE0C94BAE40C941CE6E1
:1005B0000D94D4800C9430D80C94E0D40C94A0B357
:1005C0000D9487050D94A5010D94DD7E0D94824652
:1005D0000C94EFFD0C94EECA0C94F9F80C944BEFCC
:1005E0000C94E4DB0D940C7B0D9453030C947DCCA4
:1005F0000C941FCC0C94D3B90C9458BA0C947AF97F
:100600000D94DC030D94381B0C9443EF0C94D8CA62
:100610000C9416640C943BFD0D9471160C941BB451
:100620000D941F800C94EEFE0C9446B30C946FE76F
:100630000C94B8DF0C9417B50C94A8B20D94D403A5
:100640000D941D690C940A640D945E460C946A63C3
:100650000C9465B50C948CE50C9484E50C94DAFE4E
:100660000C9464680C9444E60C942ED10C947EE0B7
:100670000C9425FE0C9430E00C947FE70C94C2E4BB
:100680000C94BB800C9488B20C942ADF0C9490F9E3
:100690000D9461030D9442800C9424E50C9454E66F
:1006A0000D942B690C944CCB0C948CD60C94046454
:1006B0000D9476460D946A460C9440B30C949FE7D3
:1006C0000C940CB20C94F1D70D947B010C9477E749
:1006D0000C94BAAD0D944C030D9481190C946CE5F7
:1006E0000D9462460D9470010C94A6B90C9435D605
:1006F0000C94FDEE0D949C7F0D9466460C9419DAD3
:100700000C94A3B90D944C160C949DCB0C9452E808
:100710000C9404CB0C94A0E10C9408AF0C94FCE472
:100720000C94B1D80D9499010D94B8140D94686A85
:100730000C941DD50C94B7CD0C9464E50C94EE6329
:100740000D9432110C94B6B90D94BD010C948DDD4D
:100750000D9485190D9430120C9462CB0C9405FF06
:100760000C94A8B90C944EFD0D9403120D947919B4
:100770000D94FC870D948C190D94457E0C94336474
:100780000D949C800D9410040C9446630C94BAD97B
:100790000C9410CD0D948F120C9437BA0C9437AE84
:1007A0000D942B460C9412EF0C9463DE0C9457E7D7
:1007B0000D94F1160D945F730D94B8A80C94996B79
:1007C0000D94EB030C9481F90D9434050D94B7143A
:1007D0000D9478160C94AFB90D9402120C94B6D601
:1007E0000D942B110D940E120C9494E50C943BDC9B
:1007F0000C9471FD0C94B9EA0C942FE70C9437E734
:100800000D94C0740C948AFB0C94F4CD0C94F26398
:100810000C949EFB0C9476F90D9413620C94A1B287
:100820000C949C690C9448BA0C94C1E00C9471CB64
:100830000D94006B0C944ECC0C94E4E50C9402D512
:100840000C9447EF0D9415470C942FB00C945863FB
:100850000D943F1B0D94DB7F0D94DF870C9491DF8B
:100860000D9475810C94F4B10C94AFE70C94CEF90F
:100870000C941CCB0C942CE50D942D340C9487EA2D
:100880000C946ABA0C9450630C9460AF0C9465CCD1
:100890000D9413110D947D640D94E2A90D94C6C3BB
:1008A0000C943FDA0D940A730D9401040D941A62AE
:1008B0000C94CCCB0D94C5740C9453F90C949DB945
:1008C0000D94F6A90C945CBA0D949B190C9474E2E7
:1008D0000C944CBA0D941A470C9478FD0C94EA636E
:1008E0000D9415060D943B800D94B1A20C94BCE5BB
:1008F0000C94D4E50C948ECB0C9497E70C9402AF37
:100900000C9400BA0D9407110C94D4D50C94EEF805
:100910000C945FB50C9467E70C94F6CC0C94A0BAD9
:100920000C9423CD0C945CFD0C94C7CC0C9404E582
:100930000D9457120C94B3630D9441060C9463FD0F
:100940000D949F130D94931B0C9487E70C9455FD05
:100950000C943CE50C940DDD0C9474AF0C940CCD10
:100960000C9434B10C94A4B90C9476680C94F9CA24
:100970000C9428640D940F690C941FCD0C9436CC04
:100980000D9462160D944A050C94B3800C946AD9A8
:100990000C945AD80D94140E0D9432690D94C40918
:1009A0000D946E460C944CE60D940F110C94EFD8F8
:1009B0000D94E1800D94BC800D9480060C94ACE500
:1009C0000C9493800C9418E40C9445CB0C9404E69E
:1009D0000C9422640C9416FE0D9487160C94DDAFD3
:1009E0000C94C0DF0C94A7AD0D9456460C9415D909
:1009F0000D946C010C945EF90C940CE50C94F4FDD0
:100A00000C9486680D9491810C94E4CB0C94CBEB00
:100A10000C9428630C949E690D9416690C942DB364
:100A20000D94B4A80C94D8630C945FE70D94323401
:100A30000D9438200C94B2E80D944B140C94EEED08
:100A40000D9454180C94A2B90C9493DB0C94A3FA53
:100A50000C949F630C9481680D942B030C943ACCF6
:100A60000D9468180C94B2E40C94A6BA0C94B1CB13
:100A70000C9439FF0C94FCE50D94A7190C9484BADE
:100A80000C9431D10D94027B0D9464010C94ADF95A
:100A90000C94AB800D9453A90D945A030D944FA858
:100AA0000C9427E70D943E030D9478A90C9414ED53
:100AB0000C9482AF0C94CDF90D94B33E0D94A60521
:100AC0000D944F7F0C94A0800C943EBA0C9434E5A6
:100AD0000C943FEF0C94B3AD0D9472090C941CE58B
:100AE0000C9417FA0C940AFE0D94C0010C940BCCD4
:100AF0000C942CE60D9434810C94C8CB0D94DB1629
:100B00000C9496D40C941C640C9438DD0C9424E65C
:100B10000D94640A0C94F2CC0C94C4E50C94A68059
:100B20000C94ADD20D9476090D948F010D9416118D
:100B30000D9464050C94F8F80D94507E0C9420EFFD
:100B40000D9439690D94D6090D9462040D945C06D8
:100B50000C9447E70C946C680C94E3E10C94F863F4
:100B60000D94D8030D949C160C940FFE0C94CCE5B8
:100B70000C949ABA0C94DE630D94E27E0D947E0977
:100B80000C94F6B30C94866D0C94FE630C9442BAEC
:100B90000C9494AD0C94E2B90C945BDF0C9478CB7C
:100BA0000C9402B20D94A1180C941DF90C9463DFFF
:100BB0000C943CE60C9452BA0C9460630D94BF14F0
:100BC0000C94F1B90C94DFCD0C9440DB0D947A09B0
:100BD0000C9443D50C940CE60C94F0B10C94326355
:100BE0000C94C4D70C94F0CB0D94C0870D944B1B80
:100BF0000C942EEF0C9483B20C94ECDF0D947501E1
:100C00000C942CBA0C94B9DD0D94D8870C9467BA67
:100C10000C94D8CB0C94A7E70C94BDB90C942D631D
:100C20000C9405E30C94E7D90C9469CC0C949CFAD1
:100C30000C945CE50D94CB0C0C948CAD0D94246954
:100C40000D942A040C94F4F80C94EAEE0D943A46B0
:100C50000C949BFA0D9468010C9453EF0C9466DD90
:100C60000C94AFDC0C9461DC0C9481D50C94E4FD05
:100C70000C94E2DC0C9457B90C9487CB0D94E67479
:100C80000C9427660C9411DE0C945E680C940EFC98
:100C90000C9457EF0C94A7B90D94BF130D94F5194C
:100CA0000C94CD640C9475FE0C946ED70C94E46394
:100CB0000D94C1800C945BCB0C94E1B30C94797BC4
:100CC0000D94D0030C949BB20C9452E10D94C61376
:100CD0000C94F2E70C947EE30D94B40C0C9473E640
:100CE0000C943FE70D94DA800C9417DB0C946DDBC9
:100CF0000C948FE70C948ADE0D943F690C9414E6F3
:100D00000D945A1B0D94F81B0C94F4E50C947E631F
:100D10000C948FE90D9415190C940BEF0C9436CBB1
:100D20000C94CFE60C9419EF0D94B4090D94E216CF
:100D30000C944CB50C9475B20C94BFB50C949CE615
:100D40000C9498CC0C943ABA0C94ECE50C94E8D63C
:100D50000C9494CC0C9427EF0D940B110C9430DE72
:100D60000C94C4DE0C94EDAE0C9474630C9410647B
:100D70000D9468030C940FAF00000A0B02090C0DD0
:100D80000E0807030401000000000000000000003E
:100D90000000000000000000000000000000000053
:100DA0000000000012111000000000000000000010
:100DB0000000000000000000000000000000000033
:100DC0000000000000000000000000000000010220
:100DD000102020080810204010204080020102014D
:100DE0000804020101020408102040808040201005
:100DF000080402018004020180402010080402015E
:100E000008040201010204081020408001020408C5
:100E100010204080100804088010204004408010FA
:100E2000204004800505050507050808080802029A
:100E300002020A0A08080404040401010101010174
:100E400001010303030303030303040707070C0C57
:100E50000C0C0C0C0C0C020202020606060606061E
:100E600006060B0B0B0B0B0B0B0B07070A0A0A0AE8
:100E70000A0A0505050404040808000020002300F0
:100E8000260029002C002F00320000010000030181
:100E90000601090100002200250028002B002E0079
:100EA0003100340002010000050108010B010000BF
:100EB0002100240027002A002D003000330001010A
:100EC0000000040107010A01027C3C3E5E2B3D3F0D
:100ED0002F5B5D3B2C2A225C00B8D7DCD5DDD5DD4D
:100EE000D8D520BFC2C4CD20E2E0E3D1DAD020E7DC
:100EF000D5E0D5D720DAD0D6D4EBD5203235302086
:100F0000E7D0E1DED200DDD0DFDEDCD8DDD0DDD819
:100F1000D500BFDED4DBDED6DAD020DDD520DED1B1
:100F2000DDD0E0E3D6D5DDD000BDD520D2EBDFDECD
:100F3000DBDDD5DDDE00B2EBDFDEDBDDD5DDDE00C7
:100F4000B2E0D5DCEF00C1E2D0E2D8E1E2D8DAD0FD
:100F500000C1E2D0E2D8E1E2D8DAD000C0D5D3E3D4
:100F6000DBD8E0DED2DAD020DFDEDBDED6D5DDD89E
:100F7000EF00B7D0DCD5DDD8E2EC20DDD8E2EC0024
:100F8000BDD5D4DEDFE3E1E2D8DCEBD520E1D8DC6F
:100F9000D2DEDBEB20D220DDD0D7D2D0DDD8D820F6
:100FA000E4D0D9DBD000C3D4D0DBD8E2D520DEE159
:100FB000E2D0E2DAD820E120DFD5E7D0E2DDDED3EF
:100FC000DE20E1E2DEDBD000BFD5E7D0E2EC20DEC0
:100FD000E1E2D0DDDED2DBD5DDD000C0D5D3E3DB6E
:100FE000D8E0DED2DAD020DFDEDBDED6D5DDD8EF0A
:100FF00000B7D0DCD5DDD8E2EC20DDD8E2EC00C0D3
:10100000D5D3E3DBD8E0DED2DAD020DFDEDBDED6FC
:10101000D5DDD8EF00B2E1E2D0D2D8E2EC20DDD8C5
:10102000E2EC00C0D5D3E3DBD8E0DED2DAD020DFBB
:10103000DEDBDED6D5DDD8EF00C3D4D0DBD8E2ECE2
:1010400020DDD8E2EC00BDD520E3D4D0DBDEE1EC3E
:1010500020DFE0DED8D7D2D5E1E2D820E1E7D8E240
:10106000EBD2D0DDD8D520D4D0DDDDEBE520DE20FD
:10107000E2D5DCDFD5E0D0E2E3E0D500BEE8D8D1B0
:10108000DAD000BED1E9D5D520D2E0D5DCEF00B270
:10109000EBDADB00DED6D8D4D0DDD8EF00C0D5D671
:1010A000D8DC00B2DED7D2E0D0E200BFDED4DED69C
:1010B000D4D8E2D52C20DFDED62E00BDD0D6D0E2AB
:1010C000EC20D4DBEF20D7D0D2D5E0E82E00BDD085
:1010D000D6D0E2EC20D4DBEF20D2DED7D2E0D0E2D3
:1010E000D000BDD0D6D0E2EC20D4DBEF20DDD0E7BD
:1010F000D0DBD000BDD0D6D0E2EC20D4DBEF20DFB7
:10110000E0DED4DEDBD62E00BDD0D6D0E2EC20D49B
:10111000DBEF20DFDED4E2D2D5E0D62E0041DFDFE8
:10112000D0E0D0E2DD2E20E1D1E0DEE100CFD7EB50
:10113000DA00BEE2E0D5D3E3DBD8E02ED7D0D7DEAD
:10114000E000CDDAE0D0DD20E1D5E0D8D80041D212
:10115000E2DED2EBE0D0D2DD2E00BFDED4D4D5E08B
:10116000D6DAD000B2D5E0E1D8EF00D2D5DDE2D8B2
:10117000DBEFE2DEE000C1D2D5E2DED4D8DED4007F
:10118000BFD5E0D5DC2E20DDD020302E3120DCDCB8
:1011900000BFD5E0D5DCD5E1E22E20DDD020312026
:1011A000DCDC00BFD5E0D5DCD5E1E22E20DDD020AF
:1011B000313020DCDC00BFD5E0D5DCD5E1E22E20EB
:1011C000EDDAE1E2E0E3D42E00BFD5E0D5DCD5E1F5
:1011D000E2D8E2EC20DEE1EC205A00BFD5E0D5DC1D
:1011E000D5E1E2D8E2EC20DEE1EC205900BFD5E009
:1011F000D5DCD5E1E2D8E2EC20DEE1EC205800BFFE
:10120000DED4E2D2D5E0D4D8E2EC00BFDED2E2DE1A
:10121000E0D8E2EC20DFDEDFEBE2DAE300B8D7DC97
:10122000D5DDD8E2EC20E1DADEE0DEE1E2EC00B789
:10123000D0DCD5DDD8E2EC20DDD8E2EC00BEE1E286
:10124000D0DDDED2D8E2EC00C3E1E2D0DDDED2D8E0
:10125000E2EC20DFD0E3D7E300B2DED7DED1DDDE83
:10126000D2D8E2EC00B8D7DCD5DDD8E2EC20E2D56C
:10127000DCDFD5E0D0E22E00BFD5E0D5DCD5E1E261
:10128000D8E2EC20DEE1D800CDDBD5DAE2E0DED436
:10129000D22DDBD820B2BABB00CDDBD5DAE2E0DE5E
:1012A000D4D22DDBD820B2BABB00BDD0E1E2E0DE63
:1012B000D9DAD800B4DEDCD0E8DDEFEF00B2EBE045
:1012C000DED2DD2E20DEE1DDDED2D0DDD8D500C3DA
:1012D000E1E2D0DDDED2D8E2EC20DDD8E2EC00C3E2
:1012E000D4D0DBD8E2EC20DDD8E2EC00BFD5E7D0EB
:1012F000E2D0E2EC20E120534400C3E1E2D0DD2E55
:1013000020DAD0E0E2DEE7DAE320534400B8D4D5B7
:10131000E220E3D4D0DBD5DDD8D52C20DDD520D21A
:10132000EBDADBEEE7D0D9E2D520DFE0D8DDE2D59D
:10133000E00041DFDFD0E0D0E2DDEBD920E1D1E019
:10134000DEE100B220E1DBE3E7D0D520DFE0DED450
:10135000DEDBD6D5DDD8EF20D7D0D2DED4E1DAD8A7
:10136000D520D7DDD0E7D5DDD8EF20D1E3D4E3E237
:1013700020D2DEE1E1E2D0DDDED2DBD5DDEB00B272
:10138000DDD8DCD0DDD8D52100B2DEE1E1E2D0DD70
:101390002DE2EC20D7DDD0E7D5DDD8EF3F0041DFEF
:1013A000DFD0E0D0E2DDEBD920E1D1E0DEE100BD2D
:1013B000D0E1DBD0D6D42E20576974626F7820320A
:1013C0002120B5E1DBD820DCDED6DDDE20DFE0D574
:1013D000D4E1E2D0D2D8E2EC2C20E2DE20DCDED672
:1013E000DDDE20D820E1D4D5DBD0E2EC00BFDEDCAE
:1013F000DDD8E2D52C20E7E2DE20EDDAE1E2E0E321
:10140000D4D5E020D820DEE1DDDED2D0DDD8D52075
:10141000D4DEDBD6DDEB20D1EBE2EC20E7D8E1E255
:10142000EBDCD800BDD0E7DDD5DC20DAD0DBD8D1CD
:10143000E0DED2DAE320D4D0E2E7D8DAD020E1202F
:10144000E0D5D3E3DBD8E0DED2DAD820D7D0D7DEC0
:10145000E0D000B4DED1E0DE20DFDED6D0DBDED2AD
:10146000D0E2EC2120BDD0E7DDD5DC20E120DFDEBD
:10147000D4D3DEE2DED2DAD820DFE0D8DDE2D5E078
:10148000D000C0E3E1E1DAD8D900B2EBD1D5E0D8A1
:10149000E2D520EFD7EBDA00BCD0E1E2D5E000BA2C
:1014A000DEDDE2E0DEDBEC20E1D5E0D8D800B8D725
:1014B000DCD5DDD8E2EC20E1DADEE0DEE1E2EC00D2
:1014C000B2E1D520DFE0D0D2D8DBECDDDE3F00B7E3
:1014D000D0D2D5E0E8D5DDDE00BDD8E2EC20D7D013
:1014E000D3E0E3D6D0D5E2E1EF00C3E1E2D0DDDE28
:1014F000D2D8E2EC20DDD8E2EC00B2E1E2D0D2ECCE
:10150000E2D520DDD8E2EC20D820DDD0D6DCD8E250
:10151000D520DADDDEDFDAE320D4DBEF20D5D520FD
:10152000D7D0D3E0E3D7DAD800B8DDE1E2E0E3DA00
:10153000E6D8D800B2EBD1E0DEE100C3D4D0DBD8EE
:10154000E2EC20DDD8E2EC00BDD0D6DCD8E2D5203C
:10155000D820DFDED4DED6D4D8E2D520D2EBDFE34C
:10156000E1DAD020DDD8E2D820D4DBEF20D5D520B9
:10157000E3D4D0DBD5DDD8EF00B8DDE1E2E0E3DA9B
:10158000E6D8D800C2D5DCDFD5E0D0E2E3E0D00079
:10159000C2D5DCDFD5E0D0E2E3E0D000BEE1E2D0AE
:1015A000DDDED2DAD000B7D0DCD5DDD8E2EC20DD4C
:1015B000D8E2EC00BDD0E7D0E2EC20DFE0DEE6D5FB
:1015C000E1E13F00B7D0DCD5DDD8E2EC20DDD8E2A8
:1015D000EC00BEE1E2D0DDDED2D8E2EC00C1DDD825
:1015E000DCD8E2D520D4D5E2D0DBEC20E120DEE16E
:1015F000DDDED2D0DDD8EF00BFD5E7D0E2EC20D7DA
:10160000D0D2D5E0E8D5DDD000BFD0E3D7D000BD43
:10161000D020DFD0E3D7D500BFD0E3D7D000BFD5EF
:10162000E7D0E2EC00C2D5DCDFD5E0D0E2E3E0D0E9
:1016300000B2E1D520DFE0D0D2D8DBECDDDE3F0028
:10164000B7D0D2D5E0E8D5DDDE00BEE2E0D5D3E309
:10165000DBD8E0DED2D0E2EC20D7D0D7DEE000BD90
:10166000D0D6DCD8E2D520D820DEE2E0D5D3E3DB4B
:10167000D8E0E3D9E2D520D7DDD0E7D5DDD8D52035
:10168000E2D0DA2C20E7E2DED1EB20DDD0E1D0D4CD
:10169000DAD020DAD0E1D0DBD0E1EC20E1E2DEDB11
:1016A000D8DAD000B8DDE1E2E0E3DAE6D8D800C06D
:1016B000D0E1E7D5E220DFDBDEE1DADEE1E2D820CF
:1016C000DEE1DDDED2D0DDD8EF00BEE2E0D5D3E34F
:1016D000DBD8E0DED2D0E2EC20D7D0D7DEE000C00D
:1016E000D5D3E3DBD8E0DED2DAD020DFDEDBDED616
:1016F000D5DDD8EF00BEE2E0D5D3E3DBD8E0DED223
:10170000D0E2EC20D7D0D7DEE000C2D5DCDFD5E0D8
:10171000D0E2E3E0D000BDD0E7D0E2EC20DFE0DEB5
:10172000E6D5E1E13F00BEE2E0D5D3E3DBD8E0DE81
:10173000D2D0E2EC20D7D0D7DEE0007777772E62E8
:10174000712E636F6D20737570706F72742E3364B9
:101750004062712E636F6D00BFDED4D4D5E0D6DA5F
:10176000D000B2D5E0E1D8EF00C2D5DCDFD5E0D0C3
:10177000E2E3E0D000C2D5DCDFD5E0D0E2E3E0D0A8
:1017800000CDDAE1E2E0E3D4D5E0202F203120DC07
:10179000DC00CDDAE1E2E0E3D4D5E0202F20302CEC
:1017A0003120DCDC00BEE1EC205A202F203130203B
:1017B000DCDC00BEE1EC205A202F203120DCDC00F4
:1017C000BEE1EC205A202F20302C3120DCDC00BE82
:1017D000E1EC2059202F20313020DCDC00BEE1EC90
:1017E0002059202F203120DCDC00BEE1EC205920E4
:1017F0002F20302C3120DCDC00BEE1EC2058202FE3
:1018000020313020DCDC00BEE1EC2058202F2031DC
:1018100020DCDC00BEE1EC2058202F20302C3120D1
:10182000DCDC00B2EBD1D5E0D8E2D520DEDFE6D8B3
:10183000EE00CDDAE1E2E0E3D42E202F20BFD5E0A8
:10184000D5DC2E20DCDC00B2EBD1D5E0D8E2D5200F
:10185000DEDFE6D8EE00BEE1EC205A202F20BFD517
:10186000E0D5DCD5E1E22E20DCDC00B2EBD1D5E026
:10187000D8E2D520DEDFE6D8EE00BEE1EC2059202C
:101880002F20BFD5E0D5DCD5E1E22E20DCDC00B294
:10189000EBD1D5E0D8E2D520DEDFE6D8EE00BEE120
:1018A000EC2058202F20BFD5E0D5DCD5E1E22E205A
:1018B000DCDC00C2D5DCDFD5E0D0E2E3E0D000C064
:1018C000D0D7DED3E0D5E2EC20EDDAE1E2E0E3D4FC
:1018D000D5E03F00CDDAE1E2E0E3D42E202F20DF97
:1018E000D5E0D5DC2E20DCDC00B2EBD1D5E0D8E2AF
:1018F000D520DEDFE6D8EE00BFD5E0D5DCD5E1E2CD
:10190000D8E2EC20DEE1D800BFDED7D8E6D8EF2061
:10191000DDD520DEDFE0D5D4D5DBD5DDD02C20D25F
:10192000D5E0DDD8E2D5E1EC20D220DDD0E7D0DB78
:10193000DE20D4DBEF20DFE0DED4DEDBD6D5DDD861
:10194000EF00BFD5E0D5D4D2D8DDE3E2EC20DEE174
:10195000D800BDD0E1E2E0DED9DAD800C0D5D3E3CB
:10196000DBD8E0DED2DAD020DFDEDBDED6D5DDD894
:10197000EF00B4DEDCD0E8DDEFEF00C2D5DCDFD570
:10198000E0D0E2E3E0D000BDD0E7D0E2EC20DFE041
:10199000DEE6D5E1E13F00B4DEDCD0E8DDEFEF00CC
:1019A000B2E1D520DFE0D0D2D8DBECDDDE3F00B7FE
:1019B000D0D2D5E0E8D5DDDE00BDD0E1E2E0D0D880
:1019C000D2D0E2EC20E2E0D5E2ECEE20E2DEE7DA93
:1019D000E320D4DE20DFDEEFD2DBD5DDD8EF20DA66
:1019E000E0D0E1DDDED3DE20E6D2D5E2D000B2EBFE
:1019F000E0DED2DDEFE2EC20DEE1DDDED2D0DDD8CC
:101A0000D500BDD0E1E2E0D0D8D2D0E2EC20D2E2E5
:101A1000DEE0E3EE20E2DEE7DAE320D4DE20DFDE04
:101A2000EFD2DBD5DDD8EF20DAE0D0E1DDDED3DEAA
:101A300020E6D2D5E2D000B2EBE0DED2DDEFE2EC80
:101A400020DEE1DDDED2D0DDD8D500BDD0E1E2E0A0
:101A5000D0D8D2D0E2EC20DFD5E0D2E3EE20E2DE37
:101A6000E7DAE320D4DE20DFDEEFD2DBD5DDD8EF0E
:101A700020DAE0D0E1DDDED3DE20E6D2D5E2D00010
:101A8000B2EBE0DED2DDEFE2EC20DEE1DDDED2D053
:101A9000DDD8D500C0D5D3E3DBD8E0DED2DAD02064
:101AA000DFDEDBDED6D5DDD8EF00B4DEDCD0E8DD6E
:101AB000EFEF00C2D5DCDFD5E0D0E2E3E0D000BD3F
:101AC000D0E7D0E2EC20DFE0DEE6D5E1E13F00B296
:101AD000EBE0DED2DDEFE2EC20DEE1DDDED2D0DDD8
:101AE000D8D500B2E1D520DFE0D0D2D8DBECDDDE06
:101AF0003F00B7D0D2D5E0E8D5DDDE00BDD8E2ECBE
:101B000020D7D0D3E0E3D6D0D5E2E1EF00C3E1E2C5
:101B1000D0DDDED2D8E2EC20DDD8E2EC00B2E1E2AA
:101B2000D0D2ECE2D520DDD8E2EC20D820DDD0D632
:101B3000DCD8E2D520DADDDEDFDAE320D4DBEF200B
:101B4000D5D520D7D0D3E0E3D7DAD800B8DDE1E2AD
:101B5000E0E3DAE6D8D800C2D5DCDFD5E0D0E2E3B6
:101B6000E0D000C2D5DCDFD5E0D0E2E3E0D000C0B9
:101B7000D5D3E3DBD8E0DED2DAD020DFDEDBDED681
:101B8000D5DDD8EF00B2E1E2D0D2D8E2EC20DDD84A
:101B9000E2EC00BDD0E7D0E2EC20DFE0DEE6D5E10C
:101BA000E13F00C3E1E2D0DDDED2D8E2EC20DDD8B7
:101BB000E2EC00B2E1D520DFE0D0D2D8DBECDDDE14
:101BC0003F00B7D0D2D5E0E8D5DDDE00B2EBD1E002
:101BD000DEE100C3D4D0DBD8E2EC20DDD8E2EC00BB
:101BE000BDD0D6DCD8E2D520D820DFDED4DED6D4F6
:101BF000D8E2D520D2EBDFE3E1DAD020DDD8E2D89D
:101C000020D4DBEF20D5D520E3D4D0DBD5DDD8EF51
:101C100000B8DDE1E2E0E3DAE6D8D800C2D5DCDFE7
:101C2000D5E0D0E2E3E0D000C2D5DCDFD5E0D0E201
:101C3000E3E0D000C0D5D3E3DBD8E0DED2DAD020B9
:101C4000DFDEDBDED6D5DDD8EF00C3D4D0DBD8E2D3
:101C5000EC20DDD8E2EC00BDD0E7D0E2EC20DFE004
:101C6000DEE6D5E1E13F00C3D4D0DBD8E2EC20DDF5
:101C7000D8E2EC00BFE0D5D4EBD4E3E9D0EF20DF2D
:101C8000D0DFDAD000B2DED7D2E0D0E220D220DC42
:101C9000D5DDEE00BFD5E7D0E2D0E2EC20D0E0E524
:101CA000D8D23F00BFD5E7D0E2D0E2EC20E120530C
:101CB0004400B7D0D1DBDEDAD8E0DED22E00C3D4C8
:101CC000D5E0D6D8D2D0E2EC20D4DBEF20E0D0D7DC
:101CD000D1DBDEDA2E20DFE0D8DDE2D5E0D0004136
:101CE000D2D0E0D8D9DD2E20DEE1E2D0DD2E20D228
:101CF000DADB2E00C46E64726120505446452072B7
:101D0000F672657420766172203235302074696D08
:101D10006D61720050E56D696E6E656C73650042B1
:101D2000796767706C617474616E20696E74652088
:101D30006964656E7469666965726174004D697382
:101D4000736C79636B616465004176736C75746163
:101D50006465005469640053746174697374696BD9
:101D60000053746174697374696B004A75737465A8
:101D7000726172206CE46765004279746120666963
:101D80006C616D656E74004E616D6E657420696E78
:101D90006E6568E56C6C6572206F67696C74696765
:101DA00061207465636B656E00546120626F7274AC
:101DB000207265737465726E61206672E56E2070C4
:101DC0006C617474616E005574736B726966742013
:101DD00073746F70706164004A75737465726172B8
:101DE00020706F736974696F6E656E0042797461FB
:101DF0002066696C616D656E74004A7573746572F6
:101E0000617220706F736974696F6E656E0053E460
:101E100074746120696E2066696C616D656E740012
:101E20004A7573746572617220706F736974696F3B
:101E30006E656E00546120626F72742066696C6119
:101E40006D656E740046656C20692074656D702E3A
:101E500061766CE4736E2E0046656C00546F74619D
:101E60006C2074696400417600696E616B746976F8
:101E7000004CE467650054696C6C62616B610056EC
:101E8000E46E746100547279636B206F6368206143
:101E900076736C75746100547279636B206F63683C
:101EA00020E574657267E500547279636B206F6397
:101EB000682062F6726A6100547279636B206F6306
:101EC000682062656B72E466746100547279636BBA
:101ED000206F63682062656B72E46674610048E598
:101EE000726420E57465727374E46C6C2E00537038
:101EF00072E56B004A7573742E2066F672736B6A16
:101F000075742E00536BE4726D73657269650053CE
:101F10006AE46C766E6976656C6C65722E0053753A
:101F200070706F72740056657273696F6E00466CE4
:101F3000E46B74004C6A757300466C7974746120AC
:101F4000302C31206D6D00466C7974746120312025
:101F50006D6D00466C79747461203130206D6D00B8
:101F6000466C79747461206578747275646572006A
:101F7000466C79747461205A2D6178656C00466CEA
:101F80007974746120592D6178656C00466C7974A0
:101F9000746120582D6178656C0042656B72E4664F
:101FA00074610046F67273F66B206967656E00C453
:101FB0006E64726120686173746967686574004259
:101FC0007974612066696C616D656E740053746F1D
:101FD00070706100506175736100C57465727570D1
:101FE00070746100C46E6472612074656D70657296
:101FF0006174757200466C797474612061786C61EB
:1020000072004D6F746F726572204156004D6F748F
:102010006F7265722050C500496E7374E46C6C6E0B
:10202000696E676172005374617274004E697665FF
:102030006C6C6572612062796767706C2E0053E486
:1020400074746120696E2066696C616D656E7400E0
:10205000546120626F72742066696C616D656E7484
:1020600000536B726976207574206672E56E20539A
:10207000440053E4747420696E2053442D6B6F72D6
:1020800074657400526164657261722C207374E42B
:102090006E6720696E746520617620736B72697655
:1020A0006172656E0048E5726420E5746572737450
:1020B000E46C6C6E696E67004F6D20647520666F0E
:1020C000727473E474746572206B6F6D6D65722049
:1020D00066616272696B73696E7374E46C6C6E2E08
:1020E0002061747420E57465727374E46C6C6173C0
:1020F000005661726E696E672100C57465727374F3
:10210000E46C6C612076E47264656E3F0048E572B1
:102110006420E57465727374E46C6C6E696E6700BC
:10212000486120726F6C696774206D656420646912
:102130006E20576974626F78203221204F6D2064C1
:1021400075206B616E2066F672657374E46C6C6169
:102150002064696720646574206B616E206475205B
:1021600067F67261206465742E004B6F6D2069689C
:10217000E567206174742068E56C6C612065787493
:1021800072756465726E206F63682062796767702C
:102190006C617474616E2066726961206672E56EAE
:1021A00020736D7574730056692062F6726A6172ED
:1021B000206D656420617474206B616C6962726566
:1021C00072612073656E736F726E2067656E6F6DDE
:1021D00020617474206A7573746572612066F6728A
:1021E000736B6A75746E696E67656E0056E46C6B2E
:1021F0006F6D6D656E21204CE574206F73732066E2
:10220000F67262657265646120736B7269766172E1
:10221000656E005376656E736B610056E46C6A20E0
:10222000737072E56B004775696465004B6F6E747F
:10223000726F6C6C736572696500C46E6472612044
:1022400068617374696768657400C47220616C6C3E
:1022500074206F6B3F004B6C6172004C6164646171
:10226000722066696C616D656E740053E47474610C
:1022700020696E2066696C616D656E740046F67249
:1022800020696E2066696C616D656E746574206F7F
:10229000636820747279636B2070E5206B6E6170E7
:1022A00070656E2066F67220617474206C616464DF
:1022B000612064657400496E737472756B74696F24
:1022C0006E6572004D6174617220757400546120F6
:1022D000626F72742066696C616D656E74004B6C20
:1022E00069636B61206F63682076E46E74612074AB
:1022F000696C6C732066696C616D656E74657420C1
:102300006D617461732075742066F6722061747457
:1023100020746120626F72742064657400496E736A
:102320007472756B74696F6E65720054656D70655B
:1023300072617475720054656D7065726174757246
:102340000050617573617200427974612066696C36
:10235000616D656E74005374617274612070726F88
:1023600063657373656E3F00427974612066696CC2
:10237000616D656E740053746F70706100546120FC
:10238000626F72742064656C656E206672E56E2003
:1023900062796767706C617474616E005574736BF9
:1023A00072696674656E20E472206B6C6172005015
:1023B0006175736172004920706175736CE46765C3
:1023C000005061757300536B726976657220757485
:1023D0000054656D7065726174757200C47220611D
:1023E0006C6C74206F6B3F004B6C6172004A7573AC
:1023F000746572612066F672736B6A75746E696ECD
:1024000067004B6C69636B61206F6368206A75734A
:10241000746572612076E4726465742074696C6C12
:1024200073206D756E737479636B6574207669645F
:1024300072F6722062796767706C617474616E0005
:10244000496E737472756B74696F6E657200426564
:1024500072E46B6E61722062796767706C6174748C
:10246000616E7320706C616E004A75737465726181
:102470002066F672736B6A75746E696E67004A75D2
:10248000737465726172206CE46765004A757374D9
:102490006572612066F672736B6A75746E696E6739
:1024A0000054656D70657261747572005374617269
:1024B00074612070726F63657373656E3F004A7557
:1024C00073746572612066F672736B6A75746E69F7
:1024D0006E67007777772E62712E636F6D2073754C
:1024E00070706F72742E33642E73764062712E6337
:1024F0006F6D00537570706F7274005665727369FA
:102500006F6E0054656D706572617475720054650C
:102510006D7065726174757200457874727564656A
:10252000722F31206D6D0045787472756465722F5D
:10253000302C31206D6D005A2D6178656C2F313053
:10254000206D6D005A2D6178656C2F31206D6D0006
:102550005A2D6178656C2F302C31206D6D00592D0E
:102560006178656C2F3130206D6D00592D61786573
:102570006C2F31206D6D00592D6178656C2F302CDA
:1025800031206D6D00582D6178656C2F3130206DD4
:102590006D00582D6178656C2F31206D6D00582DC0
:1025A0006178656C2F302C31206D6D0056E46C6ABB
:1025B00020616C7465726E6174697600457874721E
:1025C000756465722F466C79747461206D6D005668
:1025D000E46C6A20616C7465726E61746976005A8D
:1025E0002D6178656C2F466C79747461206D6D0077
:1025F00056E46C6A20616C7465726E617469760071
:10260000592D6178656C2F466C79747461206D6DFD
:102610000056E46C6A20616C7465726E6174697650
:1026200000582D6178656C2F466C79747461206D4B
:102630006D0054656D706572617475720056E47258
:102640006D61207570702065787472756465723F75
:102650000045787472756465722F466C7974746184
:10266000206D6D0056E46C6A20616C7465726E6159
:1026700074697600466C797474612061786C61725B
:1026800000506F736974696F6E656E20E472206923
:102690006E7465206BE46E642C2067F67220656EA4
:1026A000206F6D73746172742066F67220617474A9
:1026B00020666F727473E474746100466C7974748C
:1026C000612061786C617200496E7374E46C6C6EA9
:1026D000696E676172004A75737465726172206C0D
:1026E000E467650053746172740054656D706572BF
:1026F00061747572005374617274612070726F63DB
:10270000657373656E3F00537461727400C4722008
:10271000616C6C74206F6B3F004B6C6172004A758A
:1027200073746572612064656E20747265646A6595
:102730002070756E6B74656E2074696C6C732064A8
:10274000656E2072F66461206C616D70616E20743C
:10275000E46E6473004E6976656C6C65726120622C
:10276000796767706C61747461004A75737465721F
:10277000612064656E20616E6472612070756E6B9D
:1027800074656E2074696C6C732064656E2072F6DB
:102790006461206C616D70616E2074E46E6473001E
:1027A0004E6976656C6C6572612062796767706CE2
:1027B00061747461004A7573746572612064656E3A
:1027C0002066F6727374612070756E6B74656E208E
:1027D00074696C6C732064656E2072F66461206CA1
:1027E000616D70616E2074E46E6473004E6976658D
:1027F0006C6C6572612062796767706C617474617A
:10280000004A75737465726172206CE467650053E9
:10281000746172740054656D7065726174757200D4
:102820005374617274612070726F63657373656E47
:102830003F004E6976656C6C6572612062796767EE
:10284000706C6174746100C47220616C6C74206F70
:102850006B3F004B6C6172004C6164646172206676
:10286000696C616D656E740053E474746120696E07
:102870002066696C616D656E740046F67220696E43
:102880002066696C616D656E746574206F63682085
:10289000747279636B2070E5206B6E617070656E89
:1028A0002066F67220617474206D61746120667216
:1028B000616D2064657400496E737472756B746920
:1028C0006F6E65720054656D70657261747572002B
:1028D00054656D70657261747572004A75737465C4
:1028E00072617220706F736974696F6E656E0053E8
:1028F000E474746120696E2066696C616D656E7444
:10290000005374617274612070726F6365737365D4
:102910006E3F0053E474746120696E2066696C61D7
:102920006D656E7400C47220616C6C74206F6B3FB7
:10293000004B6C6172004D617461722075740054BB
:102940006120626F72742066696C616D656E7400DF
:102950004B6C69636B61206F63682076E46E746111
:102960002074696C6C732066696C616D656E74654A
:1029700074206D617461732075742066F672206135
:10298000747420746120626F7274206465740049ED
:102990006E737472756B74696F6E65720054656DD9
:1029A000706572617475720054656D7065726174E2
:1029B0007572004A7573746572617220706F736905
:1029C00074696F6E656E00546120626F7274206668
:1029D000696C616D656E740053746172746120700E
:1029E000726F63657373656E3F00546120626F722E
:1029F000742066696C616D656E740046F672656779
:102A0000E5656E6465206D6170700054696C6C6280
:102A1000616B612074696C6C206D656E796E00531A
:102A20006B726976612075742066696C3F00536B28
:102A300072697661207574206672E56E20534400D9
:102A4000426C6F636B657261640048E56C6C206E6C
:102A50006564747279636B742066F67220617474B5
:102A6000206CE573612075707020736B72697661FC
:102A700072656E004EF66473746F707020E472209D
:102A8000616B7469760043616D62696120696C20D5
:102A90007475626F2050544645206F676E6920320E
:102AA0003530206F72650050726F6D656D6F7269A1
:102AB00061005069616E6F206E6F6E2072696C6587
:102AC0007661746F004E6F6E2072697573636974FE
:102AD0006900436F6D706C65746174690054656D55
:102AE000706F00537461746973746963686500532F
:102AF00074617469737469636865005265676F6CAB
:102B0000617A696F6E6520706F73697A696F6E653F
:102B100020696E20636F72736F0043616D6269613B
:102B200072652066696C616D656E746F004E6F6DC5
:102B30006520636F6E2063617261747465726920D1
:102B40006E6F6E2076616C69646900526974697297
:102B500061726520692072657369647569206461BA
:102B60006C207069616E6F005374616D70612061DB
:102B70007272657374617461005265676F6C617A1B
:102B80002E20706F73697A696F6E650043616D62A4
:102B9000696172652066696C616D656E746F005263
:102BA00065676F6C617A2E20706F73697A696F6EDA
:102BB0006500496E7365726972652066696C616D46
:102BC000656E746F005265676F6C617A2E20706F4E
:102BD00073697A696F6E65005269746972617265B2
:102BE0002066696C616D656E746F004572726F72FC
:102BF00065206469206C6574747572612064656C0D
:102C00006C612074656D70657261747572610045E8
:102C100072726F72650054656D706F20746F7461AD
:102C20006C65004F666600696E6174746976610058
:102C30004D6F64616C6974E000546F726E610041A5
:102C40007474656E646572652C20707265676F00C0
:102C50005072656D6920706572207465726D696E61
:102C6000617265005072656D692070657220746FC5
:102C7000726E617265005072656D692070657220B8
:102C8000696E697A696165005072656D6920706569
:102C90007220636F6E74696E756172650050726543
:102CA0006D692070657220636F6E6665726D61720A
:102CB000650048617264205265736574004C696EEA
:102CC000677561005265676F6C617265206F66663B
:102CD0007365740053636865726D6F207365726904
:102CE00065004175746F6C6976656C6C616D2E0062
:102CF000537570706F72746F0056657273696F6E82
:102D0000650056656E746F6C61004C7563650053A9
:102D1000706F737461726520302C316D6D0053706B
:102D20006F737461726520316D6D0053706F7374D1
:102D30006172652031306D6D0053706F7374617214
:102D400065206573747275736F72650053706F736D
:102D5000746172652061737365205A0053706F73DC
:102D600074617265206173736520590053706F73CD
:102D7000746172652061737365205800436F6E66DD
:102D800065726D61726500526970726F766172650D
:102D90000043616D62696172652076656C6F63697D
:102DA00074E00043616D62696172652066696C61FF
:102DB0006D656E746F004665726D617265004D657C
:102DC000747465726520696E20706175736100525C
:102DD000696174746163636172650043616D626906
:102DE0006172652074656D70657261742E00537038
:102DF0006F73746172652061737369004D6F746FD6
:102E00007269204F4646004D6F746F7269204F4EB5
:102E1000005265676F6C617A696F6E6900486F6D0B
:102E200065004C6976656C6C6172652062617365E2
:102E300000496E7365726972652066696C616D65C3
:102E40006E746F0052697469726172652066696C94
:102E5000616D656E746F005374616D706172652091
:102E6000646120534400496E73657269736369201D
:102E70007363686564612053440043616E63656CED
:102E80006C616E646F2C206E6F6E20737065676E60
:102E9000657265206C61207374616D70616E74651C
:102EA0000048617264205265736574005365207335
:102EB0006920636F6E74696E75612C20766572721D
:102EC000616E6E6F2072697072697374696E61747D
:102ED0006920692076616C6F72692064692066617F
:102EE00062627269636100417474656E7A696F6EC3
:102EF00065210052697072697374696E6172652030
:102F000076616C6F72693F0048617264205265732C
:102F1000657400476F64697469206C612074756121
:102F200020576974626F78203221205365207269BE
:102F300065736369206120696D6D6167696E617297
:102F40006C6F2C2070756F69206661726C6F005217
:102F500069636F726461206469206D616E74656E6F
:102F6000657265206C276573747275736F72652066
:102F700065206C612062617365206C6962657269AD
:102F8000206461207265736964756900436F6D69BF
:102F90006E6369616D6F2063616C696272616E64FA
:102FA0006F20696C2073656E736F72652065207287
:102FB00065676F6C616E646F206C276F6666736502
:102FC000740042656E76656E7574692120436F6D7D
:102FD000696E6369616D6F206120707265706172E6
:102FE000617265206C61207374616D70616E7465CF
:102FF000004974616C69616E6F0053656C657A6934
:103000006F6E61206C696E6775610057697A6172D5
:103010006400436F6E74726F6C6C6F2073657269BD
:10302000650043616D62696172652076656C6F63EE
:103030006974E000547574746F2062656E653F00BA
:103040005465726D696E61746F004361726963618A
:103050006D656E746F2064656C2066696C616D656A
:103060006E746F20696E20636F72736F00496E73A8
:103070006572697363692066696C616D656E746FF2
:1030800000496E7365726973636920696C206669B3
:103090006C616D656E746F2065207072656D69205E
:1030A000696C2070756C73616E7465207065722038
:1030B000636172696361726C6F0049737472757ACF
:1030C000696F6E6900457370756C73696F6E65002A
:1030D00052697469726172652066696C616D656EB2
:1030E000746F005072656D69206520617474656E3F
:1030F0006469206C27657370756C73696F6E6520E9
:1031000064656C2066696C616D656E746F207065B6
:103110007220726974697261726C6F0049737472A3
:10312000757A696F6E690054656D7065726174754A
:1031300072610054656D70657261747572610050E2
:10314000617573610043616D6269617265206669D2
:103150006C616D656E746F00417676696172652091
:1031600070726F636573736F3F0043616D62696175
:1031700072652066696C616D656E746F004665727C
:103180006D6172650052697469726120696C2070AA
:10319000657A7A6F2064616C6C612062617365008E
:1031A0005374616D7061207465726D696E617461D4
:1031B00000506175736100496E2070617573610024
:1031C0005061757361005374616D70610054656D79
:1031D000706572617475726100547574746F2062E9
:1031E000656E653F005465726D696E61746F005263
:1031F00065676F6C617265206F66667365740050F9
:1032000072656D692065206D6F6469666963612010
:10321000696C2076616C6F72652066696E6368E91F
:10322000206C277567656C6C6F206E6F6E20746FF5
:10323000636361206C61206261736500497374721D
:10324000757A696F6E690043616C636F6C6F20649F
:10325000656C207069616E6F2064692062617365BE
:1032600020696E20636F72736F005265676F6C61C7
:103270007265206F6666736574005265676F6C6176
:103280007A696F6E6520706F73697A696F6E6520F9
:10329000696E20636F72736F005265676F6C617245
:1032A00065206F66667365740054656D7065726144
:1032B0007475726100417676696172652070726F13
:1032C000636573736F3F005265676F6C6172652051
:1032D0006F6666736574007777772E62712E636F01
:1032E0006D20737570706F72742E33642E69744024
:1032F00062712E636F6D00537570706F72746F0022
:1033000056657273696F6E650054656D70657261A4
:10331000747572610054656D706572617475726167
:10332000004573747275736F7265202F2031206DA4
:103330006D004573747275736F7265202F20302C89
:1033400031206D6D0041737365205A202F2031307C
:10335000206D6D0041737365205A202F2031206D40
:103360006D0041737365205A202F20302C31206D61
:103370006D00417373652059202F203130206D6D11
:1033800000417373652059202F2031206D6D00415D
:103390007373652059202F20302C31206D6D004132
:1033A0007373652058202F203130206D6D004173DC
:1033B00073652058202F2031206D6D004173736597
:1033C0002058202F20302C31206D6D0053656C6506
:1033D0007A696F6E61206F707A696F6E65004573F0
:1033E000747275732E2F53706F7374617265206DD4
:1033F0006D0053656C657A696F6E61206F707A69D4
:103400006F6E650041737365205A202F2053706FD3
:103410007374617265206D6D0053656C657A696FB8
:103420006E61206F707A696F6E65004173736520FD
:1034300059202F2053706F7374617265206D6D0079
:1034400053656C657A696F6E61206F707A696F6E13
:103450006500417373652058202F2053706F73747B
:10346000617265206D6D0054656D70657261747573
:1034700072610052697363616C6461726520657387
:10348000747275732E3F004573747275732E2F53CB
:10349000706F7374617265206D6D0053656C657A31
:1034A000696F6E61206F707A696F6E650053706F1F
:1034B000737461206173736900506F73697A696F07
:1034C0006E652073636F6E6F7363697574612C2012
:1034D000746F726E61206120686F6D652070657217
:1034E00020636F6E74696E756172650053706F73DF
:1034F000746172652061737369005265676F6C61F6
:103500007A696F6E69005265676F6C617A696F6E78
:103510006520706F73697A696F6E6520696E2063CC
:103520006F72736F00486F6D650054656D706572E2
:10353000617475726100417676696172652070729E
:103540006F636573736F3F00486F6D6500547574EA
:10355000746F2062656E653F005465726D696E61BF
:10356000746F005265676F6C6120696C20746572BE
:103570007A6F2070756E746F2066696E6F2061209F
:10358000636865206E6F6E20736920616363656E8A
:103590006465206C61206C75636520726F73736164
:1035A000004C6976656C6C617265206261736500C0
:1035B0005265676F6C6120696C207365636F6E6420
:1035C0006F2070756E746F2066696E6F2061206366
:1035D0006865206E6F6E20736920616363656E6439
:1035E00065206C61206C75636520726F7373610078
:1035F0004C6976656C6C617265206261736500521E
:1036000065676F6C6120696C207072696D6F2070E6
:10361000756E746F2066696E6F2061206368652027
:103620006E6F6E20736920616363656E6465206CE4
:1036300061206C75636520726F737361004C6976ED
:10364000656C6C6172652062617365005265676FBD
:103650006C617A696F6E6520706F73697A696F6EDD
:103660006520696E20636F72736F00486F6D65002F
:1036700054656D706572617475726100417676692A
:103680006172652070726F636573736F3F004C6980
:1036900076656C6C61726520626173650054757447
:1036A000746F2062656E653F005465726D696E616E
:1036B000746F004361726963616D656E746F20643D
:1036C000656C2066696C616D656E746F20696E2033
:1036D000636F72736F00496E7365726972652066FD
:1036E000696C616D656E746F00496E7365726973A4
:1036F000636920696C2066696C616D656E746F200A
:1037000065207072656D6920696C2070756C7361DD
:103710006E74652070657220636172696361726C9A
:103720006F0049737472757A696F6E690054656DC4
:1037300070657261747572610054656D7065726157
:1037400074757261005265676F6C617A2E20706FBC
:1037500073697A696F6E6500496E73657269726527
:103760002066696C616D656E746F00417676696183
:1037700072652070726F636573736F3F00496E737B
:1037800065726972652066696C616D656E746F0043
:10379000547574746F2062656E653F005465726D78
:1037A000696E61746F00457370756C73696F6E65D7
:1037B0000052697469726172652066696C616D6539
:1037C0006E746F005072656D692065206174746558
:1037D0006E6469206C27657370756C73696F6E65B4
:1037E0002064656C2066696C616D656E746F207015
:1037F000657220726974697261726C6F00497374CA
:1038000072757A696F6E690054656D706572617466
:103810007572610054656D706572617475726100D6
:103820005265676F6C617A2E20706F73697A696F69
:103830006E650052697469726172652066696C61B7
:103840006D656E746F004176766961726520707285
:103850006F636573736F3F0052697469726172655B
:103860002066696C616D656E746F0043617274658A
:103870006C6C6120707265636564656E746500547C
:103880006F726E61726520616C206D656E7500539C
:1038900074616D706172652066696C653F00537478
:1038A000616D7061726520646120534400426C6FE9
:1038B000636361746F004D616E7469656E69207039
:1038C00072656D75746F207065722073626C6F63C2
:1038D00063617265206C61207374616D70616E74D8
:1038E00065004172722E20456D6572672E2041740D
:1038F0007469766F00537562737469747561206FB3
:10390000207475626F2050544645206120636164C5
:10391000612032353020686F726173004C656D62D2
:10392000726574650042617365206EE36F206465A3
:103930007465746164610046616C68616461730000
:10394000436F6E636C75ED6461730054656D706FE9
:10395000004573746174ED7374696361730045733A
:10396000746174ED737469636173004120616A75F9
:103970007374617220706F7369E7E36F004D756453
:1039800061722066696C616D656E746F004361726F
:1039900061746572657320696E76E16C69646F733A
:1039A000206E6F206E6F6D650052657469726520C0
:1039B0006F7320726573ED64756F732064612062AC
:1039C00061736500496D7072657373E36F20656D97
:1039D000207061757361004120616A757374617252
:1039E00020706F7369E7E36F004D75646172206644
:1039F000696C616D656E746F004120616A757374E6
:103A0000617220706F7369E7E36F00496E736572CE
:103A100069722066696C616D656E746F004120612A
:103A20006A757374617220706F7369E7E36F005297
:103A30006574697261722066696C616D656E746F20
:103A40000046616C6861206E61206C6569747572F6
:103A5000612064612074656D706572617475726156
:103A6000004572726F0054656D706F20746F7461E1
:103A70006C004465736C6967617200696E6174699A
:103A8000766F004D6F646F00566F6C7461720050FA
:103A90006F72206661766F722C2061677561726447
:103AA00065005072656D6972207061726120746585
:103AB000726D696E6172005072656D69722070611D
:103AC000726120766F6C746172005072656D6972FC
:103AD000207061726120636F6D65E76172005072E2
:103AE000656D697220702F20636F6E74696E7561E9
:103AF00072005072656D697220702F20636F6E6660
:103B000069726D61720048617264205265736574F8
:103B1000004964696F6D6100416A75737461722058
:103B20006F666673657400456372E32073E97269BA
:103B300065004175746F6E6976656C616D656E7454
:103B40006F005375706F7274650056657273E36F22
:103B50000056656E746F696E6861004C757A00443A
:103B600065736C6F63617220302C31206D6D004481
:103B700065736C6F6361722031206D6D00446573F5
:103B80006C6F636172203130206D6D004465736C21
:103B90006F636172206578747275736F726100442F
:103BA00065736C6F636172206569786F205A004499
:103BB00065736C6F636172206569786F205900448A
:103BC00065736C6F636172206569786F205800437C
:103BD0006F6E6669726D61720054656E74617220F9
:103BE0006465206E6F766F004D7564617220766536
:103BF0006C6F636964616465004D75646172206611
:103C0000696C616D656E746F005061726172004322
:103C10006F6C6F63617220656D20706175736100F8
:103C20005265746F6D6172004D75646172207465C8
:103C30006D7065726174757261004465736C6F6359
:103C40006172206569786F73004D6F746F72657370
:103C5000204F4646004D6F746F726573204F4E00C3
:103C6000446566696E69E7F5657300496EED6369E1
:103C70006F004E6976656C61722062617365004900
:103C80006E73657269722066696C616D656E746FC2
:103C900000526574697261722066696C616D656E4F
:103CA000746F00496D7072696D697220646F205382
:103CB0004400496E73657269722063617274E36FC8
:103CC0002053440041206170616761722C206EE3D3
:103CD0006F206465736C69677565206120696D701C
:103CE0007265736F7261004861726420526573651A
:103CF0007400536520636F6E74696E756172207312
:103D00006572E36F20726573706F73746F73206FE9
:103D1000732076616C6F7265732064652066E16262
:103D200072696361004174656EE7E36F210052655B
:103D3000706F722076616C6F7265733F00486172BC
:103D400064205265736574004465736672757465AA
:103D50002064612073756120576974626F78203226
:103D60002120536520636F6E7365677569722069E2
:103D70006D6167696E61722C20706F646520666189
:103D80007AEA2D6C6F004C656D6272652D7365204B
:103D90006465206D616E746572206120657874724F
:103DA00075736F7261206520612062617365207395
:103DB000656D20726573ED64756F7300436F6D659B
:103DC00063656D6F7320706F722063616C696272DE
:103DD0006172206F2073656E736F7220616A7573F4
:103DE00074616E646F206F206F6666736574004245
:103DF000656D2D76696E646F212056616D6F73203D
:103E0000636F6D65E7617220612070726570617229
:103E10006172206120696D70726573736F726100E9
:103E2000506F7274756775EA730053656C656369EA
:103E30006F6E65206964696F6D610057697A6172A0
:103E40006400436F6E74726F6C6F2073E972696502
:103E5000004D756461722076656C6F63696461649E
:103E600065005475646F20636F727265746F3F00F4
:103E7000436F6E636C75ED646F0041206361727215
:103E800065676172206F2066696C616D656E746F25
:103E900000496E73657269722066696C616D656E4A
:103EA000746F00496E74726F64757A61206F20665A
:103EB000696C616D656E746F2065207072696D61EB
:103EC000206F20626F74E36F207061726120636104
:103ED00072726567E12D6C6F00496E73747275E7DD
:103EE000F56573004120657870756C7361720052DE
:103EF0006574697261722066696C616D656E746F5C
:103F00000043617272656775652065206167756140
:103F100072646520717565206F2066696C616D65DE
:103F20006E746F2073656A6120657870756C73615B
:103F3000646F2070617261207265746972E12D6C2A
:103F40006F00496E73747275E7F565730054656DA3
:103F500070657261747572610054656D706572612F
:103F600074757261004120706175736172004D75E6
:103F70006461722066696C616D656E746F00496E74
:103F800069636961722070726F636573736F3F005C
:103F90004D756461722066696C616D656E746F0049
:103FA000506172617200526574697265206120709F
:103FB00065E761206461206261736500496D70721C
:103FC000657373E36F20636F6E636C75ED646100FE
:103FD000456D20706175736100456D20706175736A
:103FE00061005061757361004120696D7072696D87
:103FF00069720054656D7065726174757261005408
:1040000075646F20636F727265746F3F00436F6EEB
:10401000636C75ED646F00416A7573746172206F33
:104020006666736574005072696D61206520616A0F
:1040300075737465206F2076616C6F72206174E90E
:10404000206120626F7175696C686120746F6361B3
:10405000722061206261736500496E73747275E746
:10406000F5657300412063616C63756C6172206F4C
:1040700020706C616E6F2064612062617365004125
:104080006A7573746172206F66667365740041208F
:10409000616A757374617220706F7369E7E36F0012
:1040A000416A7573746172206F666673657400543B
:1040B000656D706572617475726100496E696369DE
:1040C00061722070726F636573736F3F00416A7530
:1040D00073746172206F6666736574007777772EEC
:1040E00062712E636F6D20737570706F72742E33F2
:1040F000642E70744062712E636F6D005375706F23
:104100007274650056657273E36F0054656D706577
:104110007261747572610054656D70657261747559
:104120007261004578747275736F7261202F20314F
:10413000206D6D004578747275736F7261202F2049
:10414000302C31206D6D004569786F205A202F206A
:104150003130206D6D004569786F205A202F203155
:10416000206D6D004569786F205A202F20302C314A
:10417000206D6D004569786F2059202F2031302047
:104180006D6D004569786F2059202F2031206D6DAD
:10419000004569786F2059202F20302C31206D6D1B
:1041A000004569786F2058202F203130206D6D0038
:1041B0004569786F2058202F2031206D6D004569AA
:1041C000786F2058202F20302C31206D6D005365E2
:1041D0006C6563696F6E65206F70E7E36F0045780B
:1041E000747275732E202F204465736C6F632E20BC
:1041F0006D6D0053656C6563696F6E65206F70E768
:10420000E36F004569786F205A202F204465736C56
:104210006F636172206D6D0053656C6563696F6ECD
:1042200065206F70E7E36F004569786F2059202F94
:10423000204465736C6F636172206D6D0053656C13
:104240006563696F6E65206F70E7E36F004569789D
:104250006F2058202F204465736C6F636172206D4E
:104260006D0054656D7065726174757261004171A5
:104270007565636572206578747275736F72613FDE
:10428000004578747275732E202F204465736C6F0F
:10429000632E206D6D0053656C6563696F6E6520DC
:1042A0006F70E7E36F004465736C6F636172206544
:1042B00069786F73004E6F20736520636F6E686559
:1042C0006365206120706F7369E7E36F2C2072656E
:1042D000616C697A6520686F6D652070617261201C
:1042E000636F6E74696E756172004465736C6F63A1
:1042F0006172206569786F7300446566696E69E76D
:10430000F56573004120616A757374617220706F86
:104310007369E7E36F00496EED63696F0054656D83
:10432000706572617475726100496E69636961726A
:104330002070726F636573736F3F00496EED636940
:104340006F005475646F20636F727265746F3F0005
:10435000436F6E636C75ED646F00416A75737465CD
:10436000206F20746572636569726F20706F6E7460
:104370006F206174E9207365206163656E64657206
:104380002061206C757A207665726D656C686100BD
:104390004E6976656C6172206261736500416A7571
:1043A000737465206F20736567756E646F20706F1E
:1043B0006E746F206174E9207365206163656E64BB
:1043C00065722061206C757A207665726D656C6807
:1043D00061004E6976656C617220626173650041AF
:1043E0006A75737465206F207072696D6569726F8C
:1043F00020706F6E746F206174E9207365206163B3
:10440000656E6465722061206C757A207665726DC8
:10441000656C6861004E6976656C617220626173DB
:1044200065004120616A757374617220706F7369F1
:10443000E7E36F00496EED63696F0054656D706569
:1044400072617475726100496E696369617220708E
:10445000726F636573736F3F004E6976656C61724E
:104460002062617365005475646F20636F727265BA
:10447000746F3F00436F6E636C75ED646F00412095
:104480006361727265676172206F2066696C616D2D
:10449000656E746F00496E73657269722066696C2F
:1044A000616D656E746F00496E74726F64757A61C8
:1044B000206F2066696C616D656E746F2065207079
:1044C00072696D61206F20626F74E36F207061729A
:1044D0006120636172726567E12D6C6F00496E73D4
:1044E000747275E7F565730054656D70657261747B
:1044F0007572610054656D706572617475726100EA
:104500004120616A757374617220706F7369E7E3AB
:104510006F00496E73657269722066696C616D65C2
:104520006E746F00496E69636961722070726F63A7
:104530006573736F3F00496E7365726972206669B7
:104540006C616D656E746F005475646F20636F727B
:104550007265746F3F00436F6E636C75ED646F003E
:104560004120657870756C73617200526574697270
:1045700061722066696C616D656E746F0043617273
:104580007265677565206520616775617264652075
:10459000717565206F2066696C616D656E746F2042
:1045A00073656A6120657870756C7361646F2070E3
:1045B000617261207265746972E12D6C6F00496EE1
:1045C00073747275E7F565730054656D706572619B
:1045D000747572610054656D706572617475726195
:1045E000004120616A757374617220706F7369E7AE
:1045F000E36F00526574697261722066696C616D67
:10460000656E746F00496E69636961722070726FC4
:10461000636573736F3F00526574697261722066DF
:10462000696C616D656E746F0050617374612061B7
:104630006E746572696F7200566F6C74617220617E
:104640006F206D656E7500496D7072696D697220BD
:10465000666963686569726F3F00496D7072696D64
:10466000697220646F20534400426C6F71756561FC
:10467000646F004D616E746572206361727265676C
:1046800061646F207061726120646573626C6F7128
:1046900075656172206120696D70726573736F72E8
:1046A00061005061726167656D20456D6572672EAE
:1046B000204174697661004368616E676572206CA1
:1046C00065207475626520656E20505446452074DF
:1046D0006F75746573206C65732032353020680007
:1046E00052E966E972656E7469656C00506C6174BC
:1046F000656175206E6F6E2064E974656374E9000E
:10470000C963686563730052E9757373697465738F
:104710000054656D7073206427696D70722E0053AC
:10472000746174697374697175657300537461742D
:1047300069737469717565730052E9676C616765C7
:1047400020706F736974696F6E004368616E67658E
:1047500072206C652066696C616D656E74004C65D5
:10476000206E6F6D206475206669636869657220CC
:10477000636F6E7469656E74206465732063617223
:10478000616374E8726573206E6F6E2076616C6988
:10479000646573005265746972657A206C65732074
:1047A00072E9736964757320647520706C61746557
:1047B000617500496D7072657373696F6E20617207
:1047C00072EA74E9650052E9676C61676520706F91
:1047D000736974696F6E004368616E676572206CFF
:1047E000652066696C616D656E740052E9676C6185
:1047F000676520706F736974696F6E00496E73E945
:10480000726572206C652066696C616D656E7400FE
:1048100052E9676C61676520706F736974696F6EC8
:104820000052657469726572206C652066696C61FE
:104830006D656E7400457272657572206C6F72736F
:10484000206465206C61206C6563747572652064FA
:1048500065206C612074656D70E9726174757265B4
:104860000045727265757200447572E96500C9741D
:1048700065696E647265007665696C6C65004D6F84
:104880006465005265746F75720050617469656E7D
:1048900074657A207376700041707075792E20707F
:1048A00072207465726D696E657200417070757901
:1048B0002E20707220726576656E6972004170708C
:1048C00075792E20707220636F6D6D656E636572F1
:1048D0000041707075792E20707220636F6E74695C
:1048E0006E7565720041707075792E20707220634C
:1048F0006F6E6669726D6572004861726420526500
:10490000736574004C616E6775650052E9676C658C
:1049100072204F666673657400C96372616E20739E
:10492000E9726965004175746F2D6E6976656C6C0E
:10493000656D2E00416964650056657273696F6E1E
:104940000056656E74696C6174657572004C756DA6
:1049500069E872650044E9706C6163657220302C0F
:1049600031206D6D0044E9706C6163657220312007
:104970006D6D0044E9706C61636572203130206DAB
:104980006D0044E9706C61636572206578747275BE
:10499000642E0044E9706C61636572206178652063
:1049A0005A0044E9706C6163657220617865205932
:1049B0000044E9706C61636572206178652058007D
:1049C000436F6E6669726D65720052E9657373615B
:1049D000796572004D6F64696669657220766974E5
:1049E00065737365004368616E6765722066696C04
:1049F000616D656E7400417272EA74657200537580
:104A00007370656E6472650052657072656E647273
:104A100065004D6F6469666965722074656D702EFE
:104A20000044E9706C616365722061786573004DC4
:104A30006F74657572732064E9736163746976E9F4
:104A400073004D6F7465757273206163746976E9E4
:104A5000730052E9676C6167657300416363756554
:104A6000696C004E6976656C657220706C61746566
:104A7000617500496E73E97265722066696C616DDB
:104A8000656E7400526574697265722066696C6146
:104A90006D656E7400496D70722E20646570756965
:104AA0007320534400496E73E972657A2063617222
:104AB0007465205344005375707072657373696F29
:104AC0006E20656E20636F7572732C206E6520708A
:104AD000617320E97465696E647265206C27696D85
:104AE0007072696D616E7465004861726420526510
:104AF00073657400536920766F757320636F6E74ED
:104B0000696E75657A2C206C65732076616C6575AD
:104B100072732064277573696E65207365726F6E9A
:104B2000742072657374617572E965732E00417447
:104B300074656E74696F6E2100526573746175726D
:104B400065722076616C657572733F0048617264AE
:104B500020526573657400566F757320EA7465732F
:104B6000207072EA7420E0207574696C6973657254
:104B700020766F74726520576974626F7820322EC8
:104B800020496D7072696D657A20746F75746573F4
:104B900020766F73206964E9657321004E276F7575
:104BA000626C69657A20706173206465206E65743B
:104BB000746F796572206C65732072E9736964752E
:104BC00073206465206C27657874727564657573ED
:104BD0006520657420647520706C61746561750072
:104BE000436F6D6D656E63657A20706172206361DD
:104BF0006C6962726572206C6520636170746575A2
:104C00007220656E2072E9676C616E74206C276F8C
:104C10006666736574004269656E76656E756521BA
:104C2000205072E97061726F6E7320656E73656DEE
:104C3000626C65206C27696D7072696D616E746558
:104C4000004672616EE76169730053E96C656374D5
:104C5000696F6E6E657A206C616E67756500417371
:104C600073697374616E7400436F6E7472F46C6573
:104C70002073E9726965004D6F6469666965722029
:104C80006C61207669746573736500546F75742068
:104C900065737420656E206F726472653F005465A1
:104CA000726D696EE9004368617267656D656E7467
:104CB0002064752066696C616D656E7400496E7361
:104CC000E9726572206C652066696C616D656E7451
:104CD00000496E73E972657A206C652066696C61C3
:104CE0006D656E74206574206170707579657A20C9
:104CF000737572206C6520626F75746F6E20706FB3
:104D00007572206C65206368617267657200496E18
:104D1000737472756374696F6E7300457870756C27
:104D200073696F6E20656E20636F757273005265D4
:104D30007469726572206C652066696C616D656E60
:104D400074004170707579657A207075697320619F
:104D50007474656E64657A206C27657870756C7301
:104D6000696F6E2064752066696C616D656E742074
:104D7000706F7572206C652072657469726572005F
:104D8000496E737472756374696F6E730054656DE8
:104D900070E97261747572650054656D70E97261D5
:104DA000747572650053757370656E73696F6E000C
:104DB0004368616E676572206C652066696C616D21
:104DC000656E740044E962757465722070726F6379
:104DD00065737375733F004368616E676572206C1D
:104DE000652066696C616D656E7400417272EA746B
:104DF0006572005265746972657A206C276F626A09
:104E0000657420647520706C617465617500496D0E
:104E10007072657373696F6E207465726D696EE987
:104E2000650053757370656E73696F6E00456E2013
:104E3000706175736500506175736500496D7072BE
:104E4000657373696F6E0054656D70E97261747596
:104E5000726500546F75742065737420656E206FE1
:104E6000726472653F005465726D696EE90052E9C3
:104E7000676C6572204F666673657400417070756B
:104E800079657A2065742072E9676C657A206C61B7
:104E90002076616C657572206A7573717527E020E4
:104EA000636520717565206C27656D626F75742070
:104EB000746F75636865206C6520706C61746561E2
:104EC0007500496E737472756374696F6E73004315
:104ED000616C63756C20647520706C616E20647504
:104EE00020706C61746561750052E9676C657220B1
:104EF0004F66667365740052E9676C616765207080
:104F00006F736974696F6E20656E20636F7572735D
:104F10000052E9676C6572204F66667365740054D1
:104F2000656D70E97261747572650044E96275744B
:104F300065722070726F6365737375733F0052E919
:104F4000676C6572204F6666736574007777772E9D
:104F500062712E636F6D20737570706F72742E3373
:104F6000642E66724062712E636F6D0041696465E4
:104F70000056657273696F6E0054656D70E97261F9
:104F8000747572650054656D70E97261747572654F
:104F90000045787472756465757365202F20312023
:104FA0006D6D0045787472756465757365202F208A
:104FB000302C31206D6D00417865205A202F203132
:104FC00030206D6D00417865205A202F2031206DF2
:104FD0006D00417865205A202F20302C31206D6DD6
:104FE000004178652059202F203130206D6D00411F
:104FF00078652059202F2031206D6D004178652083
:1050000059202F20302C31206D6D004178652058BB
:10501000202F203130206D6D004178652058202FE1
:105020002031206D6D004178652058202F20302CD4
:1050300031206D6D0053E96C656374696F6E6E6548
:105040007A206F7074696F6E0045787472752E20C7
:105050002F2044E9706C61636572206D6D0053E927
:105060006C656374696F6E6E657A206F7074696FBA
:105070006E00417865205A202F2044E9706C6163EE
:105080006572206D6D0053E96C656374696F6E6EB7
:10509000657A206F7074696F6E00417865205920C1
:1050A0002F2044E9706C61636572206D6D0053E9D7
:1050B0006C656374696F6E6E657A206F7074696F6A
:1050C0006E004178652058202F2044E9706C6163A0
:1050D0006572206D6D0054656D70E9726174757252
:1050E000650043686175662E206578747275646525
:1050F0007573653F0045787472752E202F2044E942
:10510000706C61636572206D6D0053E96C6563744A
:10511000696F6E6E657A206F7074696F6E0044E916
:10512000706C61636572206178657300506F73699C
:1051300074696F6E20696E636F6E6E75652C207377
:10514000E96C656374696F6E6E657A20686F6D6572
:1051500020706F757220636F6E74696E7565720072
:1051600044E9706C61636572206C657320617865D9
:10517000730052E9676C616765730052E9676C619F
:10518000676520706F736974696F6E004163637542
:1051900065696C0054656D70E972617475726500C3
:1051A00044E962757465722070726F63657373751C
:1051B000733F004163637565696C00546F757420BB
:1051C00065737420656E206F726472653F0054656C
:1051D000726D696EE90052E9676C657A206C652032
:1051E00074726F697369E86D6520706F696E742001
:1051F0006A7573717527E02063652071756520738A
:1052000027616C6C756D65206C61206C756D69E84B
:10521000726520726F756765004E6976656C6572A0
:1052200020706C61746561750052E9676C657A2065
:105230006C65206465757869E86D6520706F696ECE
:1052400074206A7573717527E02063652071756538
:10525000207327616C6C756D65206C61206C756DB9
:1052600069E8726520726F756765004E6976656CD6
:10527000657220706C61746561750052E9676C65D8
:105280007A206C65207072656D69657220706F6937
:105290006E74206A7573717527E0206365207175DF
:1052A00065207327616C6C756D65206C61206C7571
:1052B0006D69E8726520726F756765004E69766585
:1052C0006C657220706C61746561750052E9676C81
:1052D00061676520706F736974696F6E20656E20F9
:1052E000636F757273004163637565696C00546523
:1052F0006D70E97261747572650044E96275746578
:10530000722070726F6365737375733F004E6976B8
:10531000656C657220706C617465617500546F75A1
:10532000742065737420656E206F726472653F002F
:105330005465726D696EE9004368617267656D65F9
:105340006E742064752066696C616D656E740049C9
:105350006E73E9726572206C652066696C616D65BB
:105360006E7400496E73E972657A206C6520666917
:105370006C616D656E7420657420617070757965FF
:105380007A20737572206C6520626F75746F6E2061
:10539000706F7572206C652063686172676572005A
:1053A000496E737472756374696F6E730054656DC2
:1053B00070E97261747572650054656D70E97261AF
:1053C000747572650052E9676C61676520706F7370
:1053D0006974696F6E00496E73E9726572206C655D
:1053E0002066696C616D656E740044E96275746570
:1053F000722070726F6365737375733F00496E73CB
:10540000E9726572206C652066696C616D656E7409
:1054100000546F75742065737420656E206F72641C
:1054200072653F005465726D696EE900457870756C
:105430006C73696F6E20656E20636F7572730052B6
:10544000657469726572206C652066696C616D6552
:105450006E74004170707579657A2070756973207B
:10546000617474656E64657A206C27657870756CFC
:1054700073696F6E2064752066696C616D656E740A
:1054800020706F7572206C65207265746972657228
:1054900000496E737472756374696F6E730054653E
:1054A0006D70E97261747572650054656D70E972B2
:1054B00061747572650052E9676C61676520706F91
:1054C000736974696F6E0052657469726572206CDD
:1054D000652066696C616D656E740044E96275747F
:1054E00065722070726F6365737375733F005265E8
:1054F0007469726572206C652066696C616D656E99
:105500007400446F7373696572207072E963E964B3
:10551000656E7400526576656E6972206175206DE6
:10552000656E7500496D7072696D6572206669639C
:10553000686965723F00496D70722E2064657075F0
:10554000697320534400566572726F75696C6CE91B
:1055500065004170707579657A206465206661E741
:105560006F6E2070726F6C6F6E67E96520707220CD
:1055700064E9766572726F75696C6C6572206C2770
:10558000696D7072696D616E746500417272EA7462
:10559000206427757267656E6365204F4E005765FE
:1055A000636873656C2064617320505446452D52C6
:1055B000F668726368656E20616C6C652032353008
:1055C000205374756E64656E004572696E6E657207
:1055D000756E6700447275636B706C6174746520DE
:1055E0006E696368742065726B616E6E74004665E7
:1055F000686C67657363686C6167656E00416267BC
:10560000657363686C6F7373656E00447275636B6A
:1056100064617565720053746174697374696B6554
:105620006E0053746174697374696B656E00506FBA
:10563000736974696F6E7361757372696368747589
:105640006E670046696C616D656E7420776563688E
:1056500073656C6E00446572204E616D6520656EE9
:105660007468E46C7420756E67FC6C7469676520FF
:105670005A65696368656E00456E746665726E652D
:10568000206469652052FC636B7374E46E6465206A
:10569000766F6E2064657220506C6174746500448E
:1056A0007275636B20616E676568616C74656E000E
:1056B000506F736974696F6E736175737269636833
:1056C00074756E67200046696C616D656E74207735
:1056D00065636873656C6E00506F736974696F6E93
:1056E000736175737269636874756E670046696C7F
:1056F000616D656E742065696E66FC6872656E002A
:10570000506F736974696F6E7361757372696368E2
:1057100074756E670046696C616D656E7420656EA8
:10572000746E65686D656E004665686C65722062B2
:1057300065696D204175736C6573656E2064657273
:105740002054656D70657261747572004665686C91
:10575000657200476573616D747A6569740041759F
:105760007300696E616B746976004D6F64757300C8
:105770005A7572FC636B00426974746520776172BC
:1057800074656E005A756D204265656E64656E20A5
:105790006472FC636B656E0046FC72205A7572FC85
:1057A000636B206472FC636B656E0046FC72205371
:1057B00074617274206472FC636B656E0046FC72E7
:1057C00020576569746572206472FC636B656E00B6
:1057D0005A756D20416E6E65686D656E206472FC51
:1057E000636B656E00486172642052657365740076
:1057F00053707261636865004F66667365742065F7
:10580000696E73742E005365722E20446973706C38
:105810006179004175746F6D2E204E69762E0048B7
:10582000696C66650056657273696F6E004CFC6644
:10583000746572004C6963687400302C31206D6DA2
:10584000206265776567656E0031206D6D20626549
:10585000776567656E003130206D6D206265776514
:1058600067656E004578747275646572206265774D
:105870006567656E005A2D416368736520626577C0
:105880006567656E00592D416368736520626577B1
:105890006567656E00582D416368736520626577A2
:1058A0006567656E0042657374E4746967656E00D0
:1058B00045726E6575742076657273756368656E82
:1058C000004765736368772E20E46E6465726E002E
:1058D00046696C616D656E74207765636873656C8D
:1058E0006E00416E68616C74656E00506175736521
:1058F00000466F727466616872656E0054656D7003
:1059000065726174757220E46E6465726E00416345
:105910006873656E206265776567656E004D6F74AC
:105920006F72656E20415553004D6F746F72656ED6
:105930002045494E0045696E7374656C6C756E67E1
:10594000656E00486F6D6500506C61747465206E03
:105950006976656C6C696572656E0046696C616D2F
:10596000656E742065696E66FC6872656E004669D6
:105970006C616D656E7420656E746665726E656EC1
:1059800000566F6E2053444B6172746520647275CB
:10599000636B656E0053442D4B61727465206569BD
:1059A0006E7365747A656E004CF6736368743B20A1
:1059B00064656E20447275636B6572206A65747AE3
:1059C00074206E6963687420617573736368616CB9
:1059D00074656E004861726420526573657400449A
:1059E0007572636820466F727466616872656E20B6
:1059F00077657264656E20646965205765726B73A4
:105A00002D65696E7374656C6C756E67656E207A52
:105A10007572FC636B67657365747A7400416368C3
:105A200074756E6721005A7572FC636B7365747AC6
:105A3000656E3F004861726420526573657400565C
:105A400069656C20537061DF206D6974206465693D
:105A50006E656D20576974626F782032212044652D
:105A6000696E6572205068616E7461736965207338
:105A7000696E64206B65696E65204772656E7A6534
:105A80006E2067657365747A74004163687465207D
:105A90006461726175662C2064656E20457874724D
:105AA0007564657220756E642064696520506C6150
:105AB0007474652072FC636B7374616E64736672D8
:105AC0006569207A752068616C74656E005769722B
:105AD00020626567696E6E656E206D69742064650D
